:020000040800F2
:1000000000000320F1A401087537010895370108A5
:10001000B5370108D5370108F537010800000000A1
:1000200000000000000000000000000041A50108E1
:10003000153801080000000041A501083538010805
:1000400041A5010841A5010841A5010841A50108F4
:1000500041A5010841A5010841A5010841A50108E4
:1000600041A5010841A5010841A5010841A50108D4
:1000700041A5010841A5010841A5010841A50108C4
:1000800041A5010841A5010841A5010841A50108B4
:1000900041A5010841A5010841A5010841A50108A4
:1000A00041A5010841A5010841A5010841A5010894
:1000B00041A5010841A5010841A5010841A5010884
:1000C00041A5010841A5010841A5010841A5010874
:1000D00041A5010841A5010841A5010841A5010864
:1000E00041A5010841A5010841A5010841A5010854
:1000F00041A5010841A5010841A5010841A5010844
:1001000041A5010841A5010841A5010841A5010833
:1001100041A5010841A5010841A5010841A5010823
:1001200041A5010841A5010841A5010841A5010813
:1001300041A501084138010841A5010841A5010870
:1001400041A5010841A5010841A5010841A50108F3
:1001500041A5010841A5010841A5010841A50108E3
:1001600041A5010841A5010841A5010841A50108D3
:1001700041A5010841A5010841A5010800000000B2
:1001800041A5010841A5010841A5010841A50108B3
:1001900041A5010841A5010841A5010841A50108A3
:0C01A00041A5010841A5010841A5010886
:1001C0000348044B834202D0034B03B118477047E6
:1001D000C4090020C40900200000000005480649A9
:1001E000091A891001EBD171491002D0034B03B1F8
:1001F00018477047C4090020C4090020000000000F
:1002000010B5064C237843B9FFF7DAFF044B13B15E
:100210000448AFF300800123237010BDC4090020FF
:100220000000000058A5010808B5044B1BB10449A3
:100230000448AFF30080BDE80840CFE700000000AD
:10024000C809002058A50108134B002B08BF114B0B
:100250009D46A3F5803A00218B460F461148124A6D
:10026000121A13F0E3FB0D4B002B00D098470C4BF8
:10027000002B00D098470020002104000D000B48FF
:1002800013F07AFB13F0AEFB2000290000F0D8F841
:1002900013F07EFB000008000000000000000000DA
:1002A00000000000C4090020E80A0020B13901085C
:1002B00008B5022013F02AF9FEE72DE9F04188B0D5
:1002C00013F0DEF8042013F03DF9012013F03AF9A1
:1002D000022013F037F900250195514B1A6C42F0BA
:1002E00002021A641A6C02F002020192019A02954B
:1002F0001A6B42F002021A631B6B03F002030293B3
:10030000029B022604964FF00108CDF814800323C7
:100310000693079608AC102344F8143D414F21463C
:1003200038460CF00BF907962023039321463846F4
:100330000CF004F90796CDF80C80214638460CF0F5
:10034000FDF807960396214638460CF0F7F8364B31
:100350001B68DB09354AA2FB03239B0A013B344A95
:1003600013603448344A0260436040F29923C3600A
:100370000561856045610FF067FB00283ED12F497C
:1003800060230B6000228A600A61CA608A614A6148
:100390004FF4A6734B6027480FF061FC80BB2749E0
:1003A000F9234B60042223480FF059FC50BB23492A
:1003B000A6234B6008221F480FF051FC20BB1F49A9
:1003C00053234B600C221B480FF049FCF0B900216D
:1003D000184810F0FDF9D8B90421164810F0F8F9C2
:1003E000C0B90821134810F0F3F9A8B90C2111483D
:1003F00010F0EEF990B908B0BDE8F081FFF758FFB2
:10040000FFF756FFFFF754FFFFF752FFFFF750FFCC
:10041000FFF74EFFFFF74CFFFFF74AFFFFF748FFDC
:10042000003802400004024010000020C7541E01A2
:10043000E0090020400A002000040040240A0020B7
:1004400008B513F01DF9FFF738FFFEE70F4A1369EF
:1004500023F440731361032910D001290B4A136957
:100460000CBF43F0040343F400431361074A1369CC
:1004700043F4803343EA002010617047136943F46A
:10048000004343F004031361F0E700BF003C024067
:10049000624B1B7E012B00F0B18070B504465F4BB0
:1004A00001221A76036813F0010F6DD0436893425E
:1004B00015D08568C6684CF250300BF0CFFD03466E
:1004C000002862D1564A95423CD0B5F5805F80F055
:1004D0009E8054490A881543ADB20D8055E0856869
:1004E000C6684CF250300BF0B9FD034600284CD1E1
:1004F0004B4A954209D0B5F5805F80F0828049492A
:100500000A8822EA05050D803FE026F00202012A52
:1005100012D045490A8822EA15350D80032E34D1C0
:100520004CF250300BF09AFD034670BB3E490A88EE
:1005300002F470420A8028E03A490A8802F47042C4
:100540000A80EBE726F00202012A15D036490A8814
:1005500042EA1535ADB20D80032E16D14CF2503063
:100560000BF07CFD034680B92F490A886FEA1232EE
:100570006FEA02320A8008E02A490A886FEA1232DA
:100580006FEA02320A80E7E70123226812F0020FC5
:100590000CD1226812F0040F14D1226812F0080F57
:1005A00021D11E4A00211176184670BD25694CF2F2
:1005B00050300BF053FD03460028EAD1EDB21B4A40
:1005C0001570E6E7257E4CF250300BF047FD0346F0
:1005D0000028E2D116490A7825F01F0502F01F0213
:1005E00015430D70D9E7207D114B197801F0F30107
:1005F00019701A7802431A700023D2E702231846B2
:10060000704709490A8822EA15350D80BDE7064979
:100610000A8842EA1535ADB20D80B6E7800A00209F
:1006200000F0FF00163C02401A3C0240153C02401C
:10063000143C02400F2303600E4B1B8883600E4B5B
:100640001B78DBB2CC2B12D00B4B1B78DBB2AA2B66
:100650000CBFAA2355230361084B5B6923F01F03DA
:100660000376074B1B7803F00C0343617047CC23E0
:10067000F1E700BF163C0240153C0240003C02403E
:10068000143C0240F8B50446036813F0010F4CD047
:100690004368012B13D08689C78985684CF2503096
:1006A0000BF0DCFC0346002840D125F00202012AB1
:1006B00028D02A490A8822EA07070F8036E0858970
:1006C000C78986684CF250300BF0C8FC034668BB03
:1006D00026F00202012A04D020490A8817430F801D
:1006E00024E01F4A11880D431580032E1ED14CF2C1
:1006F00050300BF0B3FC0346C0B9184A11880F43C1
:10070000178013E016490A8822EA06060E80032D98
:100710000CD14CF250300BF0A1FC034630B90F491C
:100720000A8822EA07070F8000E00123226812F0FE
:10073000020F01D11846F8BD247C4CF250300BF06A
:100740008DFC03460028F5D1064A117801F0EF012F
:100750001170117821431170ECE700BF1A3C024080
:10076000163C0240143C0240044B1B888381044B1E
:100770001B88C381034B1B7803747047163C0240EF
:100780001A3C0240143C0240034A137843F08003B1
:1007900013700020704700BF173C0240034A1378D3
:1007A00003F07F0313700020704700BF173C024026
:1007B000014B1888704700BF1A3C024010B441B189
:1007C000012922D002290CBF4FF400744FF4407469
:1007D00000E000240B2888BF04300D4B196921F478
:1007E000407119611A6922431A611A6922F0F802EC
:1007F0001A611A6942F0020242EAC00018611A69DD
:1008000042F480321A6110BC70474FF48074E1E703
:10081000003C024008B5184B1B7E012B29D0164B1B
:1008200001221A76154B1A6942F080721A611A6910
:1008300042F000721A61F322DA600368012B0DD0D6
:100840000D4B01221A70C2685A608268DA60017C1E
:1008500019728068FFF7B2FF002008BD064B022224
:100860001A7042681A614168007CFFF7EFFD0020B2
:10087000F3E70220F1E700BF800A0020003C0240BD
:10088000164B1B6813F4007F10D0144B1A6822F427
:1008900000721A601A6842F400621A601A6822F440
:1008A00000621A601A6842F400721A600B4B1B68EF
:1008B00013F4806F10D0094B1A6822F480621A601A
:1008C0001A6842F480521A601A6822F480521A6040
:1008D0001A6842F480621A60704700BF003C024010
:1008E0002DE9F843274B1B7E012B47D00F460446CA
:1008F000244B01221A764CF250300BF0AFFB8146AC
:10090000002835D14FF0FF333B602368012B1BD00B
:10091000A568E3682B449D4228D24CF250381A4E09
:10092000217C2846FFF74AFF40460BF097FB3369CE
:1009300023F0FA0333618146B8B90135E368A26850
:100940001344AB42ECD811E06168207CFFF77EFDD8
:100950004CF250300BF082FB81460B4A136923F4B2
:10096000004323F00403136100E03D60FFF788FFBC
:10097000044B00221A764846BDE8F8834FF002097E
:10098000F9E700BF800A0020003C02400268D368FB
:1009900023F49073D3600268536923F00103536119
:1009A000202380F83A3070472DE9F8430446026866
:1009B000136923F44053C1680B4313610168CA688B
:1009C00083680069034360690343E069034322F4D9
:1009D000164222F00C021343CB602268536923F4C1
:1009E0004073A1690B435361E369B3F5004F5ED0D7
:1009F0002368B34A934200F00C8102F5806293426F
:100A000000F007810DF0C0F900EB800000EB8000E2
:100A100063689B00B0FBF3F3AA4FA7FB03235B09BA
:100A20001D010DF0B1F900EB800000EB8000636860
:100A30009B00B0FBF3F60DF0A7F900EB800000EB94
:100A4000800063689B00B0FBF3F3A7FB03235B0903
:100A50004FF0640909FB13631B013233A7FB032327
:100A60005B0903F0F0060DF08FF900EB800000EB5E
:100A7000800063689B00B0FBF3F80DF085F92268F5
:100A800000EB800000EB800063689B00B0FBF3F399
:100A9000A7FB03135B0909FB13831B013233A7FB7D
:100AA0000313C3F3431333432B44936005E12368DB
:100AB000834A934258D002F58062934254D00DF09D
:100AC00063F900EB800000EB800063685B00B0FB23
:100AD000F3F37C4FA7FB03235B091E010DF054F9D0
:100AE00000EB800000EB800063685B00B0FBF3F577
:100AF0000DF04AF900EB800000EB800063685B00BA
:100B0000B0FBF3F3A7FB03235B094FF0640909FB78
:100B10001353DB003233A7FB03231B0903F4F875DF
:100B20000DF032F900EB800000EB800063685B00A1
:100B3000B0FBF3F80DF028F9226800EB800000EB21
:100B4000800063685B00B0FBF3F3A7FB03135B0952
:100B500009FB1383DB003233A7FB0313C3F34213F8
:100B600033442B449360A8E00DF01EF900EB8000A5
:100B700000EB800063685B00B0FBF3F3514FA7FB11
:100B800003235B091E010DF00FF900EB800000EB61
:100B9000800063685B00B0FBF3F50DF005F900EB36
:100BA000800000EB800063685B00B0FBF3F3A7FB01
:100BB00003235B094FF0640909FB1353DB00323355
:100BC000A7FB03231B0903F4F8750DF0EDF800EB08
:100BD000800000EB800063685B00B0FBF3F80DF071
:100BE000E3F8226800EB800000EB800063685B00A4
:100BF000B0FBF3F3A7FB03135B0909FB1383DB00D3
:100C00003233A7FB0313C3F3421333442B449360E3
:100C100053E00DF0C9F800EB800000EB8000636842
:100C20009B00B0FBF3F3274FA7FB03235B091D01D8
:100C30000DF0BAF800EB800000EB800063689B00C9
:100C4000B0FBF3F60DF0B0F800EB800000EB800095
:100C500063689B00B0FBF3F3A7FB03235B094FF032
:100C6000640909FB13631B013233A7FB03235B09F0
:100C700003F0F0060DF098F800EB800000EB800028
:100C800063689B00B0FBF3F80DF08EF8226800EB70
:100C9000800000EB800063689B00B0FBF3F3A7FBD0
:100CA00003135B0909FB13831B013233A7FB0313F7
:100CB000C3F3431333432B449360BDE8F88300BF71
:100CC000001001401F85EB512DE9F04107460E460B
:100CD00015469846069C3A68136836EA03030CBF2B
:100CE00001230023AB421DD1B4F1FF3FF4D02CB15E
:100CF0000DF054F9A0EB0800A042ECD93A68D36893
:100D000023F4D073D3603A68536923F0010353612D
:100D1000202387F8393087F83A30002387F83830B5
:100D2000032000E00020BDE8F081704758B310B503
:100D3000044690F839300BB3242384F83930226804
:100D4000D36823F40053D3602046FFF72DFE2268BA
:100D5000136923F4904313612268536923F02A0333
:100D600053612268D36843F40053D3600020E063EA
:100D7000202384F8393084F83A3010BD80F83830B8
:100D8000FFF7D3FFD8E701207047002830D010B517
:100D9000044690F8393033B3242384F8393022687C
:100DA000D36823F40053D3602046FFF7FDFD22688B
:100DB000136923F4904313612268536923F02203DB
:100DC00053612268536943F0080353612268D36872
:100DD00043F40053D3600020E063202384F83930CB
:100DE00084F83A3010BD80F83830FFF79EFFD3E723
:100DF0000120704700283BD038B504460D4690F8D6
:100E00003930002B2FD0242384F839302268D3685E
:100E100023F40053D3602046FFF7C6FD2268136910
:100E200023F4006313612268536923F02A0353619A
:100E30002268136943F4804313612268136923F025
:100E400020031361236819690D431D612268D3686B
:100E500043F40053D3600020E063202384F839304A
:100E600084F83A3038BD80F83830FFF75EFFCAE7C3
:100E700001207047002840D070B5044616460D4644
:100E800090F83930002B33D0242384F8393022688D
:100E9000D36823F40053D3602046FFF785FD226812
:100EA000136923F4904313612268536923F02A03E2
:100EB00053612268136923F00F03136123681969D2
:100EC0000D431D612268D36823F40063D360216859
:100ED000CB683343CB602268D36843F40053D360BC
:100EE0000020E063202384F8393084F83A3070BD64
:100EF00080F83830FFF719FFC6E7012070477047C8
:100F0000A0B110B50446242380F839300268D368B4
:100F100023F40053D360FFF7F2FF0020E06384F86E
:100F2000390084F83A0084F8380010BD0120704779
:100F30002DE9F04383B01E4690F83930DBB2202B08
:100F400059D104460D469046002959D0002A59D05F
:100F500090F83830012B57D0012380F83830002327
:100F6000C363212380F839300DF018F80746A4F840
:100F70002480A4F826804FF000094FF0800810E08C
:100F800000963B464A4641462046FFF79DFE002814
:100F90003CD122682B88C3F3080353602369C3B98B
:100FA0000235E38C9BB2B3B1E38C013B9BB2E3848B
:100FB000A368B3F5805FE3D000963B464A464146BE
:100FC0002046FFF781FE18BB23682A785A60013556
:100FD000E7E70135E5E700963B4600224021204641
:100FE000FFF772FE0346A8B9202284F839200022B8
:100FF00084F8382000E00223184603B0BDE8F083EF
:101000000123F9E70123F7E70223F5E70323F3E7D9
:101010000323F1E70323EFE72DE9F04383B01E46F6
:1010200090F83A30DBB2202B5BD104460D461746D0
:1010300000295AD0002A5AD090F83830012B58D0C5
:10104000012380F838300023C363222380F83A302C
:101050000CF0A4FF8146A785E7854FF00008202704
:101060001DE000964B46424639462046FFF72CFECF
:10107000002840D1236933B923685B68C3F30803B0
:1010800025F8023B0BE023685B68DBB225F8013BE7
:1010900005E023685B6803F07F032B700135E38D67
:1010A0009BB2BBB1E38D013B9BB2E385A368B3F573
:1010B000805FD6D000964B46424639462046FFF721
:1010C00003FED0B92369002BE3D123685B682B7042
:1010D0000135E4E7202384F83A30002084F8380012
:1010E00000E0022003B0BDE8F0830120FAE7012010
:1010F000F8E70220F6E70320F4E70320F2E790F890
:101100003930DBB2202B16D1B9B1C2B190F83830EA
:10111000012B16D001628284C2840023C363212282
:1011200080F8392080F838300168CA6842F08002BF
:10113000CA6018467047022070470120704701209E
:1011400070470220704790F83A30DBB2202B20D154
:1011500009B312B390F83830012B20D08162828518
:10116000C2850023C363222280F83A2080F83830F9
:101170000168CA6842F48072CA6001684A6942F034
:1011800001024A610168CA6842F02002CA6018463A
:1011900070470220704701207047012070470220ED
:1011A000704738B590F83940E4B2202C31D100298D
:1011B00031D0002A31D090F83830012B2FD013468F
:1011C0000446012280F8382001628384C38400250C
:1011D000C563212280F83920026B1248D063226B4C
:1011E00011481064226B1148D064226B1565226887
:1011F0000432206B0AF00BF923686FF040021A608A
:1012000084F838502268536943F0800353612846BC
:1012100000E0022038BD0120FCE70120FAE70220AF
:10122000F8E700BF6115000893150008871600084D
:1012300030B583B090F83A40E4B2202C3DD100297B
:101240003ED0002A3ED090F83830012B3CD01346D7
:101250000A460446012180F8381082628385002501
:10126000C563222180F83A10416B1848C863616B4E
:1012700017480864616B1748C864616B0D65216885
:101280000431606B0AF0C3F8019523681A68019273
:101290005A680192019A84F83850DA6842F48072F0
:1012A000DA602268536943F001035361226853698D
:1012B00043F040035361284600E0022003B030BDF4
:1012C0000120FBE70120F9E70220F7E79F1500085E
:1012D0007B1600088716000890F83830012B2FD0B5
:1012E000012380F838300268516990F83930DBB258
:1012F000212B0BD00268516990F83A30DBB2222BD7
:101300000CD0002380F838301846704711F0800F59
:10131000F0D0536923F080035361EBE711F0400FE5
:10132000EFD0D36823F48073D3600268536923F04D
:10133000010353610268536923F040035361E0E7FE
:101340000220704790F83830012B34D0012380F808
:10135000383090F83930DBB2212B09D090F83A3090
:10136000DBB2222B0AD0002380F8383018467047B1
:101370000268536943F080035361EFE782B00023B2
:10138000019303681A6801925A680192019ADA6817
:1013900042F48072DA600268536943F001035361DA
:1013A0000268536943F040035361002380F83830EA
:1013B000184602B070470220704710B50446026814
:1013C000516990F83930DBB2212B08D0226851697D
:1013D00094F83A30DBB2222B15D0002010BD11F06A
:1013E000800FF3D0536923F080035361006B08B181
:1013F0000AF057F82268D36823F0C003D360202393
:1014000084F83930E2E711F0400FE6D0536923F059
:1014100040035361606B08B10AF043F82046FFF7C0
:10142000B5FADAE710B504460268D36823F4F0731E
:10143000D3600268536923F00103536103685A695A
:1014400012F0800F0BD05A6922F080025A61036BB0
:101450002BB100221A65006B0AF023F8D0B923687B
:101460005A6912F0400F0BD05A6922F040025A61BB
:10147000636B2BB100221A65606B0AF012F890B909
:101480000020E084E085E063202384F83A3084F88B
:10149000393010BD206B0AF04FFA2028DFD110231D
:1014A000E3630320F5E7606B0AF046FA2028E7D1F2
:1014B0001023E3630320ECE710B504460268D36809
:1014C00023F0C003D36003685A6912F0800F0BD079
:1014D0005A6922F080025A61036B2BB100221A650F
:1014E000006B09F0DEFF28B90020E084202384F897
:1014F000393010BD206B0AF01FFA2028F4D11023D8
:10150000E3630320F5E710B504460268D36823F4CB
:101510009073D3600268536923F001035361036839
:101520005A6912F0400F0BD05A6922F040025A61FA
:10153000436B2BB100221A65406B09F0B2FF28B94A
:101540000020E085202384F83A3010BD606B0AF05B
:10155000F3F92028F4D11023E3630320F5E7704763
:1015600008B5836B0268126812F4807F0CD10022E8
:10157000DA8419684A6922F080024A611A68D368DD
:1015800043F04003D36008BD1846FFF7E8FFFAE7D1
:10159000704708B5806BFFF7FBFF08BD704708B5C3
:1015A000836B0268126812F4807F13D10022DA85FF
:1015B0001968CA6822F48072CA6019684A6922F000
:1015C00001024A6119684A6922F040024A612022F8
:1015D00083F83A201846FFF7E1FF08BD08B590F8F8
:1015E0003A30DBB2222B45D18368B3F5805F0ED051
:1015F000036903BB03685A68836A591C81621A70C5
:10160000C38D013B9BB2C385F3B1002033E0826AF6
:10161000036943B903685B68C3F308031380836AF3
:1016200002338362ECE703685B68DBB21380836A92
:1016300001338362E4E703685B68826A511C81625C
:1016400003F07F031370DBE70268D36823F0200305
:10165000D3600268D36823F48073D360026853694F
:1016600023F001035361202380F83A30FFF796FFFF
:10167000002000E0022008BD704708B5806BFFF72E
:10168000FBFF08BD704710B5846B2268516994F860
:101690003930DBB2212B0ED023685A6994F83A30E6
:1016A000DBB2222B14D0E36B43F01003E36320463C
:1016B000FFF7E8FF10BD11F0800FEDD00023E384A9
:1016C000D36823F0C003D360202384F83930E3E7E4
:1016D00012F0400FE7D00023E3852046FFF756F9CC
:1016E000E1E710B5044602681368D068516913F049
:1016F0000F0F17D113F0200F02D010F0200F0DD1D3
:1017000013F0800F02D010F0800F77D113F0400F4C
:1017100003D010F0400F40F0A08010BD2046FFF72E
:101720005DFFFAE711F0010102D110F4907FE7D0DC
:1017300013F0010F06D010F4807F03D0E26B42F06B
:101740000102E26313F0040F40D0002900F0908002
:10175000E26B42F00202E26313F0020F00F09480A9
:10176000E26B42F00402E26313F0080F03D0E26B75
:1017700042F00802E263E26B002ACED013F0200FA1
:1017800002D010F0200F27D123685A69E36B13F0C1
:10179000080F02D112F0400F2AD02046FFF7F6F8CA
:1017A00023685A6912F0400F1ED05A6922F0400295
:1017B0005A61636BA3B1374A1A65606B09F0BBFECF
:1017C0000028AAD0606B036D9847A6E713F0020FBC
:1017D00052D00029C4D1CEE72046FFF7FFFED3E761
:1017E0002046FFF74FFF98E72046FFF74BFF94E7AF
:1017F0002046FFF747FF0023E3638EE794F8393074
:10180000DBB2212B89D1A368B3F5805F16D0236AA0
:10181000591C21621B785360E38C013B9BB2E3842B
:10182000002B7FF47AAF2268D36823F08003D36063
:101830002268D36843F04003D3606EE7236A1B88B5
:10184000C3F30803536023691BB9236A023323627D
:10185000E2E7236A01332362DEE7D36823F0400323
:10186000D360202384F839302046FFF778FE54E710
:1018700013F0020F7FF47FAF13F0080F3FF47BAF3C
:1018800000293FF478AF72E713F0080F7FF46FAFD1
:1018900071E700BF9918000808B5806B0023C38565
:1018A000C384FFF7EFFE08BD704710B50446026819
:1018B000D36823F4F073D3600268536923F0010303
:1018C0005361036B3BB10268526912F0800F14BF81
:1018D000244A00221A65636B3BB12268526912F0F8
:1018E000400F14BF204A00221A6523685A6912F07B
:1018F000800F0BD05A6922F080025A61206B28B108
:1019000009F019FE08B3236B00221A6523685A698F
:1019100012F0400F0BD05A6922F040025A61606BFE
:1019200028B109F008FE70B1636B00221A6500232C
:10193000E384E385E363202384F8393084F83A3084
:101940002046FFF7B1FF002010BD23685A6912F04E
:10195000400FF8D05A6922F040025A61606B0028AB
:10196000DFD1F0E7991900086D19000808B5806B00
:10197000436B00221A65036B13B11B6D03B108BDE5
:101980000023C384C385C363202380F8393080F8E3
:101990003A30FFF789FFF2E708B5806B036B00224E
:1019A0001A65436B13B11B6D03B108BD0023C384DB
:1019B000C385C363202380F8393080F83A30FFF7BD
:1019C00073FFF2E7704710B504460268D36823F04E
:1019D000C003D36003685A6912F0800F18D05A69A7
:1019E00022F080025A61036B53B10D4A1A65006BF5
:1019F00009F0A1FD10B1206B036D9847002010BDC8
:101A00000023C384202380F83930FFF7DBFFF5E79C
:101A10000023C384202380F83930FFF7D3FFEDE79C
:101A2000251A000808B5806B0023C384202380F8A2
:101A30003930FFF7C7FF08BD704710B5044602688C
:101A4000D36823F49073D3600268536923F00103D1
:101A5000536103685A6912F0400F18D05A6922F096
:101A600040025A61436B53B10D4A1A65406B09F04D
:101A700062FD10B1606B036D9847002010BD00231C
:101A8000C385202380F83A30FFF7D6FFF5E700231F
:101A9000C385202380F83A30FFF7CEFFEDE700BF83
:101AA000A51A000808B5806B0023C385202380F8A1
:101AB0003A30FFF7C1FF08BD90F83830012B12D043
:101AC000012380F83830242380F839300268D36845
:101AD00043F00103D360202380F83930002380F8DD
:101AE0003830184670470220704790F83830012B84
:101AF00012D0012380F83830242380F8393002686E
:101B0000D36843F00203D360202380F839300023E8
:101B100080F83830184670470220704790F8383007
:101B2000012B12D0012380F83830242380F839307B
:101B30000268D36823F00203D360202380F8393091
:101B4000002380F83830184670470220704790F81C
:101B50003830012B14D0012380F83830242380F84A
:101B600039300268D36823F00C0343F00803D360D4
:101B7000202380F83930002380F838301846704729
:101B80000220704790F83830012B14D0012380F8E0
:101B90003830242380F839300268D36823F00C03EE
:101BA00043F00403D360202380F83930002380F809
:101BB0003830184670470220704790F8393090F856
:101BC0003A0018437047C06B704700BF82B0154B96
:101BD0001B68154AA2FB03235B0A642202FB03F382
:101BE0000193019B43B1019B013B019303689B68F7
:101BF00013F0020FF5D003E0436D43F0400343655B
:101C00000268136823F0400313600268536823F0EE
:101C1000E00353600368DB68072380F8513002B0AB
:101C2000704700BF10000020F11976050268536864
:101C300023F0800353600268136823F040031360AD
:101C4000072380F851307047F8B507460E46154611
:101C50001C463A68936836EA03030CBF012300234D
:101C6000AB4237D0B4F1FF3FF4D00CF097F9069BAC
:101C7000C01AA04201D2002CEBD13A68536823F07D
:101C8000E00353607B68B3F5827F0BD0BB6AB3F58A
:101C9000005F14D0012387F85130002387F85030BB
:101CA000032018E0BB68B3F5004F02D0B3F5806F96
:101CB000ECD13A68136823F040031360E6E73A6812
:101CC000136823F4005313603A68136843F4005315
:101CD0001360DFE70020F8BD10B582B00446009223
:101CE0000B4600228021FFF7AFFF034610B91846CC
:101CF00002B010BD636D43F0200363650323F6E774
:101D000010B582B004460B464168B1F5827F0AD017
:101D10000092002280212046FFF796FF034678B903
:101D2000184602B010BD8168B1F5004F02D0B1F580
:101D3000806FEDD12068016821F040010160E7E784
:101D4000636D43F0200363650323E9E770470028D0
:101D500041D010B5044690F85130002B32D0022308
:101D600084F851302268136823F04003136022681E
:101D70006368A1680B43E1680B4321690B43616908
:101D80000B43E1690B43216A0B43A16A0B43A16931
:101D900001F400710B4313602268638B03F00403AA
:101DA000616A0B435360A36AB3F5005F0FD02268EA
:101DB000D36923F40063D36100206065012384F8B4
:101DC000513010BD80F85030FFF7C0FFC7E72368DF
:101DD000E26A1A61EBE701207047704790B110B5D5
:101DE0000446022380F851300268136823F0400350
:101DF0001360FFF7F2FF0020606584F8510084F85B
:101E0000500010BD012070472DE9F04182B090F8DC
:101E10005040012C00F0DB801D46174688460446E2
:101E2000012380F850300CF0B9F8064694F8513090
:101E3000DBB2012B09D00220012384F851300023AA
:101E400084F8503002B0BDE8F081B8F1000F00F026
:101E5000B680002F00F0B580032384F851300023B2
:101E60006365C4F83080A786E786A363A387E3870A
:101E700063642364A368B3F5004F20D0A36AB3F56D
:101E8000005F22D023681A6812F0400F03D11A684D
:101E900042F040021A60E368B3F5006F20D0636837
:101EA0000BB1012F54D12368226B12781A73236B64
:101EB00001332363E38E013B9BB2E38648E0226853
:101EC000136843F480431360D8E72268136823F44F
:101ED000005313602268136843F400531360D1E782
:101EE00063680BB1012F13D12368226B1288DA606B
:101EF000236B02332363E38E013B9BB2E38607E04F
:101F00000CF04CF8801BA84216D3B5F1FF3F5AD114
:101F1000E38E9BB2002B32D023689A6812F0020F36
:101F2000EED0226B1288DA60236B02332363E38ED8
:101F3000013B9BB2E386EBE7002DE9D103207BE771
:101F40000CF02CF8801BA84215D3B5F1FF3F3CD113
:101F5000E38E9BB29BB123689A6812F0020FEFD018
:101F6000226B12781A73236B01332363E38E013BD8
:101F70009BB2E386ECE7002DEAD103205CE7A36A7D
:101F8000B3F5005F15D0324629462046FFF7A4FE80
:101F900008B120236365A36833B901932368DA6825
:101FA00001929B680193019B606D003018BF012076
:101FB00042E72268136843F480531360E3E701208B
:101FC0003AE7012038E7032036E7032034E7022010
:101FD00038E72DE9F04385B0DDF8308090F85040C7
:101FE000012C00F063811D4617460E46044601236E
:101FF00080F850300BF0D2FF814694F85100C0B207
:10200000012816D06368B3F5827F0AD00225012328
:1020100084F85130002384F85030284605B0BDE8DC
:10202000F083A368002B40F03581042801D00225FD
:10203000EDE7002E00F03081002F00F02F81002D01
:1020400000F02E8194F85130DBB2042B1CBF052325
:1020500084F8513000236365A763E587A58726636D
:10206000E586A58623646364A36AB3F5005F1FD089
:1020700023681A6812F0400F03D11A6842F0400238
:102080001A60E368B3F5006F1DD063680BB1012DD2
:102090000AD12368226B12781A73236B01332363EE
:1020A000E38E013B9BB2E386012500272E468CE0A0
:1020B0002268136823F4005313602268136843F402
:1020C00000531360D4E763680BB1012D0AD1236874
:1020D000226B1288DA60236B02332363E38E013BA9
:1020E0009BB2E386012500272E4624E02268136870
:1020F00043F4805313603D4600E03D4623689A68F0
:1021000012F0010F0DD0E28F92B252B1DA68A36BD8
:102110001A80A36B0233A363E38F013B9BB2E38777
:1021200035460BF03BFFA0EB0900404503D3B8F167
:10213000FF3F40F0B780E38E9BB21BB9E38F9BB2A9
:10214000002B6CD023689A6812F0020FD6D0E28E72
:1021500092B2002AD2D0002DD0D0226B1288DA6041
:10216000236B02332363E38E013B9BB2E386E38E52
:102170009BB2002BC1D1A36AB3F5005FB6D03D4638
:10218000BCE72268136843F4805313603D4600E0C7
:102190003D4623689A6812F0010F0DD0E28F92B28B
:1021A00052B1DA68A36B1A70A36B0133A363E38F98
:1021B000013B9BB2E38735460BF0F0FEA0EB090034
:1021C000404527D3B8F1FF3F6ED1E38E9BB213B9E0
:1021D000E38F9BB21BB323689A6812F0020FD8D02A
:1021E000E28E92B2002AD4D0012DD2D1226B127885
:1021F0001A73236B01332363E38E013B9BB2E386A7
:10220000E38E9BB2002BC3D1A36AB3F5005FB8D0B5
:102210003D46BEE7B8F1000FD7D10325F7E6A36A24
:10222000B3F5005F0DD023689A6812F0100F1AD032
:10223000626D42F0020262654FF6EF729A6001250C
:1022400012E0CDF800904346012211462046FFF7E8
:10225000FBFC28B1636D43F0020363650325D6E6FA
:102260002368DB68DFE700254A4641462046FFF742
:1022700033FD18B1202363650125C8E6A368002B50
:102280007FF4C5AE03932368DA6803929B680393D7
:10229000039BBCE60225BAE60125B8E60125B6E6B1
:1022A0000125B4E60325B2E60325B0E60225B4E62F
:1022B0002DE9F04182B004460F4690461D46436822
:1022C000B3F5827F19D094F85030012B00F0F280E2
:1022D000012384F850300BF061FE064694F851302B
:1022E000DBB2012B15D00220012384F851300023EA
:1022F00084F8503002B0BDE8F0818368002BE2D151
:10230000042380F85130009513460A46FFF761FE1A
:10231000F0E7002F00F0C480B8F1000F00F0C28099
:10232000042384F8513000236365A763A4F83C803C
:10233000A4F83E802363A386E38623646364A36AD0
:10234000B3F5005F0FD0A368B3F5004F1AD0236830
:102350001A6812F0400F03D11A6842F040021A6066
:10236000E368F3B13DE02268136823F4005313607F
:102370002268136843F400531360E38F013B9BB260
:10238000E387E0E72268136823F480431360DEE705
:102390000BF004FE801BA84217D3B5F1FF3F40F0BD
:1023A0008380E38F9BB2002B32D023689A6812F0AF
:1023B000010FEDD0A26B1B7B1370A36B0133A363E2
:1023C000E38F013B9BB2E387EBE7002DE9D10320CC
:1023D0008AE70BF0E3FD801BA84215D3B5F1FF3F60
:1023E00064D1E38F9BB29BB123689A6812F0010F0E
:1023F000EFD0DA68A36B1A80A36B0233A363E38F79
:10240000013B9BB2E387ECE7002DEAD103206BE7A9
:10241000A36AB3F5005F18D0324629462046FFF77D
:102420006FFC08B12023636523689A6812F0100FCF
:1024300006D0626D42F0020262654FF6EF729A605A
:10244000606D003018BF01204EE72268136843F426
:102450008053136000962B46012211462046FFF759
:10246000F3FB28BBE368B3F5006F11D02268A36BC0
:10247000127B1A7000962B46012211462046FFF768
:10248000E3FB50B1636D43F00203636503202BE768
:102490002368DA68A36B1A80ECE72368DB68BBE784
:1024A000012021E701201FE703201DE703201BE790
:1024B000032019E702201DE7034690F85000012889
:1024C00052D0012083F85000002944D0002A44D083
:1024D00093F85100C0B2012801D002203EE0032051
:1024E00083F851000020586519639A86DA8698634C
:1024F0009887D8871864DA68CAB11C4A5A649A68FF
:10250000B2F5004F16D09A6AB2F5005F18D019687C
:102510004A6842F0A0024A601A68116811F0400F40
:1025200020D1116841F040011160002016E0104AEE
:102530005A64E4E719680A6842F480420A60E2E7F4
:1025400019680A6822F400520A6019680A6842F49D
:1025500000520A60DBE7012000E00120002283F83E
:10256000502070470020F9E702207047792D0008BD
:10257000412D000830B490F85040012C63D0012464
:1025800080F8504090F85140E4B2012C11D04568D9
:10259000B5F5827F06D00223002280F8502018462D
:1025A00030BC70478568002D43D1042C01D0022334
:1025B000F2E700293FD0002A3FD0002B3FD090F80F
:1025C0005140E4B2042C1CBF052480F85140002483
:1025D000446501638386C38682638387C387C36838
:1025E000BBB11A4B03641A4B4364836AB3F5005FB3
:1025F00014D00268536843F0E003536003681A681C
:1026000012F0400F1DD11A6842F040021A600023F8
:10261000C2E7104B0364104B4364E6E7026813689B
:1026200023F4005313600268136843F400531360EB
:10263000DFE70223B0E70123AEE70123ACE7012384
:10264000AAE70023A8E70223A9E700BFD9300008C2
:102650008530000821300008CD2F000838B5044629
:1026600085681DB94368B3F5827F10D094F8500097
:10267000012859D0012384F8503094F85100C0B299
:1026800098420CD00220002384F8503038BD134605
:10269000042280F851200A46FFF76CFFF6E7002974
:1026A0003CD0002A3CD0042384F8513000236365D9
:1026B000A163A287E2872363A386E3866364E3685A
:1026C000C3B11A4B2364B5F5004F16D0A36AB3F516
:1026D000005F18D02268536843F06003536023689A
:1026E0001A6812F0400F1DD11A6842F040021A60B9
:1026F0000020C8E70E4B2364E5E72268136823F443
:1027000080431360E2E72268136823F400531360E8
:102710002268136843F400531360DBE70120B2E73B
:102720000120B0E70020AEE70220AFE78D2E0008C1
:10273000272E000890F85030012B6ED010B50446BB
:10274000012380F8503090F85130DBB2012B05D0D6
:102750000223002284F85020184610BD002958D0CA
:10276000002A58D0032380F85130002343650163C9
:102770008286C2868363436403648387C3878368D6
:10278000B3F5004F20D0A36AB3F5005F22D0A36C4D
:10279000234A1A64A36C234ADA63A36C224ADA64DC
:1027A000A36C00221A65E38E22680C32216BA06CA8
:1027B00008F02DFE0346C0B1636D43F0100363655E
:1027C000012384F85130C4E70268136843F480435E
:1027D0001360D8E72268136823F40053136022685B
:1027E000136843F400531360D1E72268116811F0B5
:1027F000400F03D1116841F04001116021684A681F
:1028000042F020024A6021684A6842F002024A60AF
:102810009FE701239DE701239BE7022318467047AA
:102820008B2C0008573100083531000838B590F876
:102830005040012C00F0A8800446012084F850008C
:1028400094F85100C0B2012811D06568B5F5827FB7
:1028500005D00223002284F85020184638BDA56810
:10286000002D40F08980042801D00223F2E70029DE
:1028700000F08480002A00F08380002B00F082802A
:1028800094F85100C0B204281CBF052084F8510000
:10289000002060652163A386E386A263A387E387A4
:1028A00020646064A36AB3F5005F20D094F85130CF
:1028B000DBB2042B26D0E36C344A1A64E36C344A4E
:1028C000DA63E36C334ADA64E36C00221A65E38F5F
:1028D0002168A26B0C31E06C08F099FDC8B1636D02
:1028E00043F010036365012384F85130B2E7226896
:1028F000136823F4005313602268136843F40053F1
:102900001360D3E7E36C244A1A64E36C234ADA6366
:10291000D7E72268536843F001035360A26C002399
:102920001364A26CD363A26CD364A26C1365E38EB0
:1029300022680C32216BA06C08F069FD034638B1A7
:10294000636D43F010036365012384F8513081E720
:102950002268116811F0400F03D1116841F0400165
:10296000116021684A6842F020024A6021684A6882
:1029700042F002024A606DE702236BE7012369E738
:10298000012367E7012365E7022366E7A32C00081C
:102990006132000835310008972C0008C731000863
:1029A00038B5044685681DB94368B3F5827F11D0F8
:1029B00094F85000012873D0012084F8500094F856
:1029C0005100C0B201280ED00223002284F850200A
:1029D000184638BD042380F8513013460A46FFF7E5
:1029E00025FF0346F4E7002956D0002A56D00423D9
:1029F00084F8513000236365A163A287E2872364D2
:102A00006364A386E386B5F5004F20D0A36AB3F5CF
:102A1000005F22D0E36C234A1A64E36C224ADA6333
:102A2000E36C224ADA64E36C00221A65E38F2168C2
:102A3000A26B0C31E06C08F0EAFC0346C0B1636D98
:102A400043F010036365012384F85130BDE7226829
:102A5000136823F480431360D8E72268136823F4D3
:102A6000005313602268136843F400531360D1E7E6
:102A70002268116811F0400F03D1116841F0400144
:102A8000116021684A6842F020024A6021684A6861
:102A900042F001024A6098E7012396E7012394E798
:102AA000022395E7972C0008C7310008353100084C
:102AB00010B584B004464A4B1B684A4AA2FB032364
:102AC0005B0A642202FB03F30293029B03930268F6
:102AD000536823F0200353600268536813F0800F9B
:102AE00012D0414B4364039B43B1039B013B0393CF
:102AF00094F85130DBB2072BF5D103E0636D43F05E
:102B000040036365029B0393536813F0400F12D098
:102B1000364B2364039B43B1039B013B039394F81F
:102B20005130DBB2072BF5D103E0636D43F0400376
:102B30006365029B0393536813F0020F1DD0A36CCF
:102B4000DBB100221A65A06C08F0ABFC08B1402391
:102B500063652268536823F002035360039B43B10B
:102B6000039B013B039323689B6813F0020FF5D08E
:102B700003E0636D43F04003636523685B6813F013
:102B8000010F13D0E36C8BB100221A65E06C08F0E2
:102B900088FC08B1402363652268136823F0400372
:102BA00013602268536823F0010353600023E38716
:102BB000E386636D402B1ABF002060650120002270
:102BC00000922368D9680091996800910099019258
:102BD0009B680193019B012384F8513004B010BD20
:102BE00010000020F11976052D1C0008CD1B0008EF
:102BF00090F85030012B0CD0012380F8503002683F
:102C0000536823F003035360002380F850301846C4
:102C100070470220704790F85030012B0CD00123F0
:102C200080F850300268536843F003035360002378
:102C300080F85030184670470220704738B5044677
:102C4000806C48B108F02DFC054630B1636D43F04F
:102C500010036365012500E00025E06C38B108F041
:102C600020FC20B1636D43F01003636501252268E9
:102C7000536823F003035360012384F8513028463E
:102C800038BD704770477047704708B5806BFFF7D5
:102C9000FBFF08BD704708B5806BFFF7FBFF08BD61
:102CA000704708B5806BFFF7FBFF08BD704710B594
:102CB00082B00446204B1B68204AA2FB03235B0A18
:102CC000642202FB03F301930BF068F90246019BB7
:102CD00043B1019B013B019323689B6813F0020FF2
:102CE000F5D003E0636D43F02003636521684B6812
:102CF00023F0A0034B6064212046FEF7EDFF18B1DE
:102D0000636D43F020036365A36833B900932368C0
:102D1000DA6800929B680093009B012384F851308D
:102D2000636D23B92046FFF7ACFF02B010BD20460B
:102D3000FFF7BCFFF9E700BF10000020F11976058E
:102D400008B50368026B12781A73036B01330363CF
:102D5000C38E013B9BB2C386C38E9BB22BB9836AE1
:102D6000B3F5005F02D0FFF7A2FF08BD0268136849
:102D700043F480531360F6E708B50368026B1288CA
:102D8000DA60036B02330363C38E013B9BB2C386DD
:102D9000C38E9BB22BB9836AB3F5005F02D0FFF7F5
:102DA00086FF08BD0268136843F480531360F6E79A
:102DB00010B582B004460268536823F06003536084
:102DC0000BF0ECF8024664212046FEF799FF18B19B
:102DD000636D43F020036365A36833B901932368EF
:102DE000DA6801929B680193019B012384F85130BA
:102DF00023689A6812F0100F06D1636D7BB12046EC
:102E0000FFF754FF02B010BD626D42F0020262652E
:102E10004FF6EF729A602046FFF748FFF2E7204630
:102E2000FFF730FFEEE708B50268836B127B1A707C
:102E3000836B01338363C38F013B9BB2C387C38F13
:102E40009BB2012B09D0C38F9BB27BB9836AB3F5C8
:102E5000005F09D1094B036408E0836AB3F5005FA2
:102E600005D0C38F9BB20BB9FFF7A2FF08BD026864
:102E7000136843F480531360E5E700BF812E000818
:102E800008B503681B7BFFF793FF08BD08B503680F
:102E9000DA68836B1A80836B02338363C38F013BD1
:102EA0009BB2C387C38F9BB2012B09D0C38F9BB248
:102EB0007BB9836AB3F5005F09D1094B036408E06D
:102EC000836AB3F5005F05D0C38F9BB20BB9FFF7E0
:102ED0006FFF08BD0268136843F480531360E5E791
:102EE000E52E000808B50368DA685A6822F0600227
:102EF0005A60FFF75DFF08BD10B582B00446314B44
:102F00001B68314AA2FB03235B0A642202FB03F322
:102F100001930BF043F8024621684B6823F020032D
:102F20004B60019B43B1019B013B019323689B686C
:102F300013F0020FF5D003E0636D43F020036365E7
:102F400064212046FEF7C8FE18B1636D43F02003EC
:102F50006365A36833B900932368DA6800929B68BD
:102F60000093009B23689A6812F0100F0ED1636DD6
:102F70000BBB94F85130DBB2042B15D0012384F83D
:102F800051302046FFF77FFE02B010BD012284F8C9
:102F90005120626D42F0020262654FF6EF729A6054
:102FA0002046FFF783FEEFE7012384F851302046E7
:102FB000FFF768FEE8E7012384F851302046FFF769
:102FC00075FEE1E710000020F119760508B50368E9
:102FD000026B12781A73036B01330363C38E013BD8
:102FE0009BB2C386C38E9BB25BB9836AB3F5005FA5
:102FF00008D00268536823F080035360C38F9BB2EC
:103000005BB108BD0268136843F480531360026823
:10301000536823F080035360F3E7FFF76DFFF0E799
:1030200008B50268836B127B1A70836B013383636C
:10303000C38F013B9BB2C387C38F9BB25BB9836ACB
:10304000B3F5005F08D00268536823F06003536053
:10305000C38E9BB21BB108BD024B0364FBE7FFF7B5
:103060004BFFF8E76930000808B503681A7B5A6817
:1030700022F060025A60C38E9BB203B108BDFFF715
:103080003BFFFBE708B50368026B1288DA60036B4D
:1030900002330363C38E013B9BB2C386C38E9BB2D4
:1030A0005BB9836AB3F5005F08D00268536823F008
:1030B00080035360C38F9BB25BB108BD0268136885
:1030C00043F4805313600268536823F08003536015
:1030D000F3E7FFF711FFF0E708B50368DA68836BE1
:1030E0001A80836B02338363C38F013B9BB2C38718
:1030F000C38F9BB25BB9836AB3F5005F08D00268E7
:10310000536823F040035360C38E9BB21BB108BDCC
:10311000024B0364FBE7FFF7EFFEF8E721310008FD
:1031200008B50368DA685A6822F040025A60FFF76F
:10313000E3FE08BD08B5806B0268536823F0030303
:103140005360436D43F010034365012380F8513011
:10315000FFF7ACFD08BD30B583B00546846B0AF0BF
:103160001DFF2B681B6813F4807F23D122685368EE
:1031700023F0200353602268536823F00203536056
:10318000024664212046FEF7A7FD18B1636D43F0A7
:1031900020036365A36833B901932368DA68019259
:1031A0009B680193019B0023E386012384F851303F
:1031B000636D23B92046FFF764FD03B030BD2046A0
:1031C000FFF774FDF9E770B582B00546846B0AF02D
:1031D000E5FE2B681B6813F4807F29D10646226820
:1031E000536823F020035360A36AB3F5005F24D033
:1031F0002268536823F0030353603246642120465B
:10320000FEF77EFD08B1202363650023E3870123D9
:1032100084F8513023689A6812F0100F06D0626D5E
:1032200042F0020262654FF6EF729A60636D9BB9DD
:103230002046FFF727FD02B070BD009064230122F5
:1032400011462046FEF700FD18B1636D43F00203FE
:1032500063652368DB68CBE72046FFF727FDEAE7D5
:1032600070B582B00546846B0AF098FE2B681B6827
:1032700013F4807F2CD106462268536823F0200384
:103280005360A36AB3F5005F27D03246642120461D
:10329000FEF722FD18B1636D43F0200363652268D9
:1032A000536823F0030353600023E386E38701237D
:1032B00084F8513023689A6812F0100F06D0626DBE
:1032C00042F0020262654FF6EF729A60636D9BB93D
:1032D0002046FFF7D8FC02B070BD009064230122A5
:1032E00011462046FEF7B0FC18B1636D43F00203AF
:1032F00063652368DB68C8E72046FFF7D7FCEAE789
:1033000070B584B00446016848688A68930913F070
:10331000010509D112F0010F06D010F0400F03D0C3
:10332000236C2046984708E012F0020F07D010F0F7
:10333000800F04D0636C2046984704B070BD5609D6
:10334000334313F0010F5ED010F0200FF5D07DB1A4
:1033500094F85130DBB2032B59D0636D43F0040372
:10336000636500230093CB6800938B680093009BF8
:1033700016F0010F0CD0636D43F001036365002369
:1033800002938B6802930B6823F040030B60029B4F
:1033900012F4807F09D0636D43F008036365002356
:1033A000039323689B680393039B636D002BC4D036
:1033B0002268536823F0E0035360012384F85130FE
:1033C00010F0030F2BD02268536823F003035360DF
:1033D000E36C4BB1144A1A65E06C08F0ACF818B114
:1033E000636D43F040036365A36C002BA5D00E4AC8
:1033F0001A65A06C08F09FF800289ED0636D43F01A
:103400004003636599E712F4807F9DD195E700231F
:103410000193CB6801938B680193019B8DE7204654
:10342000FFF744FC89E700BF2D34000808B5806B26
:103430000023C387C386FFF739FC08BD704770B50A
:1034400084B004464F4B1B684F4AA2FB03235B0A20
:10345000642202FB03F30293029B03930268536806
:1034600023F0200353600268536813F0800F12D0DA
:10347000464B4364039B43B1039B013B039394F886
:103480005130DBB2072BF5D103E0636D43F040030D
:103490006365029B0393536813F0400F12D03C4BBB
:1034A0002364039B43B1039B013B039394F8513086
:1034B000DBB2072BF5D103E0636D43F04003636596
:1034C000029B0393A36C33B1526812F0020F14BF36
:1034D000304A00221A65E36C3BB12268526812F050
:1034E000010F14BF2C4A00221A6523685B6813F091
:1034F000020F0BD0A06C48B108F01DF8054600285B
:1035000036D0A36C00221A654023636523685B688C
:1035100013F0010F10D0E06C012668B108F00BF831
:10352000054630B1E36C00221A654023636500252F
:1035300016B9284604B070BD0023E387E386636DA7
:10354000402B1ABF002565650125002200922368E3
:10355000D968009199680091009901929B68019344
:10356000019B012384F851302046FFF767FFE0E715
:1035700023685B6813F0010FDBD0E06C0028D8D023
:103580000026CBE710000020F11976052D1C00085D
:10359000CD1B0008153600089D35000810B582B017
:1035A000846B2268136823F040031360E36C0022ED
:1035B0001A652268536823F0010353600AF0EEFC99
:1035C000024664212046FEF787FB18B1636D43F085
:1035D00040036365A36C0BB11B6DCBB90023E3877C
:1035E000E386636D402B1CBF0023636500220092BD
:1035F0002368D968009199680091009901929B68AD
:103600000193019B012384F851302046FFF716FFF8
:1036100002B010BD00B585B0806B836C00221A65C6
:103620001E4B1B681E4AA2FB03235B0A642202FB9B
:1036300003F303930268536823F002035360039B70
:1036400043B1039B013B039303689B6813F0020F94
:10365000F5D003E0436D43F040034365C36C0BB109
:103660001B6DC3B90023C387C386436D402B1CBFAA
:1036700000234365002201920368D968019199688B
:103680000191019902929B680293029B012380F8A9
:103690005130FFF7D3FE05B05DF804FB10000020A9
:1036A000F119760590F851007047406D704700BFE2
:1036B00070B40C6850F82430194E1E408D684A686A
:1036C00045EA0203CA6813430A6913434A6913436C
:1036D0008A691343CA6913430A6A13434A6A134344
:1036E0008A6A1343CA6A1343CA6B13430A6B1343B0
:1036F0004A6B13433343082D08BF43F0400340F89F
:1037000024304B6BB3F5801F02D0002070BC704793
:103710000B68002BF9D0036843F480130360F4E7CF
:103720008000E0FF10B400EB820450F8223023F058
:10373000010340F822305AB143F2D20340F822305C
:103740006FF07043636041F82230002010BC704776
:1037500043F2DB030360F3E730B400EB820254680A
:1037600004F040440B688D692B434D6843EA051310
:103770008D6843EA0523CD6843EA05430D69013DA1
:1037800043EA05534D69023D43EA05632343536011
:10379000036813F4801F07D0436823F470030A6999
:1037A000013A43EA02534360002030BC7047B3F54E
:1037B000804F05D06FF0704340F8223000207047F2
:1037C00030B450F822300A4C1C400B688D692B43F2
:1037D0004D6843EA05138D6843EA0523C96843EA47
:1037E0000143234340F82230002030BC704700BF23
:1037F0000000F0CF50F8213043F4805340F82130DE
:103800000020704750F8213023F4805340F82130D5
:103810000020704730B40C68102C0CBF0368036A9A
:103820000C4A1A404B688D682B4343F00803CD685F
:103830002B430D692B434D6943EA4523896943EACC
:1038400041331343102C0CBF03600362002030BCD3
:10385000704700BF8101F0FF102A0DD0836A4A68CB
:103860008B681B0443EA02230A681343CA6843EACD
:10387000026383620020704783684A688B681B0478
:1038800043EA02230A681343CA6843EA0263836077
:10389000F0E7102A0DD0C36A4A688B681B0443EA1C
:1038A00002230A681343CA6843EA0263C362002022
:1038B0007047C3684A688B681B0443EA02230A689E
:1038C0001343CA6843EA0263C360F0E710290DD0CE
:1038D000036A23F004030362182303624023436254
:1038E0004FF0FC338362C36200207047036823F00B
:1038F0000403036018230360402343604FF0FC334C
:103900008360C360F0E7102905D0036A43F04003E9
:10391000036200207047036843F040030360F8E748
:10392000102905D0036A23F040030362002070478A
:10393000036823F040030360F8E72DE9F0410546F2
:103940000F4614461E460AF029FB8046102C0CBF79
:103950006B686B6A83F04003C3F380135BB1B6F10D
:10396000FF3FF3D07EB10AF019FBA0EB0800B04294
:10397000ECD9032005E0102C0CBF6B696B6B3B602E
:103980000020BDE8F0810320FBE710B4026822F4B8
:10399000FF3222F03A024C680B6843F0100343EA0E
:1039A0004423896843EA413313430360002010BC79
:1039B000704783684A688B681B0443EA02230A68DD
:1039C0001343CA6843EA0263836000207047C368F8
:1039D0004A688B681B0443EA02230A681343CA68D7
:1039E00043EA0263C3600020704703694A688B683A
:1039F0001B0443EA02230A681343CA6843EA0263CA
:103A00000361002070470346026822F0040202604E
:103A100018220260002058604FF0FC329A60DA6091
:103A20001A6170470B68012B19D0036823F4FF4318
:103A300023F07F034A6813438A681343CA68134319
:103A40000A6913434A6913438A691343CA691343D2
:103A50000A6A13434A6A134303600020704710B494
:103A6000026822F4F842CB691A430B6A1A434B6A84
:103A70001A43436823F4FF4323F07F034C68234336
:103A80008C682343CC6823430C6923434C6923434C
:103A900089690B4302604360002010BC7047012A13
:103AA00020D083684A68013A03F0704343EA021366
:103AB0000A68013A13438A68013A43EA0223CA6852
:103AC000013A43EA02330A69013A43EA02434A6986
:103AD000013A43EA02538A69013A43EA0263836086
:103AE0000020704710B48368CA68013A23F4700359
:103AF00023F4704343EA02334A69013A43EA02522B
:103B0000C3684C68013C03F0704343EA04130C683B
:103B1000013C23438C68013C43EA04230C69013CCB
:103B200043EA04438969013943EA01638260C3605F
:103B3000002010BC7047034600EB81024FF4347044
:103B400043F821006FF070419160002018615861C6
:103B50009861704750F8213043F4007340F82130E9
:103B60000020704750F8213023F4007340F82130D2
:103B70000020704770B582B00446154600230193BB
:103B80000B684A681343CA6843EA42238A68013AC9
:103B900043EA42130193019B03610AF0FFF90646D1
:103BA000A36913F0200F0AD0B5F1FF3FF8D04DB153
:103BB0000AF0F4F9801BA842F2D9032000E00020AB
:103BC00002B070BD0320FBE7436943EA4101416154
:103BD00000207047036943EA4111016100207047EA
:103BE00021B18069800800F006007047806900F00C
:103BF00006007047074AD36823F4E0631B041B0CDC
:103C000043F0BF6343F40033000200F4E060034379
:103C1000D360704700ED00E030B4164BDB68C3F3AF
:103C20000223C3F10704042C28BF04241D1D062D04
:103C30008CBF033B00234FF0FF3505FA04F421EA63
:103C40000401994005FA03F322EA0303194300280B
:103C500009DB0901C9B200F1604000F5614080F85C
:103C6000001330BC704700F00F000901C9B2024BCD
:103C70001954F6E700ED00E014ED00E0002808DB41
:103C8000420900F01F00012303FA00F0014B43F842
:103C90002200704700E100E000280DDB430900F03E
:103CA0001F00012202FA00F02033044A42F82300E8
:103CB000BFF34F8FBFF36F8F704700BF00E100E08D
:103CC000BFF34F8F0549CA6802F4E062044B134307
:103CD000CB60BFF34F8F00BFFDE700BF00ED00E0FA
:103CE0000400FA050138B0F1807F0AD2064B586013
:103CF000064AF02182F823100020986007221A60FB
:103D000070470120704700BF10E000E000ED00E0C8
:103D1000BFF35F8F044A536A23F480335362034B2B
:103D200000225A60704700BF00ED00E090ED00E017
:103D300040F00100054B5860054A536A43F4803354
:103D40005362BFF34F8FBFF36F8F704790ED00E06A
:103D500000ED00E04278134B9A60037823B9114BD1
:103D60000022DA601A61704743680E4AD360017B13
:103D7000C37A1B0643EA017301780B43817A43EA55
:103D8000C143417B43EA8143817B43EA4143C17B99
:103D900043EA0143417A43EA0123017A43EA4103BA
:103DA0001361704790ED00E0024BD868C0F3022029
:103DB000704700BF00ED00E070B4002822DB00F186
:103DC000604000F5614090F80003000901F0070130
:103DD000C1F10704042C28BF04240D1D062D8CBF3F
:103DE000033900214FF0FF3505FA04F420FA01F6FB
:103DF00026EA0404146005FA01F120EA01001860C3
:103E000070BC704700F00F00014C205C0009DDE73A
:103E100014ED00E0002809DB430900F01F00012237
:103E200002FA00F04033024A42F82300704700BF14
:103E300000E100E000280BDB43094033054A52F85B
:103E4000233000F01F0023FA00F000F0010070475B
:103E50000020704700E100E0002809DB430900F082
:103E60001F00012202FA00F06033024A42F82300E8
:103E7000704700BF00E100E000280BDB43098033FE
:103E8000054A52F8233000F01F0023FA00F000F03A
:103E9000010070470020704700E100E00428044A58
:103EA00013680CBF43F0040323F00403136070474E
:103EB00010E000E0704708B5FFF7FCFF08BD00BF49
:103EC00003685A6912F4806F11D06FF480625A61EE
:103ED00000230363202280F83D2080F83E30026CEE
:103EE00042F00402026480F83C3001207047002058
:103EF00070472DE9F041064690461D46C1F307473D
:103F00008CB2012F33680CBF5B699B6934EA0303F1
:103F10000CBF01230023984519D1B5F1FF3FF0D024
:103F20000AF03CF8069BC01AA84201D8002DE8D13F
:103F300000233363202286F83D2086F83E30326C21
:103F400042F02002326486F83C30012000E000207C
:103F5000BDE8F0812DE9F041044617469846C1F3CB
:103F600007468DB2012E23680CBF5B699B6935EA59
:103F7000030314BF01230023002B35D023685A69A3
:103F800012F4806F19D1B7F1FF3FEBD00AF006F8B9
:103F9000A0EB0800B84201D8002FE3D1002323632F
:103FA000202284F83D2084F83E30226C42F020022A
:103FB000226484F83C30012017E01A6842F4007251
:103FC0001A6023686FF480625A6100232363202201
:103FD00084F83D2084F83E30226C42F004022264D2
:103FE00084F83C30012000E00020BDE8F08170B58D
:103FF00004460D46164623685B6913F0800F1CD1FA
:104000002046FFF75DFFD0B9B5F1FF3FF3D009F0CF
:10401000C5FF801BA84201D8002DECD100232363EB
:10402000202284F83D2084F83E30226C42F02002A9
:10403000226484F83C30012000E0002070BD0120A3
:10404000FCE72DE9F04184B00446884616461F4639
:104050000B9D0268136843F48073136000950A9BFC
:1040600000224FF00111FFF744FF20B10123184651
:1040700004B0BDE8F081226808F0FE0313612B460E
:104080000A9A21492046FFF765FF08B10123EEE7B0
:104090000023039323685A6903929B690393039B4C
:1040A0002A460A992046FFF7A2FF034658B1236C1F
:1040B000042B01D00123DAE72268136843F400736C
:1040C00013600123D3E7012F0ED02368320A1A614F
:1040D0002A460A992046FFF78AFF034678B1236CE7
:1040E000042B05D00123C2E72268F6B21661BEE7B1
:1040F0002268136843F4007313600123B7E7226852
:10410000F6B21661B3E700BF020001002DE9F041ED
:1041100084B004460E46174698460B9D0268136805
:1041200043F4806313600268136843F48073136080
:1041300000950A9B00224FF00111FFF7DAFE18B13B
:10414000012004B0BDE8F081F6B2236806F0FE025B
:104150001A612B460A9A38492046FFF7FBFE08B140
:104160000120EEE70023039323685A6903929B69B9
:104170000393039B2A460A992046FFF738FF58B15C
:10418000236C042B01D00120DBE72268136843F481
:10419000007313600120D4E7B8F1010F0DD123683B
:1041A000FFB21F612A460A992046FFF720FF20B37D
:1041B000236C042B1AD00120C3E723683A0A1A6142
:1041C0002A460A992046FFF712FF58B1236C042BA8
:1041D00001D00120B5E72268136843F4007313602F
:1041E0000120AEE72368FFB21F61DBE72268136896
:1041F00043F4007313600120A3E72268136843F4BB
:104200008073136000950A9B00224FF00111204635
:10421000FFF76FFE08B1012093E7236846F001061F
:104220001E612B460A9A04492046FFF793FE003090
:1042300018BF012085E700BF0200010070B50446E9
:104240000D46164623685B6913F0040F1CD1204607
:10425000FFF736FED0B9B5F1FF3FF3D009F09EFE6F
:10426000801BA84201D8002DECD10023236320221B
:1042700084F83D2084F83E30226C42F02002226413
:1042800084F83C30012000E0002070BD0120FCE7F4
:1042900070B505460C4616462B685A6912F0400F59
:1042A00029D15A6912F0100F15D109F077FE801B41
:1042B000A04201D8002CEFD100232B63202285F8E7
:1042C0003D2085F83E302A6C42F020022A6485F8B1
:1042D0003C30012070BD6FF010025A6100232B6347
:1042E000202285F83D2085F83E302A6C2A6485F826
:1042F0003C300120EEE70020ECE77047002800F09A
:10430000A28070B5044690F83D30002B6CD0242379
:1043100084F83D302268136823F00103136009F02C
:1043200033FD62684A4B9A4294BF4A4B4A4B9842CB
:104330008CBF00230123002B40F08780474BA3FB59
:1043400000239B0C21684A6822F03F021A434A600E
:1043500025682A6A22F03F0266683D498E4248D8A5
:10436000013313432B622568E96921F44F4121F0A1
:10437000FF016268364B9A4245D801385300B0FBC2
:10438000F3F30133C3F30B03042B38BF04230B43B4
:10439000EB6121680A68E369206A034322F0C002E6
:1043A00013430B6021688A682369E068034322F4A1
:1043B000034222F0FF0213438B602168CA686369DD
:1043C000A069034322F0FF021343CB602268136805
:1043D00043F00103136000202064202384F83D3063
:1043E000206384F83E0070BD80F83C30FFF785FF05
:1043F0008DE74FF4967101FB03F31949A1FB0313F9
:104400009B090133ADE7A36853B9013802EB4202BF
:10441000B0FBF2F20132C2F30B027AB90123B6E724
:10442000013802EB820202EB8202B0FBF2F20132AF
:10443000C2F30B022AB142F44043A8E742F400431E
:10444000A5E70123A3E7012070470120CBE700BFC8
:10445000A08601007F841E00FF083D0083DE1B4311
:10446000D34D62107047A8B110B50446242380F8DC
:104470003D300268136823F001031360FFF7F2FF79
:104480000020206484F83D00206384F83E0084F816
:104490003C0010BD012070472DE9F04184B0044676
:1044A0000E4690461F4609F079FD94F83D30DBB288
:1044B000202B04D00226304604B0BDE8F08105462A
:1044C0000090192301226E492046FFF712FD0028B3
:1044D00040F0CD8094F83C30012B00F0CA800123DD
:1044E00084F83C3023681A6812F0010F03D11A686F
:1044F00042F001021A602268136823F4006313601B
:10450000212384F83D30102384F83E3000232364B7
:10451000C4F824806785638D23855A4BE362E36A80
:10452000082B0DD0012B0BD013F5803F08D0236B47
:10453000122B0AD12268136843F48073136004E0DD
:104540002268136843F48073136000950A9B00226D
:104550004FF001112046FFF7CCFC002840F08D8081
:104560002369B3F5804F15D1236806F0FE061E615E
:104570002B460A9A44492046FFF7ECFC06460028E1
:1045800079D10023039323685A6903929B690393AB
:10459000039B25E02268F31103F0060343F0F003C8
:1045A00013612B460A9A39492046FFF7D3FC0028AD
:1045B00063D12368F6B21E61DAE7236C042B01D0C5
:1045C000012678E72268136843F40073136001261C
:1045D00071E72A460A992046FFF730FE00282CD1C1
:1045E000238D002B35D02A460A992046FFF7FFFC81
:1045F0000028E2D12368626A12781A61616A4B1C52
:104600006362638D013B9BB26385238D013B9BB24B
:1046100023852268506910F0040FDAD0002BD8D01F
:104620004B781361636A01336362638D013B9BB214
:104630006385238D013B2385CBE7236C042B01D0BD
:10464000012638E72268136843F4007313600126DB
:1046500031E72268136843F400731360202384F861
:104660003D30002384F83E3084F83C3023E70226B6
:1046700021E702261FE701261DE701261BE700BFF1
:10468000020010000000FFFF02000100080001000E
:104690002DE9F04188B004460E4690461F4609F0C9
:1046A0007DFC94F83D30DBB2202B04D0022630464E
:1046B00008B0BDE8F08105460090192301227C492D
:1046C0002046FFF716FC002840F0A58194F83C3006
:1046D000012B00F0A281012384F83C3023681A6882
:1046E00012F0010F03D11A6842F001021A60226829
:1046F000136823F400631360222384F83D301023F1
:1047000084F83E3000232364C4F824806785638DD9
:104710002385684BE362E26A21680B6843F4806397
:104720000B60082A0DD0012A0BD012F5803F08D06B
:10473000236B112B0AD12268136843F48073136032
:1047400004E02268136843F48073136000950E9BA5
:1047500000224FF001112046FFF7CBFB002832D199
:104760002369B3F5804F20D1236846F00106F6B2E5
:104770001E612B460E9A50492046FFF7EBFB06467A
:10478000002840F04C81238D002B43D103932368F4
:104790005A6903929A690392039A1A6842F4007262
:1047A0001A60DFF81C810027B6E0F71107F0060752
:1047B000236847F0F0021A612B460E9A3F492046C3
:1047C000FFF7C8FB08B1012671E72368F6B21E6146
:1047D0002B460E9A38492046FFF7BCFB0028F2D141
:1047E00000220792236859690791996907910799EF
:1047F000196841F48071196000950E9B4FF001110A
:104800002046FFF776FB0028DDD1236847F0F1074B
:104810001F61AEE7012B0FD0022B1FD02268136857
:1048200043F4806313600023069323685A69069259
:104830009B690693069BB4E72268136823F48063A0
:1048400013600023049323685A6904929A690492BE
:10485000049A1A6842F400721A60A2E72268136888
:1048600023F4806313602268136843F400631360C9
:104870000023059323685A6905929B690593059B5C
:104880008FE72A460E992046FFF702FD002840F0E8
:10489000C88023681A69636A1A70636A01336362A5
:1048A000238D013B2385638D013B9BB2638533E000
:1048B000020010000000FFFF0200010008000100DC
:1048C0000400010000950E9B3A4641462046FFF742
:1048D00010FB002840F0A7802268136843F400739F
:1048E000136023681A69636A1A70626A531C6362F0
:1048F000238D013B2385638D013B9BB26385236838
:104900001B695370636A01336362238D013B238506
:10491000638D013B9BB26385238D002B72D0032BEB
:1049200049D8012BADD0022BCCD000950E9B3A4636
:1049300041462046FFF7DDFA002876D12268136849
:1049400023F48063136023681A69636A1A70636AC8
:1049500001336362238D013B2385638D013B9BB251
:10496000638500950E9B3A4641462046FFF7C1FA03
:1049700000285CD12268136843F400731360236835
:104980001A69636A1A70626A531C6362238D013B61
:104990002385638D013B9BB2638523681B6953703C
:1049A000636A01336362238D013B2385638D013B81
:1049B0009BB26385B0E72A460E992046FFF768FC54
:1049C000002836D123681A69636A1A70626A531C18
:1049D0006362238D013B2385638D013B9BB263851D
:1049E0002368596911F0040F96D01B695370636AEC
:1049F00001336362238D013B2385638D013B9BB2B1
:104A0000638589E7202384F83D30002384F83E3015
:104A100084F83C304BE6022649E6022647E60126AA
:104A200045E6012643E6012641E601263FE601264A
:104A30003DE601263BE62DE9F04184B004460F46F1
:104A400090461D4609F0AAFA94F83D30DBB2202BBF
:104A500040F0A8800646002F00F0A980B8F1000FB2
:104A600000F0A78094F83C30012B00F0A4800123D3
:104A700084F83C3023681A6812F0010F03D11A68D9
:104A800042F001021A602268136823F40063136085
:104A9000212384F83D30202384F83E300022226414
:104AA0006762A4F82A80638D2385474BE3622168FF
:104AB0000B6843F480630B6000962B464349204605
:104AC000FFF717FA002878D10023029323685A6968
:104AD00002929B690293029B2369B3F5404F2CD04D
:104AE000238D002B42D0324629462046FFF77FFA1D
:104AF000002834D12368626A12781A61616A4B1CFB
:104B00006362638D013B9BB26385238D013B9BB246
:104B100023852268506910F0040FE1D0002BDFD00C
:104B20004B781361636A01336362638D013B9BB20F
:104B30006385238D013B2385D2E700962B46002217
:104B400022492046FFF7D5F9002838D100230393E6
:104B500023685A6903929B690393039BC0E7226809
:104B6000136823F48063136001231CE000962B4636
:104B700000224FF482312046FFF7BBF9034600BB09
:104B800022686FF48061516121680A6822F48062B2
:104B90000A60202284F83D20002284F83E2084F818
:104BA0003C2000E00223184604B0BDE8F081012358
:104BB000F9E70123F7E70223F5E70123F3E70123F0
:104BC000F1E70123EFE700BF0000FFFF0200010053
:104BD0002DE9F04184B004460F4690461D4609F089
:104BE000DDF994F83D30DBB2202B40F09A80064688
:104BF000002F00F09B80B8F1000F00F0998094F82E
:104C00003C30012B00F09680012384F83C3023686F
:104C10001A6812F0010F03D11A6842F001021A60FB
:104C20002268136823F400631360222384F83D3064
:104C3000202384F83E30002222646762A4F82A8090
:104C4000638D2385484BE36221680B6843F48063DE
:104C50000B6000962B4645492046FFF74AF9074668
:104C6000002869D10023029323685A6902929B6944
:104C70000293029B238D002B2FD0324629462046DB
:104C8000FFF706FB10BB23681A69636A1A70616A32
:104C90004B1C6362238D013B9BB22385628D013ADD
:104CA00092B262852268506910F0040FE2D0002BA6
:104CB000E0D013694B70636A01336362238D013B5B
:104CC0002385638D013B9BB26385D3E7226813681C
:104CD00023F480631360012724E023685A6912F0EB
:104CE000100F2BD12046FFF7EBF898B909F056F9D1
:104CF000801B854201D3002DEFD1002323632022A6
:104D000084F83D2084F83E30226C42F02002226478
:104D100084F83C302268136823F480631360012711
:104D200000E00227384604B0BDE8F0810127F9E72A
:104D30000127F7E70227F5E70127F3E700220392AF
:104D400059690391196841F001011960039B2168B9
:104D50000B6823F480630B60202384F83D3084F8D3
:104D60003E2084F83C20DDE70000FFFF0200010048
:104D700030B482B00024019490F83D40E4B2202C7D
:104D800056D12E4C2468E4082D4DA5FB0454240A6A
:104D900004EB840404EB84040194019C013C019421
:104DA000019C002C35D00468A56915F0020FF4D1E0
:104DB00090F83C50012D3FD0012580F83C502568EB
:104DC00015F0010F03D1256845F001052560056840
:104DD0002C6824F400642C60212480F83D401024C9
:104DE00080F83E400024046442624385438D03857D
:104DF000144BC36241640268136843F48073136008
:104E000080F83C400268536843F4E06353602046F6
:104E10000FE000230363202280F83D2080F83E301D
:104E2000026C42F02002026480F83C30012000E075
:104E3000022002B030BC70470220FAE710000020C8
:104E400089B5F8140000FFFF30B482B0002401944B
:104E500090F83D40E4B2202C5BD1314C2468E4084A
:104E6000304DA5FB0454240A04EB840404EB8404B1
:104E70000194019C013C0194019C002C3AD00468EF
:104E8000A56915F0020FF4D190F83C50012D44D0E3
:104E9000012580F83C50256815F0010F03D12568E5
:104EA00045F00105256005682C6824F400642C6039
:104EB000222480F83D40102480F83E400024046401
:104EC00042624385438D0385174BC3624164026888
:104ED000136843F4806313600268136843F48073BB
:104EE000136080F83C400268536843F4E063536009
:104EF00020460FE000230363202280F83D2080F845
:104F00003E30026C42F02002026480F83C30012006
:104F100000E0022002B030BC70470220FAE700BF78
:104F20001000002089B5F8140000FFFF90F83D3014
:104F3000DBB2202B36D1002936D0002A36D090F8AB
:104F40003C30012B34D010B4012380F83C3003688E
:104F50001C6814F0010F03D11C6844F001041C60AC
:104F60000468236823F400632360212380F83D3024
:104F7000202380F83E300023036441624285428D45
:104F800002850C4AC26201680A6842F480620A60C3
:104F900080F83C3001684A6842F4E0624A60184692
:104FA00010BC7047022070470120704701207047F5
:104FB000022070470000FFFF90F83D30DBB2202B4D
:104FC00036D1002936D0002A36D090F83C30012B5B
:104FD00034D010B4012380F83C3003681C6814F00E
:104FE000010F03D11C6844F001041C6004682368AD
:104FF00023F400632360222380F83D30202380F8CF
:105000003E300023036441624285428D02850C4A92
:10501000C26201680A6842F480620A6080F83C302B
:1050200001684A6842F4E0624A60184610BC704762
:10503000022070470120704701207047022070470E
:105040000000FFFF30B583B00024019490F83D408C
:10505000E4B2202C40F09E80514C2468E408514D6D
:10506000A5FB0454240A04EB840404EB8404019497
:10507000019C013C0194019C002C3DD00468A56971
:1050800015F0020FF4D190F83C50012D00F086800D
:10509000012580F83C50256815F0010F03D12568E3
:1050A00045F00105256005682C6824F400642C6037
:1050B000212480F83D40102480F83E400024046400
:1050C00042624385438D9BB20385374AC262416485
:1050D0000BBB0268136843F48063136002681368B3
:1050E00043F480731360002380F83C3001684A6801
:1050F00042F4E0624A604EE000230363202280F81D
:105100003D2080F83E30026C42F02002026480F8BC
:105110003C3001233FE00446436B244ADA63436B8F
:10512000234ADA64426B00231364426B5364426B7C
:105130009364426B13650268038D1032416A406BC1
:1051400006F065F90346B8B921680A6842F480623E
:105150000A6021680A6842F480720A60002284F8BA
:105160003C2021684A6842F440724A6021684A68DB
:1051700042F400624A600EE0202384F83D300022B1
:1051800084F83E20236C43F01003236484F83C2011
:10519000012300E00223184603B030BD0223FAE7E2
:1051A0001000002089B5F8140000FFFF096B00080B
:1051B000CB6A000830B583B00024019490F83D40DC
:1051C000E4B2202C40F09E80514C2468E408514DFC
:1051D000A5FB0454240A04EB840404EB8404019426
:1051E000019C013C0194019C002C3DD00468A56900
:1051F00015F0020FF4D190F83C50012D00F086809C
:10520000012580F83C50256815F0010F03D1256871
:1052100045F00105256005682C6824F400642C60C5
:10522000222480F83D40102480F83E40002404648D
:1052300042624385438D9BB20385374AC262416413
:105240000BBB0268136843F4806313600268136841
:1052500043F480731360002380F83C3001684A688F
:1052600042F4E0624A604EE000230363202280F8AB
:105270003D2080F83E30026C42F02002026480F84B
:105280003C3001233FE00446836B244ADA63836B9E
:10529000234ADA64826B00231364826B5364826B4B
:1052A0009364826B13650168038D426A1031806BD1
:1052B00006F0ADF80346B8B921680A6842F4806286
:1052C0000A6021680A6842F480720A60002284F849
:1052D0003C2021684A6842F440724A6021684A686A
:1052E00042F400624A600EE0202384F83D30002240
:1052F00084F83E20236C43F01003236484F83C20A0
:10530000012300E00223184603B030BD0223FAE770
:105310001000002089B5F8140000FFFF096B000899
:10532000CB6A000890F83D30DBB2202B61D1002918
:1053300062D0002A62D090F83C30012B60D010B5CA
:10534000012380F83C3003681C6814F0010F03D17E
:105350001C6844F001041C6004460068036823F4E0
:1053600000630360212384F83D30202384F83E301D
:105370000023236461626285628D2285214AE26294
:10538000626B2149D163626B2049D164626B136403
:10539000626B5364626B9364626B13652268238D46
:1053A0001032616A606B06F032F8034670B1202358
:1053B00084F83D30002284F83E20236C43F0100333
:1053C000236484F83C200123184610BD21680A6834
:1053D00042F480620A60002284F83C2021684A6816
:1053E00042F440724A6021684A6842F400624A60AE
:1053F000EAE70223184670470123FBE70123F9E798
:105400000223F7E70000FFFF096B0008CB6A0008E2
:1054100090F83D30DBB2202B61D1002962D0002A08
:1054200062D090F83C30012B60D010B5012380F899
:105430003C3003681C6814F0010F03D11C6844F071
:1054400001041C6004460068036823F400630360E1
:10545000222384F83D30202384F83E300023236447
:1054600061626285628D2285214AE262A26B2149D6
:10547000D163A26B2049D164A26B1364A26B536405
:10548000A26B9364A26B13652168238D626A10314D
:10549000A06B05F0BCFF034670B1202384F83D30BB
:1054A000002284F83E20236C43F01003236484F828
:1054B0003C200123184610BD21680A6842F480622E
:1054C0000A60002284F83C2021684A6842F4407255
:1054D0004A6021684A6842F400624A60EAE70223AF
:1054E000184670470123FBE70123F9E70223F7E79A
:1054F0000000FFFF096B0008CB6A00082DE9F041AE
:1055000082B004460E461746984608F047FD94F8C8
:105510003D30DBB2202B04D00223184602B0BDE898
:10552000F08105460090192301224C492046FEF7E0
:10553000E0FC002840F08B8094F83C30012B00F018
:105540008880012384F83C3023681A6812F0010F28
:1055500003D11A6842F001021A602268136823F42A
:1055600000631360212384F83D30402384F83E30EB
:1055700000232364089B6362BDF824306385638D38
:105580002385374BE36201950A9B009343463A46D5
:1055900031462046FEF755FD00285CD1238D002BB7
:1055A00034D02A460A992046FEF721FD10BB236815
:1055B000626A12781A61616A4B1C6362238D013B37
:1055C0009BB22385628D013A92B26285226850694E
:1055D00010F0040FE2D0002BE0D04B781361636A27
:1055E00001336362238D013B2385638D013B9BB2B5
:1055F0006385D3E7236C042B01D001238DE7226858
:10560000136843F400731360012386E72A460A995E
:105610002046FEF713FE034658B1236C042B01D03D
:1056200001237AE72268136843F4007313600123AF
:1056300073E721680A6842F400720A60202284F845
:105640003D20002284F83E2084F83C2065E70223B8
:1056500063E7022361E701235FE700BF0200100058
:105660000000FFFF2DE9F04186B004460E461746C4
:10567000984608F093FC94F83D30DBB2202B04D020
:105680000226304606B0BDE8F08105460090192399
:105690000122A0492046FEF72CFC002840F037816B
:1056A00094F83C30012B00F03B81012384F83C301E
:1056B00023681A6812F0010F03D11A6842F0010240
:1056C0001A602268136823F400631360222384F8AD
:1056D0003D30402384F83E30002323640C9B6362FA
:1056E000BDF834306385638D23858B4BE362019570
:1056F0000E9B009343463A4631462046FEF706FD90
:105700000646002840F00E81238D73B9029323686A
:105710005A6902929A690292029A1A6842F40072D5
:105720001A60DFF8F881002772E0012B0AD0022B03
:105730001AD00023059323685A6905929B69059343
:10574000059BEEE72268136823F48063136000234F
:10575000039323685A6903929A690392039A1A6819
:1057600042F400721A60DCE72268136823F4806355
:1057700013602268136843F40063136000230493EA
:1057800023685A6904929B690493049BC9E72A46DB
:105790000E992046FEF77CFD002840F0C580236866
:1057A0001A69636A1A70636A01336362238D013B6D
:1057B0002385638D013B9BB2638529E000950E9B99
:1057C0003A4641462046FEF794FB002840F0AE8062
:1057D0002268136843F40073136023681A69636ACC
:1057E0001A70626A531C6362238D013B2385638DAB
:1057F000013B9BB2638523681B695370636A013365
:105800006362238D013B2385638D013B9BB26385DE
:10581000238D002B72D0032B49D8012BB7D0022B3C
:10582000CCD000950E9B3A4641462046FEF761FBE0
:1058300000287DD12268136823F4806313602368F5
:105840001A69636A1A70636A01336362238D013BCC
:105850002385638D013B9BB2638500950E9B3A4681
:1058600041462046FEF745FB002863D122681368B5
:1058700043F40073136023681A69636A1A70626ADA
:10588000531C6362238D013B2385638D013B9BB2D7
:10589000638523681B695370636A01336362238DD8
:1058A000013B2385638D013B9BB26385B0E72A46AC
:1058B0000E992046FEF7ECFC00283DD123681A69BA
:1058C000636A1A70626A531C6362238D013B2385ED
:1058D000638D013B9BB263852368596911F0040F06
:1058E00096D01B695370636A01336362238D013B59
:1058F0002385638D013B9BB2638589E7202384F870
:105900003D30002384F83E3084F83C30B9E602266E
:10591000B7E600BF020010000000FFFF0400010016
:105920000226AEE60126ACE60126AAE60126A8E696
:105930000126A6E60126A4E60126A2E630B482B03E
:105940000024019490F83D40E4B2202C5CD1314C0D
:105950002468E408304DA5FB0454240A04EB8404B5
:1059600004EB84040194019C013C0194019C002CF3
:105970003BD00468A56915F0020FF4D190F83C50B3
:10598000012D45D0012580F83C50256815F0010F08
:1059900003D1256845F00105256005682C6824F4CD
:1059A00000642C60212480F83D40402480F83E4073
:1059B00000240464049D4562BDF814504585458D5E
:1059C0000585164DC56241648264C364046502683E
:1059D000136843F48073136080F83C400268536896
:1059E00043F4E063536020460FE00023036320226A
:1059F00080F83D2080F83E30026C42F020020264C4
:105A000080F83C30012000E0022002B030BC70473A
:105A10000220FAE71000002089B5F8140000FFFF0B
:105A200030B482B00024019490F83D40E4B2202CC0
:105A300063D1364C2468E408354DA5FB0454240A90
:105A400004EB840404EB84040194019C013C019464
:105A5000019C002C42D00468A56915F0020FF4D116
:105A600090F83C50012D4CD0012580F83C50256821
:105A700015F0010F03D1256845F001052560056883
:105A80002C6824F400642C60222480F83D404024DB
:105A900080F83E4000240464049D4562BDF8145023
:105AA0004585458D05851B4DC56241648264C3648F
:105AB00004650268136843F4806313600268136826
:105AC00043F48073136080F83C40038DDBB10268BF
:105AD000536843F4E063536020460FE00023036300
:105AE000202280F83D2080F83E30026C42F02002F7
