:020000040800F2
:10000000000003207164010801F7000821F70008CF
:1000100041F7000861F7000881F7000800000000C0
:10002000000000000000000000000000C1640108A2
:10003000A1F7000800000000C1640108C1F7000832
:10004000C1640108C1640108C1640108C1640108F8
:10005000C1640108C1640108C1640108C1640108E8
:10006000C1640108C1640108C1640108C1640108D8
:10007000C1640108C1640108C1640108C1640108C8
:10008000C1640108C1640108C1640108C1640108B8
:10009000C1640108C1640108C1640108C1640108A8
:1000A000C1640108C1640108C1640108C164010898
:1000B000C1640108C1640108C1640108C164010888
:1000C000C1640108C1640108C1640108C164010878
:1000D000C1640108C1640108C1640108C164010868
:1000E000C1640108C1640108C1640108C164010858
:1000F000C1640108C1640108C1640108C164010848
:10010000C1640108C1640108C1640108C164010837
:10011000C1640108C1640108C1640108C164010827
:10012000C1640108C1640108C1640108C164010817
:10013000C1640108CDF70008C1640108C164010869
:10014000C1640108C1640108C1640108C1640108F7
:10015000C1640108C1640108C1640108C1640108E7
:10016000C1640108C1640108C1640108C1640108D7
:10017000C1640108C1640108C164010800000000F5
:10018000C1640108C1640108C1640108C1640108B7
:10019000C1640108C1640108C1640108C1640108A7
:0C01A000C1640108C1640108C1640108C9
:1001C0000348044B834202D0034B03B118477047E6
:1001D000C4090020C40900200000000005480649A9
:1001E000091A891001EBD171491002D0034B03B1F8
:1001F00018477047C4090020C4090020000000000F
:1002000010B5064C237843B9FFF7DAFF044B13B15E
:100210000448AFF300800123237010BDC4090020FF
:1002200000000000D864010808B5044B1BB1044964
:100230000448AFF30080BDE80840CFE700000000AD
:10024000C8090020D8640108134B002B08BF114BCC
:100250009D46A3F5803A00218B460F461148124A6D
:10026000121A0FF0A9FB0D4B002B00D098470C4B36
:10027000002B00D098470020002104000D000B48FF
:100280000FF040FB0FF074FB2000290000F01DF878
:100290000FF044FB00000800000000000000000018
:1002A00000000000C4090020880A00203DF9000871
:1002B00008B50FF0ABF804200FF00AF901200FF099
:1002C00007F902200FF004F908BD08B50FF09EF9F8
:1002D000FFF7EEFF0B4E042501240BF03BFC01461B
:1002E00030460FF089FA28460FF00EF920460FF03D
:1002F0000BF902200FF008F94FF47A700BF04CFC68
:10030000EBE700BF8C6701080F4A136923F44073C1
:100310001361032910D001290B4A13690CBF43F064
:10032000040343F400431361074A136943F4803321
:1003300043EA002010617047136943F4004343F01F
:1003400004031361F0E700BF003C0240624B1B7ED8
:10035000012B00F0B18070B504465F4B01221A7684
:10036000036813F0010F6DD04368934215D0856880
:10037000C6684CF2503009F04DFC0346002862D1AB
:10038000564A95423CD0B5F5805F80F09E80544936
:100390000A881543ADB20D8055E08568C6684CF2F9
:1003A000503009F037FC034600284CD14B4A9542A7
:1003B00009D0B5F5805F80F0828049490A8822EA39
:1003C00005050D803FE026F00202012A12D04549C2
:1003D0000A8822EA15350D80032E34D14CF25030B4
:1003E00009F018FC034670BB3E490A8802F47042CB
:1003F0000A8028E03A490A8802F470420A80EBE752
:1004000026F00202012A15D036490A8842EA15353B
:10041000ADB20D80032E16D14CF2503009F0FAFB2C
:10042000034680B92F490A886FEA12326FEA023216
:100430000A8008E02A490A886FEA12326FEA02321B
:100440000A80E7E70123226812F0020F0CD122682C
:1004500012F0040F14D1226812F0080F21D11E4AA5
:1004600000211176184670BD25694CF2503009F014
:10047000D1FB03460028EAD1EDB21B4A1570E6E72E
:10048000257E4CF2503009F0C5FB03460028E2D12E
:1004900016490A7825F01F0502F01F0215430D705A
:1004A000D9E7207D114B197801F0F30119701A7802
:1004B00002431A700023D2E7022318467047094905
:1004C0000A8822EA15350D80BDE706490A8842EA06
:1004D0001535ADB20D80B6E7200A002000F0FF0010
:1004E000163C02401A3C0240153C0240143C0240BB
:1004F0000F2303600E4B1B8883600E4B1B78DBB20F
:10050000CC2B12D00B4B1B78DBB2AA2B0CBFAA232F
:1005100055230361084B5B6923F01F030376074BE8
:100520001B7803F00C0343617047CC23F1E700BF55
:10053000163C0240153C0240003C0240143C024084
:10054000F8B50446036813F0010F4CD04368012B43
:1005500013D08689C78985684CF2503009F05AFB60
:100560000346002840D125F00202012A28D02A495A
:100570000A8822EA07070F8036E08589C7898668DE
:100580004CF2503009F046FB034668BB26F00202ED
:10059000012A04D020490A8817430F8024E01F4A0B
:1005A00011880D431580032E1ED14CF2503009F0F6
:1005B00031FB0346C0B9184A11880F43178013E076
:1005C00016490A8822EA06060E80032D0CD14CF249
:1005D000503009F01FFB034630B90F490A8822EA60
:1005E00007070F8000E00123226812F0020F01D1FB
:1005F0001846F8BD247C4CF2503009F00BFB034642
:100600000028F5D1064A117801F0EF011170117838
:1006100021431170ECE700BF1A3C0240163C024037
:10062000143C0240044B1B888381044B1B88C3810C
:10063000034B1B7803747047163C02401A3C02407F
:10064000143C0240034A137843F0800313700020E7
:10065000704700BF173C0240034A137803F07F0342
:1006600013700020704700BF173C0240014B1888F0
:10067000704700BF1A3C024010B441B1012922D09A
:1006800002290CBF4FF400744FF4407400E00024C2
:100690000B2888BF04300D4B196921F44071196192
:1006A0001A6922431A611A6922F0F8021A611A695A
:1006B00042F0020242EAC00018611A6942F4803234
:1006C0001A6110BC70474FF48074E1E7003C0240AF
:1006D00008B5184B1B7E012B29D0164B01221A7628
:1006E000154B1A6942F080721A611A6942F0007261
:1006F0001A61F322DA600368012B0DD00D4B012241
:100700001A70C2685A608268DA60017C1972806867
:10071000FFF7B2FF002008BD064B02221A704268A4
:100720001A614168007CFFF7EFFD0020F3E702202B
:10073000F1E700BF200A0020003C0240164B1B6876
:1007400013F4007F10D0144B1A6822F400721A6060
:100750001A6842F400621A601A6822F400621A6091
:100760001A6842F400721A600B4B1B6813F4806F16
:1007700010D0094B1A6822F480621A601A6842F499
:1007800080521A601A6822F480521A601A6842F481
:1007900080621A60704700BF003C02402DE9F843B8
:1007A000274B1B7E012B47D00F460446244B0122CA
:1007B0001A764CF2503009F02DFA8146002835D1D6
:1007C0004FF0FF333B602368012B1BD0A568E36823
:1007D0002B449D4228D24CF250381A4E217C284698
:1007E000FFF74AFF404609F015FA336923F0FA0390
:1007F00033618146B8B90135E368A2681344AB425E
:10080000ECD811E06168207CFFF77EFD4CF250309F
:1008100009F000FA81460B4A136923F4004323F0E0
:100820000403136100E03D60FFF788FF044B0022E2
:100830001A764846BDE8F8834FF00209F9E700BF91
:10084000200A0020003C02400268D36823F4907321
:10085000D3600268536923F001035361202380F8B9
:100860003A3070472DE9F84304460268136923F4CF
:100870004053C1680B4313610168CA68836800690B
:10088000034360690343E069034322F4164222F004
:100890000C021343CB602268536923F44073A169AF
:1008A0000B435361E369B3F5004F5ED02368B34A4D
:1008B000934200F00C8102F58062934200F00781C0
:1008C0000BF03EF800EB800000EB800063689B00BB
:1008D000B0FBF3F3AA4FA7FB03235B091D010BF049
:1008E0002FF800EB800000EB800063689B00B0FBFA
:1008F000F3F60BF025F800EB800000EB8000636856
:100900009B00B0FBF3F3A7FB03235B094FF06409E3
:1009100009FB13631B013233A7FB03235B0903F0BD
:10092000F0060BF00DF800EB800000EB8000636830
:100930009B00B0FBF3F80BF003F8226800EB80009B
:1009400000EB800063689B00B0FBF3F3A7FB03138D
:100950005B0909FB13831B013233A7FB0313C3F3AA
:10096000431333432B44936005E12368834A934246
:1009700058D002F58062934254D00AF0E1FF00EBB8
:10098000800000EB800063685B00B0FBF3F37C4FFA
:10099000A7FB03235B091E010AF0D2FF00EB8000D6
:1009A00000EB800063685B00B0FBF3F50AF0C8FF62
:1009B00000EB800000EB800063685B00B0FBF3F3AA
:1009C000A7FB03235B094FF0640909FB1353DB000A
:1009D0003233A7FB03231B0903F4F8750AF0B0FFB9
:1009E00000EB800000EB800063685B00B0FBF3F875
:1009F0000AF0A6FF226800EB800000EB800063682D
:100A00005B00B0FBF3F3A7FB03135B0909FB138344
:100A1000DB003233A7FB0313C3F3421333442B44ED
:100A20009360A8E00AF09CFF00EB800000EB8000E0
:100A300063685B00B0FBF3F3514FA7FB03235B0933
:100A40001E010AF08DFF00EB800000EB8000636860
:100A50005B00B0FBF3F50AF083FF00EB800000EBD6
:100A6000800063685B00B0FBF3F3A7FB03235B0923
:100A70004FF0640909FB1353DB003233A7FB032358
:100A80001B0903F4F8750AF06BFF00EB800000EB24
:100A9000800063685B00B0FBF3F80AF061FF226836
:100AA00000EB800000EB800063685B00B0FBF3F3B9
:100AB000A7FB03135B0909FB1383DB003233A7FB9E
:100AC0000313C3F3421333442B44936053E00AF0FF
:100AD00047FF00EB800000EB800063689B00B0FBE9
:100AE000F3F3274FA7FB03235B091D010AF038FF2F
:100AF00000EB800000EB800063689B00B0FBF3F626
:100B00000AF02EFF00EB800000EB800063689B0082
:100B1000B0FBF3F3A7FB03235B094FF0640909FB68
:100B200013631B013233A7FB03235B0903F0F006B9
:100B30000AF016FF00EB800000EB800063689B006A
:100B4000B0FBF3F80AF00CFF226800EB800000EB2A
:100B5000800063689B00B0FBF3F3A7FB03135B0902
:100B600009FB13831B013233A7FB0313C3F34313A6
:100B700033432B449360BDE8F88300BF001001406D
:100B80001F85EB512DE9F04107460E461546984664
:100B9000069C3A68136836EA03030CBF012300235E
:100BA000AB421DD1B4F1FF3FF4D02CB10AF0D2FF1B
:100BB000A0EB0800A042ECD93A68D36823F4D073C4
:100BC000D3603A68536923F001035361202387F807
:100BD000393087F83A30002387F83830032000E0B6
:100BE0000020BDE8F081704758B310B5044690F876
:100BF00039300BB3242384F839302268D36823F4C6
:100C00000053D3602046FFF72DFE2268136923F4BA
:100C1000904313612268536923F02A0353612268C9
:100C2000D36843F40053D3600020E063202384F8AA
:100C3000393084F83A3010BD80F83830FFF7D3FFF0
:100C4000D8E701207047002830D010B5044690F84E
:100C5000393033B3242384F839302268D36823F43D
:100C60000053D3602046FFF7FDFD2268136923F48B
:100C7000904313612268536923F022035361226871
:100C8000536943F0080353612268D36843F4005367
:100C9000D3600020E063202384F8393084F83A30B0
:100CA00010BD80F83830FFF79EFFD3E70120704772
:100CB00000283BD038B504460D4690F83930002B5B
:100CC0002FD0242384F839302268D36823F40053CA
:100CD000D3602046FFF7C6FD2268136923F4006342
:100CE00013612268536923F02A0353612268136950
:100CF00043F4804313612268136923F020031361D6
:100D0000236819690D431D612268D36843F40053B9
:100D1000D3600020E063202384F8393084F83A302F
:100D200038BD80F83830FFF75EFFCAE70120704712
:100D3000002840D070B5044616460D4690F839306C
:100D4000002B33D0242384F839302268D36823F46D
:100D50000053D3602046FFF785FD2268136923F412
:100D6000904313612268536923F02A035361226878
:100D7000136923F00F031361236819690D431D6183
:100D80002268D36823F40063D3602168CB683343BF
:100D9000CB602268D36843F40053D3600020E06343
:100DA000202384F8393084F83A3070BD80F8383028
:100DB000FFF719FFC6E7012070477047A0B110B5D3
:100DC0000446242380F839300268D36823F40053A2
:100DD000D360FFF7F2FF0020E06384F8390084F865
:100DE0003A0084F8380010BD012070472DE9F04327
:100DF00083B01E4690F83930DBB2202B59D104461F
:100E00000D469046002959D0002A59D090F8383024
:100E1000012B57D0012380F838300023C3632123EE
:100E200080F839300AF096FE0746A4F82480A4F82A
:100E300026804FF000094FF0800810E000963B46F6
:100E40004A4641462046FFF79DFE00283CD12268D5
:100E50002B88C3F3080353602369C3B90235E38CBD
:100E60009BB2B3B1E38C013B9BB2E384A368B3F5BF
:100E7000805FE3D000963B464A4641462046FFF756
:100E800081FE18BB23682A785A600135E7E70135EF
:100E9000E5E700963B46002240212046FFF772FE20
:100EA0000346A8B9202284F83920002284F838208B
:100EB00000E00223184603B0BDE8F0830123F9E700
:100EC0000123F7E70223F5E70323F3E70323F1E721
:100ED0000323EFE72DE9F04383B01E4690F83A3044
:100EE000DBB2202B5BD104460D46174600295AD0B1
:100EF000002A5AD090F83830012B58D0012380F8BE
:100F000038300023C363222380F83A300AF022FEEF
:100F10008146A785E7854FF0000820271DE0009651
:100F20004B46424639462046FFF72CFE002840D16A
:100F3000236933B923685B68C3F3080325F8023BD0
:100F40000BE023685B68DBB225F8013B05E0236812
:100F50005B6803F07F032B700135E38D9BB2BBB15F
:100F6000E38D013B9BB2E385A368B3F5805FD6D0E8
:100F700000964B46424639462046FFF703FED0B95D
:100F80002369002BE3D123685B682B700135E4E70C
:100F9000202384F83A30002084F8380000E0022052
:100FA00003B0BDE8F0830120FAE70120F8E7022052
:100FB000F6E70320F4E70320F2E790F83930DBB2DC
:100FC000202B16D1B9B1C2B190F83830012B16D010
:100FD00001628284C2840023C363212280F8392005
:100FE00080F838300168CA6842F08002CA6018464A
:100FF000704702207047012070470120704702208F
:10100000704790F83A30DBB2202B20D109B312B3ED
:1010100090F83830012B20D081628285C285002370
:10102000C363222280F83A2080F838300168CA6809
:1010300042F48072CA6001684A6942F001024A6162
:101040000168CA6842F02002CA6018467047022050
:10105000704701207047012070470220704738B563
:1010600090F83940E4B2202C31D1002931D0002A47
:1010700031D090F83830012B2FD01346044601228E
:1010800080F8382001628384C3840025C56321224F
:1010900080F83920026B1248D063226B114810642B
:1010A000226B1148D064226B156522680432206BD4
:1010B00007F089FF23686FF040021A6084F8385007
:1010C0002268536943F080035361284600E0022000
:1010D00038BD0120FCE70120FAE70220F8E700BF55
:1010E0001D1400084F1400084315000830B583B0E4
:1010F00090F83A40E4B2202C3DD100293ED0002A9D
:101100003ED090F83830012B3CD013460A460446B6
:10111000012180F83810826283850025C563222171
:1011200080F83A10416B1848C863616B174808642F
:10113000616B1748C864616B0D6521680431606B91
:1011400007F041FF019523681A6801925A680192DD
:10115000019A84F83850DA6842F48072DA602268C2
:10116000536943F0010353612268536943F040031C
:101170005361284600E0022003B030BD0120FBE7A8
:101180000120F9E70220F7E75B1400083715000893
:101190004315000890F83830012B2FD0012380F838
:1011A00038300268516990F83930DBB2212B0BD00E
:1011B0000268516990F83A30DBB2222B0CD0002340
:1011C00080F838301846704711F0800FF0D053691E
:1011D00023F080035361EBE711F0400FEFD0D368A9
:1011E00023F48073D3600268536923F001035361D1
:1011F0000268536923F040035361E0E7022070471F
:1012000090F83830012B34D0012380F8383090F832
:101210003930DBB2212B09D090F83A30DBB2222BE7
:101220000AD0002380F838301846704702685369A6
:1012300043F080035361EFE782B00023019303681A
:101240001A6801925A680192019ADA6842F480722F
:10125000DA600268536943F001035361026853691D
:1012600043F040035361002380F83830184602B041
:1012700070470220704710B504460268516990F823
:101280003930DBB2212B08D02268516994F83A300A
:10129000DBB2222B15D0002010BD11F0800FF3D04F
:1012A000536923F080035361006B08B107F0D5FE4A
:1012B0002268D36823F0C003D360202384F8393038
:1012C000E2E711F0400FE6D0536923F04003536189
:1012D000606B08B107F0C1FE2046FFF7B5FADAE708
:1012E00010B504460268D36823F4F073D360026833
:1012F000536923F00103536103685A6912F0800FA8
:101300000BD05A6922F080025A61036B2BB1002284
:101310001A65006B07F0A1FED0B923685A6912F074
:10132000400F0BD05A6922F040025A61636B2BB117
:1013300000221A65606B07F090FE90B90020E084EF
:10134000E085E063202384F83A3084F8393010BD1A
:10135000206B08F0CDF82028DFD11023E3630320B1
:10136000F5E7606B08F0C4F82028E7D11023E363A9
:101370000320ECE710B504460268D36823F0C003ED
:10138000D36003685A6912F0800F0BD05A6922F0BB
:1013900080025A61036B2BB100221A65006B07F0C3
:1013A0005CFE28B90020E084202384F8393010BD89
:1013B000206B08F09DF82028F4D11023E36303206C
:1013C000F5E710B504460268D36823F49073D36040
:1013D0000268536923F00103536103685A6912F0EC
:1013E000400F0BD05A6922F040025A61436B2BB177
:1013F00000221A65406B07F030FE28B90020E08516
:10140000202384F83A3010BD606B08F071F8202872
:10141000F4D11023E3630320F5E7704708B5836B2D
:101420000268126812F4807F0CD10022DA841968F5
:101430004A6922F080024A611A68D36843F0400387
:10144000D36008BD1846FFF7E8FFFAE7704708B514
:10145000806BFFF7FBFF08BD704708B5836B026820
:10146000126812F4807F13D10022DA851968CA68E5
:1014700022F48072CA6019684A6922F001024A6146
:1014800019684A6922F040024A61202283F83A2012
:101490001846FFF7E1FF08BD08B590F83A30DBB217
:1014A000222B45D18368B3F5805F0ED0036903BB5F
:1014B00003685A68836A591C81621A70C38D013BA4
:1014C0009BB2C385F3B1002033E0826A036943B95C
:1014D00003685B68C3F308031380836A0233836283
:1014E000ECE703685B68DBB21380836A01338362D5
:1014F000E4E703685B68826A511C816203F07F0342
:101500001370DBE70268D36823F02003D36002681E
:10151000D36823F48073D3600268536923F0010316
:101520005361202380F83A30FFF796FF002000E057
:10153000022008BD704708B5806BFFF7FBFF08BDB0
:10154000704710B5846B2268516994F83930DBB26A
:10155000212B0ED023685A6994F83A30DBB2222B43
:1015600014D0E36B43F01003E3632046FFF7E8FF7A
:1015700010BD11F0800FEDD00023E384D36823F079
:10158000C003D360202384F83930E3E712F0400F22
:10159000E7D00023E3852046FFF756F9E1E710B5D1
:1015A000044602681368D068516913F00F0F17D111
:1015B00013F0200F02D010F0200F0DD113F0800F88
:1015C00002D010F0800F77D113F0400F03D010F04D
:1015D000400F40F0A08010BD2046FFF75DFFFAE706
:1015E00011F0010102D110F4907FE7D013F0010F48
:1015F00006D010F4807F03D0E26B42F00102E26378
:1016000013F0040F40D0002900F09080E26B42F00C
:101610000202E26313F0020F00F09480E26B42F0EA
:101620000402E26313F0080F03D0E26B42F00802F9
:10163000E263E26B002ACED013F0200F02D010F04C
:10164000200F27D123685A69E36B13F0080F02D1EA
:1016500012F0400F2AD02046FFF7F6F823685A69A7
:1016600012F0400F1ED05A6922F040025A61636B9B
:10167000A3B1374A1A65606B07F039FD0028AAD07C
:10168000606B036D9847A6E713F0020F52D0002954
:10169000C4D1CEE72046FFF7FFFED3E72046FFF791
:1016A0004FFF98E72046FFF74BFF94E72046FFF7F0
:1016B00047FF0023E3638EE794F83930DBB2212B38
:1016C00089D1A368B3F5805F16D0236A591C2162C3
:1016D0001B785360E38C013B9BB2E384002B7FF4C7
:1016E0007AAF2268D36823F08003D3602268D3687E
:1016F00043F04003D3606EE7236A1B88C3F30803FB
:10170000536023691BB9236A02332362E2E7236A29
:1017100001332362DEE7D36823F04003D360202344
:1017200084F839302046FFF778FE54E713F0020FB3
:101730007FF47FAF13F0080F3FF47BAF00293FF435
:1017400078AF72E713F0080F7FF46FAF71E700BF57
:101750005517000808B5806B0023C385C384FFF7C5
:10176000EFFE08BD704710B504460268D36823F445
:10177000F073D3600268536923F001035361036B74
:101780003BB10268526912F0800F14BF244A002254
:101790001A65636B3BB12268526912F0400F14BFA7
:1017A000204A00221A6523685A6912F0800F0BD074
:1017B0005A6922F080025A61206B28B107F097FC29
:1017C00008B3236B00221A6523685A6912F0400F90
:1017D0000BD05A6922F040025A61606B28B107F0C1
:1017E00086FC70B1636B00221A650023E384E385F5
:1017F000E363202384F8393084F83A302046FFF739
:10180000B1FF002010BD23685A6912F0400FF8D0D4
:101810005A6922F040025A61606B0028DFD1F0E77C
:10182000551800082918000808B5806B436B002282
:101830001A65036B13B11B6D03B108BD0023C3848C
:10184000C385C363202380F8393080F83A30FFF72E
:1018500089FFF2E708B5806B036B00221A65436BC2
:1018600013B11B6D03B108BD0023C384C385C363DB
:10187000202380F8393080F83A30FFF773FFF2E721
:10188000704710B504460268D36823F0C003D360E4
:1018900003685A6912F0800F18D05A6922F080024A
:1018A0005A61036B53B10D4A1A65006B07F01FFCB8
:1018B00010B1206B036D9847002010BD0023C38436
:1018C000202380F83930FFF7DBFFF5E70023C384DE
:1018D000202380F83930FFF7D3FFEDE7E118000847
:1018E00008B5806B0023C384202380F83930FFF7CC
:1018F000C7FF08BD704710B504460268D36823F4DB
:101900009073D3600268536923F001035361036845
:101910005A6912F0400F18D05A6922F040025A61F9
:10192000436B53B10D4A1A65406B07F0E0FB10B1F1
:10193000606B036D9847002010BD0023C3852023F2
:1019400080F83A30FFF7D6FFF5E70023C385202360
:1019500080F83A30FFF7CEFFEDE700BF61190008CD
:1019600008B5806B0023C385202380F83A30FFF749
:10197000C1FF08BD90F83830012B12D0012380F848
:101980003830242380F839300268D36843F00103EB
:10199000D360202380F83930002380F8383018468F
:1019A00070470220704790F83830012B12D0012385
:1019B00080F83830242380F839300268D36843F047
:1019C0000203D360202380F83930002380F83830B8
:1019D000184670470220704790F83830012B12D01B
:1019E000012380F83830242380F839300268D36826
:1019F00023F00203D360202380F83930002380F8DD
:101A00003830184670470220704790F83830012B64
:101A100014D0012380F83830242380F8393002684C
:101A2000D36823F00C0343F00803D360202380F82D
:101A30003930002380F8383018467047022070474C
:101A400090F83830012B14D0012380F8383024234B
:101A500080F839300268D36823F00C0343F00403A4
:101A6000D360202380F83930002380F838301846BE
:101A700070470220704790F8393090F83A001843C8
:101A80007047C06B704700BF70B40C6850F82430CA
:101A9000194E1E408D684A6845EA0203CA6813431E
:101AA0000A6913434A6913438A691343CA69134392
:101AB0000A6A13434A6A13438A6A1343CA6A13437E
:101AC000CA6B13430A6B13434A6B13433343082D0A
:101AD00008BF43F0400340F824304B6BB3F5801F40
:101AE00002D0002070BC70470B68002BF9D003684F
:101AF00043F480130360F4E78000E0FF10B400EBD0
:101B0000820450F8223023F0010340F822305AB109
:101B100043F2D20340F822306FF07043636041F823
:101B20002230002010BC704743F2DB030360F3E770
:101B300030B400EB8202546804F040440B688D69B5
:101B40002B434D6843EA05138D6843EA0523CD68AE
:101B500043EA05430D69013D43EA05534D69023DE2
:101B600043EA056323435360036813F4801F07D0DF
:101B7000436823F470030A69013A43EA025343605D
:101B8000002030BC7047B3F5804F05D06FF0704334
:101B900040F822300020704730B450F822300A4C10
:101BA0001C400B688D692B434D6843EA05138D6813
:101BB00043EA0523C96843EA0143234340F822303E
:101BC000002030BC704700BF0000F0CF50F821303B
:101BD00043F4805340F821300020704750F8213002
:101BE00023F4805340F821300020704730B40C6853
:101BF000102C0CBF0368036A0C4A1A404B688D68AE
:101C00002B4343F00803CD682B430D692B434D69EB
:101C100043EA4523896943EA41331343102C0CBF3F
:101C200003600362002030BC704700BF8101F0FFF9
:101C3000102A0DD0836A4A688B681B0443EA02238A
:101C40000A681343CA6843EA02638362002070474C
:101C500083684A688B681B0443EA02230A681343BB
:101C6000CA6843EA02638360F0E7102A0DD0C36AB2
:101C70004A688B681B0443EA02230A681343CA6854
:101C800043EA0263C36200207047C3684A688B68F6
:101C90001B0443EA02230A681343CA6843EA026347
:101CA000C360F0E710290DD0036A23F00403036238
:101CB00018230362402343624FF0FC338362C36204
:101CC00000207047036823F00403036018230360B7
:101CD000402343604FF0FC338360C360F0E710297A
:101CE00005D0036A43F04003036200207047036895
:101CF00043F040030360F8E7102905D0036A23F09E
:101D00004003036200207047036823F04003036030
:101D1000F8E72DE9F04105460F4614461E4609F046
:101D200019FF8046102C0CBF6B686B6A83F0400370
:101D3000C3F380135BB1B6F1FF3FF3D07EB109F07E
:101D400009FFA0EB0800B042ECD9032005E0102CFD
:101D50000CBF6B696B6B3B600020BDE8F08103201A
:101D6000FBE710B4026822F4FF3222F03A024C681A
:101D70000B6843F0100343EA4423896843EA413384
:101D800013430360002010BC704783684A688B6867
:101D90001B0443EA02230A681343CA6843EA026346
:101DA000836000207047C3684A688B681B0443EA5D
:101DB00002230A681343CA6843EA0263C36000202F
:101DC000704703694A688B681B0443EA02230A6868
:101DD0001343CA6843EA0263036100207047034665
:101DE000026822F00402026018220260002058609B
:101DF0004FF0FC329A60DA601A6170470B68012B71
:101E000019D0036823F4FF4323F07F034A68134388
:101E10008A681343CA6813430A6913434A69134320
:101E20008A691343CA6913430A6A13434A6A13430C
:101E300003600020704710B4026822F4F842CB69B6
:101E40001A430B6A1A434B6A1A43436823F4FF434D
:101E500023F07F034C6823438C682343CC682343DF
:101E60000C6923434C69234389690B430260436037
:101E7000002010BC7047012A20D083684A68013ACC
:101E800003F0704343EA02130A68013A13438A6875
:101E9000013A43EA0223CA68013A43EA02330A6973
:101EA000013A43EA02434A69013A43EA02538A6922
:101EB000013A43EA026383600020704710B48368EC
:101EC000CA68013A23F4700323F4704343EA0233EF
:101ED0004A69013A43EA0252C3684C68013C03F084
:101EE000704343EA04130C68013C23438C68013CB3
:101EF00043EA04230C69013C43EA0443896901393C
:101F000043EA01638260C360002010BC704703464F
:101F100000EB81024FF4347043F821006FF0704100
:101F200091600020186158619861704750F8213025
:101F300043F4007340F821300020704750F82130FE
:101F400023F4007340F821300020704770B582B050
:101F500004461546002301930B684A681343CA6878
:101F600043EA42238A68013A43EA42130193019B00
:101F7000036109F0EFFD0646A36913F0200F0AD0B4
:101F8000B5F1FF3FF8D04DB109F0E4FD801BA84248
:101F9000F2D9032000E0002002B070BD0320FBE76F
:101FA000436943EA4101416100207047036943EA04
:101FB000411101610020704721B18069800800F063
:101FC00006007047806900F006007047074AD36832
:101FD00023F4E0631B041B0C43F0BF6343F40033A2
:101FE000000200F4E0600343D360704700ED00E0BE
:101FF00030B4164BDB68C3F30223C3F10704042C8F
:1020000028BF04241D1D062D8CBF033B00234FF069
:10201000FF3505FA04F421EA0401994005FA03F3B7
:1020200022EA03031943002809DB0901C9B200F1C0
:10203000604000F5614080F8001330BC704700F04C
:102040000F000901C9B2024B1954F6E700ED00E098
:1020500014ED00E0002808DB420900F01F00012316
:1020600003FA00F0014B43F82200704700E100E062
:1020700000280DDB430900F01F00012202FA00F0E6
:102080002033044A42F82300BFF34F8FBFF36F8F12
:10209000704700BF00E100E0BFF34F8F0549CA68F9
:1020A00002F4E062044B1343CB60BFF34F8F00BFD9
:1020B000FDE700BF00ED00E00400FA050138B0F1D3
:1020C000807F0AD2064B5860064AF02182F823101E
:1020D0000020986007221A6070470120704700BFF7
:1020E00010E000E000ED00E0BFF35F8F044A536AA8
:1020F00023F480335362034B00225A60704700BFC1
:1021000000ED00E090ED00E040F00100054B58606C
:10211000054A536A43F480335362BFF34F8FBFF3D2
:102120006F8F704790ED00E000ED00E04278134BB8
:102130009A60037823B9114B0022DA601A61704764
:1021400043680E4AD360017BC37A1B0643EA0173DE
:1021500001780B43817A43EAC143417B43EA8143DF
:10216000817B43EA4143C17B43EA0143417A43EA2D
:102170000123017A43EA41031361704790ED00E0C7
:10218000024BD868C0F30220704700BF00ED00E0AA
:1021900070B4002822DB00F1604000F5614090F847
:1021A0000003000901F00701C1F10704042C28BF56
:1021B00004240D1D062D8CBF033900214FF0FF357F
:1021C00005FA04F420FA01F626EA0404146005FA7C
:1021D00001F120EA0100186070BC704700F00F00A8
:1021E000014C205C0009DDE714ED00E0002809DB6C
:1021F000430900F01F00012202FA00F04033024AB6
:1022000042F82300704700BF00E100E000280BDB2C
:1022100043094033054A52F8233000F01F0023FAE7
:1022200000F000F0010070470020704700E100E07E
:10223000002809DB430900F01F00012202FA00F028
:102240006033024A42F82300704700BF00E100E01B
:1022500000280BDB43098033054A52F8233000F095
:102260001F0023FA00F000F00100704700207047C3
:1022700000E100E00428044A13680CBF43F00403A3
:1022800023F004031360704710E000E0704708B5C6
:10229000FFF7FCFF08BD00BF03685A6912F4806FA6
:1022A00011D06FF480625A6100230363202280F80A
:1022B0003D2080F83E30026C42F00402026480F857
:1022C0003C3001207047002070472DE9F041064660
:1022D00090461D46C1F307478CB2012F33680CBFEF
:1022E0005B699B6934EA03030CBF01230023984513
:1022F00019D1B5F1FF3FF0D009F02CFC069BC01AB4
:10230000A84201D8002DE8D100233363202286F8AB
:102310003D2086F83E30326C42F02002326486F86E
:102320003C30012000E00020BDE8F0812DE9F041C3
:10233000044617469846C1F307468DB2012E23681E
:102340000CBF5B699B6935EA030314BF01230023BB
:10235000002B35D023685A6912F4806F19D1B7F178
:10236000FF3FEBD009F0F6FBA0EB0800B84201D824
:10237000002FE3D100232363202284F83D2084F83A
:102380003E30226C42F02002226484F83C3001206E
:1023900017E01A6842F400721A6023686FF48062D2
:1023A0005A6100232363202284F83D2084F83E30C4
:1023B000226C42F00402226484F83C30012000E0E8
:1023C0000020BDE8F08170B504460D46164623682E
:1023D0005B6913F0800F1CD12046FFF75DFFD0B979
:1023E000B5F1FF3FF3D009F0B5FB801BA84201D83F
:1023F000002DECD100232363202284F83D2084F8B3
:102400003E30226C42F02002226484F83C300120ED
:1024100000E0002070BD0120FCE72DE9F04184B010
:102420000446884616461F460B9D0268136843F40F
:102430008073136000950A9B00224FF00111FFF793
:1024400044FF20B10123184604B0BDE8F0812268A2
:1024500008F0FE0313612B460A9A21492046FFF734
:1024600065FF08B10123EEE70023039323685A694F
:1024700003929B690393039B2A460A992046FFF720
:10248000A2FF034658B1236C042B01D00123DAE7E5
:102490002268136843F4007313600123D3E7012F0C
:1024A0000ED02368320A1A612A460A992046FFF79D
:1024B0008AFF034678B1236C042B05D00123C2E7C1
:1024C0002268F6B21661BEE72268136843F400730F
:1024D00013600123B7E72268F6B21661B3E700BFC5
:1024E000020001002DE9F04184B004460E46174673
:1024F00098460B9D0268136843F48063136002687A
:10250000136843F48073136000950A9B00224FF018
:102510000111FFF7DAFE18B1012004B0BDE8F08127
:10252000F6B2236806F0FE021A612B460A9A384971
:102530002046FFF7FBFE08B10120EEE700230393DE
:1025400023685A6903929B690393039B2A460A995D
:102550002046FFF738FF58B1236C042B01D001202F
:10256000DBE72268136843F4007313600120D4E7AB
:10257000B8F1010F0DD12368FFB21F612A460A99F5
:102580002046FFF720FF20B3236C042B1AD0012034
:10259000C3E723683A0A1A612A460A992046FFF7D8
:1025A00012FF58B1236C042B01D00120B5E722683B
:1025B000136843F4007313600120AEE72368FFB291
:1025C0001F61DBE72268136843F400731360012086
:1025D000A3E72268136843F48073136000950A9B95
:1025E00000224FF001112046FFF76FFE08B10120D5
:1025F00093E7236846F001061E612B460A9A0449B8
:102600002046FFF793FE003018BF012085E700BF8A
:102610000200010070B504460D46164623685B694A
:1026200013F0040F1CD12046FFF736FED0B9B5F1E8
:10263000FF3FF3D009F08EFA801BA84201D8002D8D
:10264000ECD100232363202284F83D2084F83E301F
:10265000226C42F02002226484F83C30012000E029
:10266000002070BD0120FCE770B505460C461646FB
:102670002B685A6912F0400F29D15A6912F0100FD5
:1026800015D109F067FA801BA04201D8002CEFD1C8
:1026900000232B63202285F83D2085F83E302A6CEC
:1026A00042F020022A6485F83C30012070BD6FF0B2
:1026B00010025A6100232B63202285F83D2085F803
:1026C0003E302A6C2A6485F83C300120EEE7002079
:1026D000ECE77047002800F0A28070B5044690F83F
:1026E0003D30002B6CD0242384F83D3022681368E1
:1026F00023F00103136009F023F962684A4B9A4200
:1027000094BF4A4B4A4B98428CBF00230123002BB5
:1027100040F08780474BA3FB00239B0C21684A684D
:1027200022F03F021A434A6025682A6A22F03F02DB
:1027300066683D498E4248D8013313432B622568B1
:10274000E96921F44F4121F0FF016268364B9A425A
:1027500045D801385300B0FBF3F30133C3F30B0347
:10276000042B38BF04230B43EB6121680A68E3693B
:10277000206A034322F0C00213430B6021688A6879
:102780002369E068034322F4034222F0FF0213436B
:102790008B602168CA686369A069034322F0FF0265
:1027A0001343CB602268136843F0010313600020D9
:1027B0002064202384F83D30206384F83E0070BDFF
:1027C00080F83C30FFF785FF8DE74FF4967101FBF1
:1027D00003F31949A1FB03139B090133ADE7A36878
:1027E00053B9013802EB4202B0FBF2F20132C2F3FC
:1027F0000B027AB90123B6E7013802EB820202EB41
:102800008202B0FBF2F20132C2F30B022AB142F4AF
:102810004043A8E742F40043A5E70123A3E70120D2
:1028200070470120CBE700BFA08601007F841E0017
:10283000FF083D0083DE1B43D34D62107047A8B1F3
:1028400010B50446242380F83D300268136823F055
:1028500001031360FFF7F2FF0020206484F83D00BD
:10286000206384F83E0084F83C0010BD01207047CE
:102870002DE9F04184B004460E4690461F4609F00B
:1028800069F994F83D30DBB2202B04D002263046A3
:1028900004B0BDE8F08105460090192301226E497D
:1028A0002046FFF712FD002840F0CD8094F83C3020
:1028B000012B00F0CA80012384F83C3023681A6899
:1028C00012F0010F03D11A6842F001021A60226867
:1028D000136823F400631360212384F83D30102330
:1028E00084F83E3000232364C4F824806785638D18
:1028F00023855A4BE362E36A082B0DD0012B0BD0E2
:1029000013F5803F08D0236B122B0AD1226813687D
:1029100043F48073136004E02268136843F4807307
:10292000136000950A9B00224FF001112046FFF72B
:10293000CCFC002840F08D802369B3F5804F15D181
:10294000236806F0FE061E612B460A9A444920467B
:10295000FFF7ECFC0646002879D100230393236897
:102960005A6903929B690393039B25E02268F31144
:1029700003F0060343F0F00313612B460A9A39492A
:102980002046FFF7D3FC002863D12368F6B21E610E
:10299000DAE7236C042B01D0012678E7226813685C
:1029A00043F400731360012671E72A460A99204612
:1029B000FFF730FE00282CD1238D002B35D02A467E
:1029C0000A992046FFF7FFFC0028E2D12368626ADB
:1029D00012781A61616A4B1C6362638D013B9BB282
:1029E0006385238D013B9BB223852268506910F0DB
:1029F000040FDAD0002BD8D04B781361636A01330F
:102A00006362638D013B9BB26385238D013B23850C
:102A1000CBE7236C042B01D0012638E7226813682A
:102A200043F400731360012631E72268136843F40E
:102A300000731360202384F83D30002384F83E3077
:102A400084F83C3023E7022621E702261FE701260F
:102A50001DE701261BE700BF020010000000FFFF7A
:102A600002000100080001002DE9F04188B0044691
:102A70000E4690461F4609F06DF894F83D30DBB2E3
:102A8000202B04D00226304608B0BDE8F081054670
:102A90000090192301227C492046FFF716FC0028EC
:102AA00040F0A58194F83C30012B00F0A281012375
:102AB00084F83C3023681A6812F0010F03D11A68B9
:102AC00042F001021A602268136823F40063136065
:102AD000222384F83D30102384F83E300023236401
:102AE000C4F824806785638D2385684BE362E26ABE
:102AF00021680B6843F480630B60082A0DD0012A1B
:102B00000BD012F5803F08D0236B112B0AD122681D
:102B1000136843F48073136004E02268136843F47D
:102B20008073136000950E9B00224FF00111204628
:102B3000FFF7CBFB002832D12369B3F5804F20D1BA
:102B4000236846F00106F6B21E612B460E9A5049E4
:102B50002046FFF7EBFB0646002840F04C81238D12
:102B6000002B43D1039323685A6903929A69039215
:102B7000039A1A6842F400721A60DFF81C81002779
:102B8000B6E0F71107F00607236847F0F0021A6174
:102B90002B460E9A3F492046FFF7C8FB08B1012695
:102BA00071E72368F6B21E612B460E9A384920461B
:102BB000FFF7BCFB0028F2D1002207922368596975
:102BC0000791996907910799196841F48071196013
:102BD00000950E9B4FF001112046FFF776FB002871
:102BE000DDD1236847F0F1071F61AEE7012B0FD05D
:102BF000022B1FD02268136843F480631360002304
:102C0000069323685A6906929B690693069BB4E76C
:102C10002268136823F480631360002304932368FD
:102C20005A6904929A690492049A1A6842F40072EA
:102C30001A60A2E72268136823F480631360226895
:102C4000136843F4006313600023059323685A69F3
:102C500005929B690593059B8FE72A460E992046AE
:102C6000FFF702FD002840F0C88023681A69636AF4
:102C70001A70636A01336362238D013B2385638D80
:102C8000013B9BB2638533E0020010000000FFFFB0
:102C900002000100080001000400010000950E9BE5
:102CA0003A4641462046FFF710FB002840F0A78037
:102CB0002268136843F40073136023681A69636A17
:102CC0001A70626A531C6362238D013B2385638DF6
:102CD000013B9BB2638523681B695370636A0133B0
:102CE0006362238D013B2385638D013B9BB263852A
:102CF000238D002B72D0032B49D8012BADD0022B92
:102D0000CCD000950E9B3A4641462046FFF7DDFAAF
:102D1000002876D12268136823F480631360236847
:102D20001A69636A1A70636A01336362238D013B17
:102D30002385638D013B9BB2638500950E9B3A46CC
:102D400041462046FFF7C1FA00285CD1226813688B
:102D500043F40073136023681A69636A1A70626A25
:102D6000531C6362238D013B2385638D013B9BB222
:102D7000638523681B695370636A01336362238D23
:102D8000013B2385638D013B9BB26385B0E72A46F7
:102D90000E992046FFF768FC002836D123681A698F
:102DA000636A1A70626A531C6362238D013B238538
:102DB000638D013B9BB263852368596911F0040F51
:102DC00096D01B695370636A01336362238D013BA4
:102DD0002385638D013B9BB2638589E7202384F8BB
:102DE0003D30002384F83E3084F83C304BE6022628
:102DF00049E6022647E6012645E6012643E6012686
:102E000041E601263FE601263DE601263BE62DE9A7
:102E1000F04184B004460F4690461D4608F09AFEE5
:102E200094F83D30DBB2202B40F0A8800646002FFE
:102E300000F0A980B8F1000F00F0A78094F83C30B2
:102E4000012B00F0A480012384F83C3023681A6829
:102E500012F0010F03D11A6842F001021A602268D1
:102E6000136823F400631360212384F83D3020238A
:102E700084F83E30002222646762A4F82A80638DC1
:102E80002385474BE36221680B6843F480630B6042
:102E900000962B4643492046FFF717FA002878D1C1
:102EA0000023029323685A6902929B690293029B52
:102EB0002369B3F5404F2CD0238D002B42D03246EE
:102EC00029462046FFF77FFA002834D12368626A3A
:102ED00012781A61616A4B1C6362638D013B9BB27D
:102EE0006385238D013B9BB223852268506910F0D6
:102EF000040FE1D0002BDFD04B781361636A0133FC
:102F00006362638D013B9BB26385238D013B238507
:102F1000D2E700962B46002222492046FFF7D5F93A
:102F2000002838D10023039323685A6903929B69D0
:102F30000393039BC0E72268136823F48063136044
:102F400001231CE000962B4600224FF482312046DC
:102F5000FFF7BBF9034600BB22686FF48061516143
:102F600021680A6822F480620A60202284F83D20E9
:102F7000002284F83E2084F83C2000E0022318461A
:102F800004B0BDE8F0810123F9E70123F7E702234C
:102F9000F5E70123F3E70123F1E70123EFE700BFA2
:102FA0000000FFFF020001002DE9F04184B004465B
:102FB0000F4690461D4608F0CDFD94F83D30DBB23B
:102FC000202B40F09A800646002F00F09B80B8F13D
:102FD000000F00F0998094F83C30012B00F09680AF
:102FE000012384F83C3023681A6812F0010F03D1E2
:102FF0001A6842F001021A602268136823F4006321
:103000001360222384F83D30202384F83E300022D0
:1030100022646762A4F82A80638D2385484BE362AB
:1030200021680B6843F480630B6000962B4645498A
:103030002046FFF74AF90746002869D1002302938A
:1030400023685A6902929B690293029B238D002B8D
:103050002FD0324629462046FFF706FB10BB2368D7
:103060001A69636A1A70616A4B1C6362238D013BA3
:103070009BB22385628D013A92B2628522685069C3
:1030800010F0040FE2D0002BE0D013694B70636A9C
:1030900001336362238D013B2385638D013B9BB22A
:1030A0006385D3E72268136823F4806313600127E4
:1030B00024E023685A6912F0100F2BD12046FFF745
:1030C000EBF898B908F046FD801B854201D3002D2E
:1030D000EFD100232363202284F83D2084F83E3082
:1030E000226C42F02002226484F83C30226813688B
:1030F00023F480631360012700E00227384604B000
:10310000BDE8F0810127F9E70127F7E70227F5E796
:103110000127F3E70022039259690391196841F0EE
:1031200001011960039B21680B6823F480630B6025
:10313000202384F83D3084F83E2084F83C20DDE7ED
:103140000000FFFF0200010030B482B000240194AF
:1031500090F83D40E4B2202C56D12E4C2468E4086F
:103160002D4DA5FB0454240A04EB840404EB8404D1
:103170000194019C013C0194019C002C35D0046811
:10318000A56915F0020FF4D190F83C50012D3FD005
:10319000012580F83C50256815F0010F03D1256802
:1031A00045F00105256005682C6824F400642C6056
:1031B000212480F83D40102480F83E40002404641F
:1031C00042624385438D0385144BC36241640268A8
:1031D000136843F48073136080F83C4002685368BE
:1031E00043F4E063536020460FE000230363202292
:1031F00080F83D2080F83E30026C42F020020264EC
:1032000080F83C30012000E0022002B030BC704762
:103210000220FAE71000002089B5F8140000FFFF33
:1032200030B482B00024019490F83D40E4B2202CE8
:103230005BD1314C2468E408304DA5FB0454240ACA
:1032400004EB840404EB84040194019C013C01948C
:10325000019C002C3AD00468A56915F0020FF4D146
:1032600090F83C50012D44D0012580F83C50256851
:1032700015F0010F03D1256845F0010525600568AB
:103280002C6824F400642C60222480F83D40102433
:1032900080F83E400024046442624385438D0385E8
:1032A000174BC36241640268136843F48063136080
:1032B0000268136843F48073136080F83C4002682E
:1032C000536843F4E063536020460FE00023036338
:1032D000202280F83D2080F83E30026C42F020022F
:1032E000026480F83C30012000E0022002B030BCD3
:1032F00070470220FAE700BF1000002089B5F814DB
:103300000000FFFF90F83D30DBB2202B36D10029C2
:1033100036D0002A36D090F83C30012B34D010B48F
:10332000012380F83C3003681C6814F0010F03D1BE
:103330001C6844F001041C600468236823F40063E3
:103340002360212380F83D30202380F83E30002385
:10335000036441624285428D02850C4AC262016863
:103360000A6842F480620A6080F83C3001684A686A
:1033700042F4E0624A60184610BC70470220704771
:103380000120704701207047022070470000FFFFB6
:1033900090F83D30DBB2202B36D1002936D0002A00
:1033A00036D090F83C30012B34D010B4012380F893
:1033B0003C3003681C6814F0010F03D11C6844F012
:1033C00001041C600468236823F400632360222343
:1033D00080F83D30202380F83E30002303644162B2
:1033E0004285428D02850C4AC26201680A6842F435
:1033F00080620A6080F83C3001684A6842F4E0620A
:103400004A60184610BC7047022070470120704780
:1034100001207047022070470000FFFF30B583B0E5
:103420000024019490F83D40E4B2202C40F09E80AE
:10343000514C2468E408514DA5FB0454240A04EBC4
:10344000840404EB84040194019C013C0194019CDC
:10345000002C3DD00468A56915F0020FF4D190F856
:103460003C50012D00F08680012580F83C502568F5
:1034700015F0010F03D1256845F0010525600568A9
:103480002C6824F400642C60212480F83D40102432
:1034900080F83E400024046442624385438D9BB221
:1034A0000385374AC26241640BBB0268136843F468
:1034B000806313600268136843F480731360002311
:1034C00080F83C3001684A6842F4E0624A604EE0AD
:1034D00000230363202280F83D2080F83E30026CF8
:1034E00042F02002026480F83C3001233FE00446B1
:1034F000436B244ADA63436B234ADA64426B00234A
:103500001364426B5364426B9364426B13650268AD
:10351000038D1032416A406B05F055FD0346B8B982
:1035200021680A6842F480620A6021680A6842F4ED
:1035300080720A60002284F83C2021684A6842F4C4
:1035400040724A6021684A6842F400624A600EE0B4
:10355000202384F83D30002284F83E20236C43F081
:103560001003236484F83C20012300E00223184662
:1035700003B030BD0223FAE71000002089B5F8142B
:103580000000FFFFE14E0008A34E000830B583B0F5
:103590000024019490F83D40E4B2202C40F09E803D
:1035A000514C2468E408514DA5FB0454240A04EB53
:1035B000840404EB84040194019C013C0194019C6B
:1035C000002C3DD00468A56915F0020FF4D190F8E5
:1035D0003C50012D00F08680012580F83C50256884
:1035E00015F0010F03D1256845F001052560056838
:1035F0002C6824F400642C60222480F83D401024C0
:1036000080F83E400024046442624385438D9BB2AF
:103610000385374AC26241640BBB0268136843F4F6
:10362000806313600268136843F48073136000239F
:1036300080F83C3001684A6842F4E0624A604EE03B
:1036400000230363202280F83D2080F83E30026C86
:1036500042F02002026480F83C3001233FE004463F
:10366000836B244ADA63836B234ADA64826B002318
:103670001364826B5364826B9364826B136501687D
:10368000038D426A1031806B05F09DFC0346B8B98A
:1036900021680A6842F480620A6021680A6842F47C
:1036A00080720A60002284F83C2021684A6842F453
:1036B00040724A6021684A6842F400624A600EE043
:1036C000202384F83D30002284F83E20236C43F010
:1036D0001003236484F83C20012300E002231846F1
:1036E00003B030BD0223FAE71000002089B5F814BA
:1036F0000000FFFFE14E0008A34E000890F83D30A7
:10370000DBB2202B61D1002962D0002A62D090F870
:103710003C30012B60D010B5012380F83C300368A9
:103720001C6814F0010F03D11C6844F001041C60F4
:1037300004460068036823F400630360212384F8CF
:103740003D30202384F83E3000232364616262858B
:10375000628D2285214AE262626B2149D163626BEC
:103760002049D164626B1364626B5364626B93642F
:10377000626B13652268238D1032616A606B05F0FD
:1037800022FC034670B1202384F83D30002284F8E7
:103790003E20236C43F01003236484F83C20012373
:1037A000184610BD21680A6842F480620A6000224F
:1037B00084F83C2021684A6842F440724A602168DB
:1037C0004A6842F400624A60EAE7022318467047FA
:1037D0000123FBE70123F9E70223F7E70000FFFFDE
:1037E000E14E0008A34E000890F83D30DBB2202BDC
:1037F00061D1002962D0002A62D090F83C30012BC0
:1038000060D010B5012380F83C3003681C6814F0C8
:10381000010F03D11C6844F001041C6004460068D9
:10382000036823F400630360222384F83D302023DF
:1038300084F83E300023236461626285628D2285B4
:10384000214AE262A26B2149D163A26B2049D16473
:10385000A26B1364A26B5364A26B9364A26B136597
:103860002168238D626A1031A06B05F0ACFB034622
:1038700070B1202384F83D30002284F83E20236C70
:1038800043F01003236484F83C200123184610BD44
:1038900021680A6842F480620A60002284F83C20B1
:1038A00021684A6842F440724A6021684A6842F4DA
:1038B00000624A60EAE70223184670470123FBE7EB
:1038C0000123F9E70223F7E70000FFFFE14E0008BC
:1038D000A34E00082DE9F04182B004460E4617467B
:1038E000984608F037F994F83D30DBB2202B04D02D
:1038F0000223184602B0BDE8F08105460090192366
:1039000001224C492046FEF7E0FC002840F08B8065
:1039100094F83C30012B00F08880012384F83C307F
:1039200023681A6812F0010F03D11A6842F00102ED
:103930001A602268136823F400631360212384F85B
:103940003D30402384F83E3000232364089B6362AB
:10395000BDF824306385638D2385374BE362019581
:103960000A9B009343463A4631462046FEF755FDF2
:1039700000285CD1238D002B34D02A460A9920469A
:10398000FEF721FD10BB2368626A12781A61616A32
:103990004B1C6362238D013B9BB22385628D013AF0
:1039A00092B262852268506910F0040FE2D0002BB9
:1039B000E0D04B781361636A01336362238D013B6E
:1039C0002385638D013B9BB26385D3E7236C042B76
:1039D00001D001238DE72268136843F4007313605C
:1039E000012386E72A460A992046FEF713FE03467E
:1039F00058B1236C042B01D001237AE722681368A5
:103A000043F400731360012373E721680A6842F4EA
:103A100000720A60202284F83D20002284F83E20B3
:103A200084F83C2065E7022363E7022361E7012372
:103A30005FE700BF020010000000FFFF2DE9F0412A
:103A400086B004460E461746984608F083F894F868
:103A50003D30DBB2202B04D00226304606B0BDE854
:103A6000F0810546009019230122A0492046FEF767
:103A70002CFC002840F0378194F83C30012B00F0FA
:103A80003B81012384F83C3023681A6812F0010F4F
:103A900003D11A6842F001021A602268136823F405
:103AA00000631360222384F83D30402384F83E30C5
:103AB000002323640C9B6362BDF834306385638DFF
:103AC00023858B4BE36201950E9B009343463A4658
:103AD00031462046FEF706FD0646002840F00E81DE
:103AE000238D73B9029323685A6902929A690292EC
:103AF000029A1A6842F400721A60DFF8F88100270F
:103B000072E0012B0AD0022B1AD000230593236800
:103B10005A6905929B690593059BEEE72268136835
:103B200023F4806313600023039323685A6903928C
:103B30009A690392039A1A6842F400721A60DCE7E9
:103B40002268136823F4806313602268136843F4C7
:103B5000006313600023049323685A6904929B69ED
:103B60000493049BC9E72A460E992046FEF77CFD84
:103B7000002840F0C58023681A69636A1A70636A76
:103B800001336362238D013B2385638D013B9BB22F
:103B9000638529E000950E9B3A4641462046FEF794
:103BA00094FB002840F0AE802268136843F4007351
:103BB000136023681A69636A1A70626A531C63622D
:103BC000238D013B2385638D013B9BB26385236875
:103BD0001B695370636A01336362238D013B238544
:103BE000638D013B9BB26385238D002B72D0032B29
:103BF00049D8012BB7D0022BCCD000950E9B3A466A
:103C000041462046FEF761FB00287DD122681368FB
:103C100023F48063136023681A69636A1A70636A05
:103C200001336362238D013B2385638D013B9BB28E
:103C3000638500950E9B3A4641462046FEF745FBBC
:103C4000002863D12268136843F40073136023686B
:103C50001A69636A1A70626A531C6362238D013B9E
:103C60002385638D013B9BB2638523681B69537079
:103C7000636A01336362238D013B2385638D013BBE
:103C80009BB26385B0E72A460E992046FEF7ECFC0E
:103C900000283DD123681A69636A1A70626A531C4E
:103CA0006362238D013B2385638D013B9BB263855A
:103CB0002368596911F0040F96D01B695370636A29
:103CC00001336362238D013B2385638D013B9BB2EE
:103CD000638589E7202384F83D30002384F83E3053
:103CE00084F83C30B9E60226B7E600BF02001000B7
:103CF0000000FFFF040001000226AEE60126ACE64C
:103D00000126AAE60126A8E60126A6E60126A4E6E3
:103D10000126A2E630B482B00024019490F83D4020
:103D2000E4B2202C5CD1314C2468E408304DA5FB72
:103D30000454240A04EB840404EB84040194019CDD
:103D4000013C0194019C002C3BD00468A56915F04E
:103D5000020FF4D190F83C50012D45D0012580F898
:103D60003C50256815F0010F03D1256845F0010589
:103D7000256005682C6824F400642C60212480F8F8
:103D80003D40402480F83E4000240464049D456288
:103D9000BDF814504585458D0585164DC5624164B5
:103DA0008264C36404650268136843F4807313601B
:103DB00080F83C400268536843F4E0635360204657
:103DC0000FE000230363202280F83D2080F83E307E
:103DD000026C42F02002026480F83C30012000E0D6
:103DE000022002B030BC70470220FAE71000002029
:103DF00089B5F8140000FFFF30B482B000240194AC
:103E000090F83D40E4B2202C63D1364C2468E4089D
:103E1000354DA5FB0454240A04EB840404EB84040C
:103E20000194019C013C0194019C002C42D0046847
:103E3000A56915F0020FF4D190F83C50012D4CD03B
:103E4000012580F83C50256815F0010F03D1256845
:103E500045F00105256005682C6824F400642C6099
:103E6000222480F83D40402480F83E400024046431
:103E7000049D4562BDF814504585458D05851B4D53
:103E8000C56241648264C36404650268136843F4D4
:103E9000806313600268136843F48073136080F8D2
:103EA0003C40038DDBB10268536843F4E063536028
:103EB00020460FE000230363202280F83D2080F895
:103EC0003E30026C42F02002026480F83C30012057
:103ED00000E0022002B030BC70470220FAE7002068
:103EE000F8E700BF1000002089B5F8140000FFFFBC
:103EF0002DE9F04184B004460D4616461F460023C6
:103F0000039307F027FE94F83D30DBB2202B40F0FE
:103F1000A1808046544B1B68DB08544AA2FB032354
:103F20001B0A03EB830303EB83030393039B013B14
:103F30000393039B002B3AD023689A6912F0020F77
:103F4000F4D194F83C20012A00F08980012284F801
:103F50003C201A6812F0010F03D11A6842F00102E6
:103F60001A602268136823F400631360212384F825
:103F70003D30402384F83E30002323640A9B636273
:103F8000BDF82C306385638D9BB22385384AE2628D
:103F9000DBB9202384F83D30002284F83E20236CD6
:103FA00043F04003236484F83C20012353E023635F
:103FB000202284F83D2084F83E30226C42F020021A
:103FC000226484F83C30012345E0636B294ADA63BC
:103FD000636B294ADA64626B00231364626B536477
:103FE000626B9364626B13652268238D1032616A81
:103FF000606B04F0E8FF68B1202384F83D300022B4
:1040000084F83E20236C43F01003236484F83C20A2
:10401000012320E0CDF80480232300933B46324661
:1040200029462046FEF7F9F90346D0B9002102914E
:1040300022685069029090690290029884F83C10BE
:10404000516841F48071516021684A6842F400620D
:104050004A6000E00223184604B0BDE8F081022364
:10406000F9E70123F7E700BF1000002089B5F81435
:104070000000FFFFE14E0008A34E00082DE9F041CB
:1040800086B004460D4616461F4607F063FD002322
:10409000059394F83D30DBB2202B40F0C080804681
:1040A000644B1B68DB08644AA2FB03231B0A03EB77
:1040B000830303EB83030593059B013B0593059B5A
:1040C000002B52D023689A6912F0020FF4D194F8B1
:1040D0003C20012A00F0A880012284F83C201A68C4
:1040E00012F0010F03D11A6842F001021A6022682F
:1040F000136823F400631360222384F83D304023C7
:1041000084F83E30002323640C9B6362BDF8343096
:104110006385638D9BB22385484AE262002B61D0A0
:10412000A36B474ADA63A36B464ADA64A26B0023A7
:104130001364A26B5364A26B9364A26B1365216832
:10414000238D626A1031A06B04F03DFFD8B12023AB
:1041500084F83D30002284F83E20236C43F01003A5
:10416000236484F83C2001235AE02363202284F84E
:104170003D2084F83E30226C42F02002226484F814
:104180003C3001234CE0CDF80480232300933B46D0
:10419000324629462046FEF7A5F90346002845D1B8
:1041A000228D012A18D021684A6842F480524A6060
:1041B000002103912268506903909069039003984D
:1041C00084F83C10516841F48071516021684A685C
:1041D00042F400624A6023E021680A6822F48062A7
:1041E0000A60E5E7CDF80480232300933B4632467E
:1041F00029462046FEF776F90346C8B9049022689E
:1042000051690491916904910499116841F4007114
:104210001160202284F83D2084F83C0000E0022355
:10422000184606B0BDE8F0810223F9E70123F7E75D
:104230000123F5E71000002089B5F8140000FFFF06
:10424000E14E0008A34E00082DE9F04F85B004466A
:10425000894692461D4607F07DFC94F83D30DBB25E
:10426000202B04D00223184605B0BDE8F08F064687
:104270000090192301225B492046FEF726F800280A
:1042800040F0A58094F83C30012B00F0A28001237F
:1042900084F83C3023681A6812F0010F03D11A68C1
:1042A00042F001021A602268136823F4006313606D
:1042B000242384F83D3000232364A3F58033E36294
:1042C0004FF0010809F0FE09DFF818B134E084F876
:1042D0003D7021684A6902F00202496901F4806177
:1042E00094F83D30DBB2A02B09D042B939B907F0C0
:1042F00031FC801BA842EAD8002DEAD1E7E7202351
:1043000084F83D3023685A6912F0020F3BD11A68D5
:1043100042F400721A6023686FF480625A6100965A
:104320001923012259462046FDF7CFFF002856D118
:1043300008F10108D04542D22268136843F4807323
:10434000136000962B4600224FF001112046FDF726
:10435000BCFF00283FD12368C3F8109007F0FAFB98
:10436000064621684A6902F00202496901F4806147
:1043700094F83D30DBB2A02BC1D0002ABFD1002978
:10438000BDD1A027B3E71A6842F400721A60002377
:10439000039323685A6903929B690393039B0096D6
:1043A000192301220F492046FDF78FFF0346A0B9CC
:1043B000202284F83D20002284F83C2053E720236B
:1043C00084F83D30002384F83C3001234BE702237E
:1043D00049E7022347E7012345E7012343E7012398
:1043E00041E700BF0200100070B483B0069D0024B6
:1043F0000194009490F83D40E4B2202C67D1082D40
:1044000038D0012D36D090F83C40012C63D00124E7
:1044100080F83C400468266816F0010F03D1266836
:1044200046F0010626600668346824F400643460AF
:10443000212480F83D40102480F83E40002404648C
:1044400042624385438D0385C5624164036B0193DA
:10445000019B112B34D00268136843F480731360FE
:10446000002380F83C3001684A6842F4E0624A6008
:1044700018462DE0194C2468E408194EA6FB046484
:10448000240A04EB840404EB84040094009C013CA3
:104490000094009C2CB10468A46914F0020FF5D1BB
:1044A000B1E700230363202280F83D2080F83E30EE
:1044B000026C42F02002026480F83C30012007E0E8
:1044C000B5F52A0FC7D0B5F12A4FC9D1C3E70220ED
:1044D00003B070BC70470220FAE700BF1000002054
:1044E00089B5F81470B582B0069D0024019400943B
:1044F00090F83D40E4B2202C40F0C180082D41D01E
:10450000012D3FD090F83C40012C00F0BC800124EC
:1045100080F83C400468266816F0010F03D1266835
:1045200046F0010626600668346824F400643460AE
:10453000212480F83D40102480F83E40002404648B
:1045400042624385438D9BB20385C5624164026B21
:104550000192002B3CD10268136843F4806313601E
:10456000019B112B00F082800268136843F4807372
:104570001360002380F83C3001684A6842F4E0622E
:104580004A607DE0414C2468E408414EA6FB046487
:10459000240A04EB840404EB84040094009C013C92
:1045A0000094009C2CB10468A46914F0020FF5D1AA
:1045B000A8E700230363202280F83D2080F83E30E6
:1045C000026C42F02002026480F83C30012357E084
:1045D0000446436B2F4ADA63436B2F4ADA64426B1B
:1045E00000231364426B13650268038D1032416A25
:1045F000406B04F0E8FC034650BB21680A6842F4B3
:1046000080620A60019A112A1BD021680A6842F46C
:1046100080720A60002284F83C20043D1C2D0AD8D8
:104620001E4A22FA05F515F0010F04D021684A68E8
:1046300042F400624A6021684A6842F440724A606B
:104640001EE0B5F52A0FE0D0B5F12A4FE2D1DCE744
:10465000202384F83D30002284F83E20236C43F070
:104660001003236484F83C20012309E0B5F52A0FE8
:104670003FF47AAFB5F12A4F7FF47BAF74E70223A2
:10468000184602B070BD0223FAE700BF10000020F8
:1046900089B5F814E14E0008A34E0008011000107F
:1046A00070B483B0069D00240194009490F83D40BE
:1046B000E4B2202C40F08780082D43D0012D41D05A
:1046C00090F83C40012C00F08280012480F83C40AE
:1046D0000468266816F0010F03D1266846F001062B
:1046E00026600668346824F400643460222480F86C
:1046F0003D40102480F83E4000240464426243851B
:10470000438D0385C5624164036B0193438D9BB266
:10471000022B3DD00268136843F4806313604FF4AA
:10472000E064019B122B47D001680B6843F480734F
:104730000B60002380F83C3001684A6822434A60DD
:10474000184641E0234C2468E408234EA6FB046489
:10475000240A04EB840404EB84040094009C013CD0
:104760000094009C2CB10468A46914F0020FF5D1E8
:10477000A6E700230363202280F83D2080F83E3026
:10478000026C42F02002026480F83C3001201BE001
:10479000202D04D0B5F12A4F01D0102DBAD10268D6
:1047A000136823F4806313600268136843F40063A2
:1047B00013604FF44074B4E7B5F52A0FB4D0B5F1E7
:1047C0002A4FB6D1B0E7022003B070BC7047022078
:1047D000FAE700BF1000002089B5F81470B582B068
:1047E000069D00240194009490F83D40E4B2202CF2
:1047F00040F0F280082D7AD0012D78D090F83C401E
:10480000012C00F0ED80012480F83C40046826680B
:1048100016F0010F03D1266846F0010626600668EF
:10482000346824F4006434600668746824F48054A6
:104830007460222480F83D40102480F83E4000241B
:10484000046442624385438D9BB20385C562416423
:10485000026B0192002B00F0A280438D9BB2022BD1
:104860006BD00268136843F480631360202D04D07A
:10487000B5F12A4F01D0102D04D10268536843F4DA
:10488000805353600446836B564ADA63836B564AFF
:10489000DA64826B00231364826B13650168038DF5
:1048A000426A1031806B04F08EFB0346002868D109
:1048B000019A122A5ED021680A6842F480720A6066
:1048C000002284F83C20043D1C2D0AD8474A22FAD5
:1048D00005F515F0010F04D021684A6842F4006222
:1048E0004A6021684A6842F440724A6075E0404C70
:1048F0002468E4083F4EA6FB0464240A04EB840405
:1049000004EB84040094009C013C0094009C2CB1B6
:104910000468A46914F0020FF5D16FE70023036364
:10492000202280F83D2080F83E30026C42F02002C8
:10493000026480F83C3001234FE0202D0AD0B5F10D
:104940002A4F07D0102D05D00268136843F4806306
:10495000136097E70268136823F4806313600268AA
:10496000136843F4006313600268536843F4805390
:10497000536087E7B5F52A0F9DD0B5F12A4F9FD137
:1049800099E7202384F83D30002284F83E20236CF0
:1049900043F01003236484F83C2001231DE00268E7
:1049A000136843F480631360019B122B0DD00268DF
:1049B000136843F480731360002380F83C3001686F
:1049C0004A6842F4E0624A6007E0B5F52A0FEED08B
:1049D000B5F12A4FF0D1EAE70223184602B070BDC4
:1049E0000223FAE7E14E0008A34E00080110001070
:1049F0001000002089B5F81430B482B090F83D4022
:104A000004F02804282C34D1002936D0002A36D0CE
:104A100090F83C40012C34D0012480F83C400468DC
:104A2000256815F0010F03D1256845F001052560C3
:104A300005682C6824F400642C60292480F83D402B
:104A4000202480F83E400024046441624285428D67
:104A50000285C362019403685A6901929A690192BE
:104A6000019A80F83C405A6842F4E0625A6020465D
:104A700000E0022002B030BC70470120FAE70120BC
:104A8000F8E70220F6E7F0B583B090F83D5005F066
:104A90002805282D40F0A680002900F0A780002AD4
:104AA00000F0A68090F83C40012C00F0A3801F4647
:104AB00016460D460446012380F83C3002685368D0
:104AC00023F44073536090F83D30DBB22A2B41D081
:104AD00090F83D30DBB2292B54D023681A6812F0CD
:104AE000010F03D11A6842F001021A6022681368AC
:104AF00023F400631360292384F83D30202384F8D5
:104B00003E300023236465626685628D2285E762FC
:104B1000626B3949D163626B3849D164626B13644B
:104B2000626B13652268238D1032616A606B04F03A
:104B30004AFA034600283CD0202384F83D30002266
:104B400084F83E20236C43F01003236484F83C2057
:104B5000012348E003685A6812F4006FBDD0826BED
:104B6000002ABAD05A6822F400625A60836B244A41
:104B70001A65806B04F0BBFA0028AED0A06B036D01
:104B80009847AAE703685A6812F4006FA5D05A68DC
:104B900022F400625A60436B002B9ED0184A1A65BB
:104BA000406B04F0A4FA002897D0606B036D98471F
:104BB00093E721680A6842F480620A60002101914B
:104BC00022685069019090690190019884F83C1026
:104BD000516841F44071516021684A6842F40062B2
:104BE0004A6000E00223184603B0F0BD0123FAE753
:104BF0000123F8E70223F6E7E14E0008A34E000880
:104C0000FF4F000830B482B090F83D4004F0280413
:104C1000282C34D1002936D0002A36D090F83C40D8
:104C2000012C34D0012480F83C400468256815F03C
:104C3000010F03D1256845F00105256005682C6842
:104C400024F400642C602A2480F83D40202480F85D
:104C50003E400024046441624285428D0285C36265
:104C6000019403685A6901929A690192019A80F845
:104C70003C405A6842F4E0625A60204600E002205C
:104C800002B030BC70470120FAE70120F8E70220AB
:104C9000F6E7F0B583B090F83D5005F02805282DD3
:104CA00040F0A680002900F0A780002A00F0A6802E
:104CB00090F83C40012C00F0A3801F4616460D469C
:104CC0000446012380F83C300268536823F44073A3
:104CD000536090F83D30DBB22A2B41D090F83D3044
:104CE000DBB2292B54D023681A6812F0010F03D1CC
:104CF0001A6842F001021A602268136823F4006304
:104D000013602A2384F83D30202384F83E300023AA
:104D1000236465626685628D2285E762A26B3949EC
:104D2000D163A26B3849D164A26B1364A26B136583
:104D30002168238D626A1031A06B04F044F90346A8
:104D400000283CD0202384F83D30002284F83E2007
:104D5000236C43F01003236484F83C20012348E0D3
:104D600003685A6812F4006FBDD0826B002ABAD073
:104D70005A6822F400625A60836B244A1A65806B79
:104D800004F0B5F90028AED0A06B036D9847AAE7F0
:104D900003685A6812F4006FA5D05A6822F40062C2
:104DA0005A60436B002B9ED0184A1A65406B04F082
:104DB0009EF9002897D0606B036D984793E72168B0
:104DC0000A6842F480620A600021019122685069F9
:104DD000019090690190019884F83C10516841F469
:104DE0000061516021684A6842F440724A6000E004
:104DF0000223184603B0F0BD0123FAE70123F8E7C8
:104E00000223F6E7E14E0008A34E0008FF4F00081A
:104E100090F83D30DBB2202B17D1282380F83D30AD
:104E200003681A6812F0010F03D11A6842F00102F8
:104E30001A600268136843F4806313600268536861
:104E400043F440735360002070470220704790F88D
:104E50003D30DBB2282B19D190F83D2090F83E3040
:104E600002F0030213430363202380F83D30002344
:104E700080F83E3001680A6822F480620A600168A6
:104E80004A6822F440724A60184670470220704710
:104E9000704770477047704770477047704770475A
:104EA000704710B5846B626B0023D363A26BD3632E
:104EB00004F01EFB022812D02268136823F48063DA
:104EC000136000236385202284F83D2084F83E305F
:104ED000236C43F0100323642046FFF7E1FF10BD6D
:104EE00038B5846B94F83D30DBB294F83E20D1B2F3
:104EF000E56A2068426822F440724260606B0022DA
:104F0000C263A06BC26303F02102212A41D003F0E7
:104F10002202222A3BD094F83E30002B49D0638DE8
:104F20009BB2012B58D02268536823F4407353601E
:104F300015F5803F06D0082D04D0B5F12A4F01D0D9
:104F4000202D04D12268136843F400731360226893
:104F5000536823F4805353602268536823F400633A
:104F6000536000236385236C002B3BD1202384F8FE
:104F70003D3094F83E30DBB2402B37D0002384F82C
:104F80003E30122323632046FFF783FF11E02029E0
:104F9000C1D121684A6822F400624A600022628519
:104FA000292B07D02A2B0ED02268536843F4407374
:104FB000536038BD21232363282384F83D302046E5
:104FC000FFF768FFF0E722232363282384F83D30AE
:104FD0002046FFF760FFE7E72268136823F4806349
:104FE0001360A0E72046FFF75BFFE2E7002384F8A9
:104FF0003E3023632046FFF752FFDAE7704710B5D3
:10500000806B90F83D20416B0023CB63816BCB63B9
:105010000468216821F4806121604385416B0B6540
:10502000816B0B6501680B6823F001030B6090F83E
:105030003D30DBB2602B0DD0D2B202F02802282A1C
:1050400012D0202380F83D30002380F83E30FFF757
:1050500027FF10BD202380F83D30002380F83E302C
:105060000364FFF7CBFFF4E70268136843F0010322
:1050700013600268136843F48063136000230363C2
:10508000282380F83D30E2E710B5044690F83D3023
:10509000DBB290F83E20D2B2102A33D003F02802BF
:1050A000282A3CD02268526812F4006F04D1602B89
:1050B00002D0202384F83D300023236384F83E305F
:1050C00023685A6812F4006F4DD05A6822F40062C7
:1050D0005A60626B92F83530DBB2012B25D0454B1C
:1050E0001365606B04F003F800284ED02268136843
:1050F00023F001031360202384F83D30606B036DBF
:10510000984742E0222BC9D10268136823F4006358
:10511000136003685B6813F4006FCAD0CCE7002308
:105120002363282384F83D30CAE7A36B314A1A650C
:10513000A06B03F0DCFF40B323685A6912F0400F04
:1051400005D01A69636A1A70636A01336362226860
:10515000136823F001031360202384F83D30A06B13
:10516000036D984711E094F83D20D2B2602A16D022
:105170005A6912F0400F05D01A69636A1A70636A9F
:10518000013363622046FFF78BFE94F83D30DBB2BB
:10519000226C12F0040F01D0282B18D010BD202251
:1051A00084F83D20002222645A6912F0400F05D095
:1051B0001A69636A1A70636A01336362226813684A
:1051C00023F0010313602046FFF718FFDDE7226894
:1051D000536823F4E0635360074BE36200232363C7
:1051E000202284F83D2084F83E302046FFF755FE0B
:1051F000D4E700BFFF4F00080000FFFF90F83E30EB
:10520000DBB2102B01D00120704790F83C30012B0D
:105210001ED010B5012380F83C30002404636023C5
:1052200080F83D300268136823F4806313600268DD
:10523000136843F40073136044850268536823F4D1
:10524000E063536080F83C40FFF71EFF204610BD2E
:105250000220704730B58DB0044602685068E56A98
:1052600094F83E30DBB294F83D10102B22D0C9B236
:10527000402B1FD0236C002B00F0A783536900251F
:1052800013F0020F00F0B88310F4007F00F0BA832F
:10529000236C03B1956994F83D3003F02803282B63
:1052A00000F096836FF002035361002384F83C30D2
:1052B0000DB030BD9169536913F0010F1CD1B5F5E4
:1052C0002A0FF5D0B5F12A4FF2D013F0080F1AD0FB
:1052D00010F4007F00F07581636CDBB21361636BC7
:1052E000002B7FD0DB6B002B00F08180226853689D
:1052F00043F400635360DBE710F4007F1DD113F02B
:10530000080F40F05E8113F0020F00F05A8110F494
:10531000007F00F0568194F83E30D9B2E06A256BE8
:1053200094F83D30DBB2222B67D000230A935369F7
:105330000A9393690A930A9BBAE7E36AB3F52A0FC3
:105340001DD0E36AB3F12A4F04BF0823E36294F847
:105350003E30DBB2402B15D02369B3F5804F1ED011
:10536000236D002B35D0236D012BA1D1636CC3F3CA
:10537000C81303F0060343F0F103136198E7012318
:10538000E362E4E7236D23B9636C03F0FE0313616A
:105390008EE7636C43F00103DBB2136188E794F896
:1053A0003D30DBB2212B636C0EBF03F0FE0343F0F4
:1053B0000103DBB21361636BDB6B2BB122685368B3
:1053C00043F40063536073E7A36BDB6B002BF5D1F1
:1053D0006EE7636CC3F3C81303F0060343F0F003F6
:1053E000136165E7A26B002A7FF47CAF60E7A36BD3
:1053F000DB6B002B7FF47AAF5AE7236D0BB94029A2
:1054000015D0236D1BB92369B3F5404F16D0638DBA
:105410009BB213BB03935369039393690393039B59
:10542000136843F4007313600023236540E701937E
:105430005369019393690193019B39E70023029318
:105440005369029393690293029B136843F4807338
:105450001360236D013323652AE7638D9BB2012B13
:1054600025D0638D9BB2022B79D0136843F48063FF
:10547000136023685A6812F4006F0FD010F5803F54
:1054800008D001381F2809D8A14A22FA00F010F0EC
:10549000010F03D05A6842F480525A6000230993E6
:1054A00023685A6909929B690993099BBCE710F527
:1054B000803F1AD0082841D020283FD0122D36D066
:1054C000102836D8934B23FA00F010F0010F30D09B
:1054D000136843F4806313600023069323685A69BA
:1054E00006929B690693069B9EE7136823F48063EC
:1054F000136023685A6812F4006F0CD01A6822F403
:1055000080621A600023049323685A6904929B699D
:105510000493049B88E7002205925A6905929A69D0
:105520000592059A1A6842F400721A607CE7012815
:1055300004D1136823F480631360CDE7136823F468
:10554000806313600023079323685A6907929A695E
:105550000792079A1A6842F400721A6064E71028EA
:1055600025D86C4BC34013F0010F20D0136843F4CF
:105570008063136023685A6812F4006F0ED010F530
:10558000803F07D001381F2808D8614AC24012F076
:10559000010F03D05A6842F480525A6000230893E6
:1055A00023685A6908929B690893089B3CE7136833
:1055B00023F4806313602268136843F4006313606C
:1055C000D8E711F0040F00F00D81516811F4006F5D
:1055D0007FF46EAE13F0800F00F0AF8010F4806F98
:1055E00000F0AB8013F0040F40F0AB8094F83D3036
:1055F000DBB294F83E10C9B2E56A208D002840D194
:10560000212B06D040297FF453AE222B7FF450AEDD
:1056100039E0082D14D0202D12D015F5803F0FD081
:10562000536823F4E063536011232363002384F859
:105630003E30202384F83D302046FFF729FC37E632
:10564000536823F4E06353602268136843F40073E3
:10565000136000232363202384F83D3094F83E3008
:10566000DBB2402B06D0002384F83E302046FFF703
:105670000FFC1DE6002384F83E302046FFF70EFCA9
:1056800016E6212BBED1638D9BB27BB194F83E30E0
:10569000DBB2402B0FD0636A1B781361636A01335E
:1056A0006362638D013B9BB2638501E6536823F41B
:1056B00080635360FCE5236D8BB9E36C012B06D14D
:1056C000A36CDBB21361236D02332365F0E5A36C99
:1056D000C3F307231361236D01332365E8E5236DCD
:1056E000012B06D1A36CDBB21361236D013323655B
:1056F000DEE5236D022B7FF4DBAD94F83D30DBB2A9
:10570000222B09D1136843F480731360D0E500BFE6
:10571000818000801400010094F83D30DBB2212B21
:105720007FF4C6AD636A1B781361636A01336362F9
:10573000638D013B9BB26385BAE513F0040F3FF420
:10574000B7AD10F4007F3FF4B3ADE16A94F83D309B
:10575000DBB2212B7FF4ACAD638D9BB203BB082978
:1057600004D0202902D011F5803F24D1536823F4BE
:10577000E06353602268136843F4007313600023EE
:105780002363202384F83D3094F83E30DBB2402B75
:1057900021D0002384F83E302046FFF779FB87E5CF
:1057A000636A1B781361636A01336362638D013B33
:1057B0009BB263857CE5536823F4E0635360112357
:1057C0002363002384F83E30202384F83D302046B4
:1057D000FFF75EFB6CE5002384F83E302046FFF7C0
:1057E0005DFB65E5516811F4006F7FF461AD13F066
:1057F000400F58D010F4806F55D013F0040F56D1DD
:1058000094F83D30DBB2222B7FF452AD638D9BB216
:10581000032B14D91269636A1A70636A01336362D5
:10582000638D013B9BB26385638D9BB2032B7FF439
:105830003FAD2268536823F48063536038E5E16A22
:1058400002293FF435AD012B3FF632AD136823F446
:10585000806313602268536823F4E0635360236815
:105860001A69636A1A70636A01336362638D013B6C
:105870009BB26385202384F83D3094F83E30DBB240
:10588000402B08D0002384F83E30122323632046A7
:10589000FFF7FFFA0CE5002384F83E30236320462F
:1058A000FFF7FDFA04E513F0040F3FF401AD10F427
:1058B000007F3FF4FDACE16A638D9BB2042B12D0F4
:1058C000638D9BB2032B1ED0638D9BB2022B33D012
:1058D0001269636A1A70636A01336362638D013B04
:1058E0009BB26385E4E4536823F4806353602368C8
:1058F0001A69636A1A70636A01336362638D013BDC
:105900009BB26385D4E4536823F480635360042915
:1059100006D0022904D02268136823F48063136040
:1059200023681A69636A1A70636A01336362638D5C
:10593000013B9BB26385BBE401290AD0102908D042
:10594000042935D0022933D0136843F4007313605F
:1059500003E0136823F48063136023681A69636AA1
:105960001A70626A531C6362638D013B9BB263854C
:1059700023681B695370636A01336362638D013B63
:105980009BB263852268536823F4407353602023DD
:1059900084F83D3094F83E30DBB2402B0DD000232C
:1059A00084F83E30122323632046FFF772FA7FE427
:1059B000136843F480631360CFE7002384F83E301C
:1059C00023632046FFF76BFA72E49569536957E445
:1059D000536823F48063536085F00401C1F38001B0
:1059E00015F0800F0CBFA289228B002384F83C3075
:1059F0002046FFF751FA5BE413F0100F02D010F4C9
:105A0000007F38D101F0F701212900F0F38013F075
:105A1000400F00F03A8110F4806F00F0368113F0EF
:105A2000040F40F0368194F83D30D9B2638D9BB2BB
:105A3000002B3FF43DAC1269636A1A70636A01334C
:105A40006362638D013B9BB26385638D9BB2002BC8
:105A50007FF42EAC2A297FF42BAC2268536823F400
:105A60008063536022232363282384F83D3020463B
:105A7000FFF711FA1CE494F83D50EDB2536823F49B
:105A8000E063536000230B9323685A690B921A68F2
:105A900042F001021A600B9B2268136823F48063B2
:105AA000136023685A6812F4006F38D005F0F702CB
:105AB000222A1FD0626B1268526892B26285628D90
:105AC00092B21AB1226C42F0040222645A6822F4A3
:105AD00000625A60606B03F008FD01281FD0636B01
:105AE000764A1A65606B03F002FBC0B1606B036D10
