:020000040800F2
:1000000000000320D12B020805AB010825AB010835
:1000100045AB010865AB010885AB01080000000095
:100020000000000000000000000000006D37000824
:10003000A5AB01080000000029380008C5AB010885
:10004000212C0208212C0208212C0208212C020854
:10005000212C0208212C0208212C0208212C020844
:10006000212C0208212C0208212C0208212C020834
:10007000212C0208212C0208212C0208212C020824
:10008000212C0208212C0208212C0208212C020814
:10009000212C0208212C0208212C0208212C020804
:1000A000212C0208212C0208212C0208212C0208F4
:1000B000212C0208212C0208212C0208212C0208E4
:1000C000212C0208212C0208212C0208212C0208D4
:1000D000212C0208212C0208212C0208212C0208C4
:1000E00031450008212C0208212C0208212C02088D
:1000F000212C0208212C0208212C0208212C0208A4
:10010000212C0208212C0208212C0208212C020893
:10011000212C0208212C0208212C0208212C020883
:10012000212C0208212C0208212C0208212C020873
:10013000212C0208D5AB0108212C0208212C020831
:10014000212C0208212C0208212C0208212C020853
:10015000212C0208212C0208212C0208212C020843
:10016000212C0208212C0208212C0208212C020833
:10017000212C0208212C0208212C0208000000007A
:10018000212C0208212C0208212C0208212C020813
:10019000212C0208212C0208212C0208212C020803
:0C01A000212C0208212C0208212C02084E
:1001C0000348044B834202D0034B03B118477047E6
:1001D0000C0A00200C0A0020000000000548064917
:1001E000091A891001EBD171491002D0034B03B1F8
:1001F000184770470C0A00200C0A0020000000007D
:1002000010B5064C237843B9FFF7DAFF044B13B15E
:100210000448AFF300800123237010BD0C0A0020B6
:1002200000000000382C020808B5044B1BB104493B
:100230000448AFF30080BDE80840CFE700000000AD
:10024000100A0020382C0208134B002B08BF114B5A
:100250009D46A3F5803A00218B460F461148124A6D
:10026000121A1BF047FF0D4B002B00D098470C4B88
:10027000002B00D098470020002104000D000B48FF
:100280001BF044FE1BF078FE2000290000F010F85F
:100290001BF048FE00000800000000000000000005
:1002A000000000000C0A0020D0E9002045BF010832
:1002B00010B582B01AF0ACFB2F4B019302240094CE
:1002C00000234FF480622D492D4801F069FF2D4B2A
:1002D0000193009400234FF480622B492B4801F0D6
:1002E0005FFF2B4B0193009400234FF48062294958
:1002F000294801F055FF294B0193009400234FF446
:1003000080622749274801F04BFF274B0193009457
:1003100000234FF480622549254801F041FF254B19
:100320000193009400234FF480622349234801F095
:1003300037FF234B0193009400234FF4806221493F
:10034000214801F02DFF214B0193009400234FF42D
:1003500080621F491F4801F023FF1F4B0193009447
:1003600000234FF480621D491D4801F019FF02F07F
:10037000D7F9002002B010BD10E80020D42F0208E9
:100380005145000818E80020E82F02083D46000803
:10039000ECE70020F82F0208D94A0008F0E7002017
:1003A0000C300208835200080CE8002018300208C4
:1003B0003D570008F4E7002028300208BD4F000830
:1003C000E4E700203C30020855510008D4E7002043
:1003D0005030020819580008F8E700206030020881
:1003E0008954000810B4134B1A6882421BD35C680E
:1003F0001919884203D1416821445960184641685F
:100400004418A24213D10B4CA468A2420DD05268EA
:100410000A4442601A6812680260984218BF186065
:100420005DF8044B70471346DEE70260F5E70260B3
:10043000F3E700BF280A0020F8B5044602F0BCF933
:10044000414B9B68ABB1404B5F69274273D1002C95
:1004500075D004F1080313F0070F1CBF23F0070346
:100460000833002B67D0384A16699E4263D314685C
:1004700023E0364A12F0070F1AD0D11D21F00701F0
:1004800002F55C435B1A0A462F490A600020486067
:100490001344083B23F007038B6058601860981AD8
:1004A00050601360C86008614FF000434B61CAE7B9
:1004B0004FF45C43E8E722460C466168994202D259
:1004C00021680029F7D120498968A14233D01568F5
:1004D000216811606268D21A102A10D9E01810F051
:1004E000070F08D04FF0500383F31188BFF36F8FCD
:1004F000BFF34F8FFEE742606360FFF773FF6268F0
:10050000B61A11490E61C9688E423CBF0E49CE60D1
:100510000835174367600023236002F00BFA15F0DB
:10052000070F0FD04FF0500383F31188BFF36F8F85
:10053000BFF34F8FFEE702F0FDF9002502E002F065
:10054000F9F900252846F8BD280A0020400A0020B5
:1005500078B310B5044650F8043C164A5269134269
:1005600008D14FF0500383F31188BFF36F8FBFF3AF
:100570004F8FFEE750F8081C41B14FF0500383F352
:100580001188BFF36F8FBFF34F8FFEE723EA02039B
:1005900040F8043C02F010F9064A54F8043C116992
:1005A0000B441361A4F10800FFF71CFF02F0C2F92D
:1005B00010BD7047280A0020014B1869704700BF22
:1005C000280A0020014BD868704700BF280A002085
:1005D000704700BF8268436813440068181A82425B
:1005E00098BF801A7047F8B504460D4617461E4658
:1005F000552128461BF07EFD854208D04FF0500360
:1006000083F31188BFF36F8FBFF34F8FFEE7242270
:10061000002120461BF06EFDA561A760E6609DF8F5
:1006200018302377F8BD42B94FF0500383F3118897
:10063000BFF36F8FBFF34F8FFEE72DE9F0411746F1
:1006400046688368A3EB0608904528BF904606EBF2
:100650000802934208D24FF0500383F31188BFF38E
:100660006F8FBFF34F8FFEE70D4604468069424609
:1006700030441BF0A5FC474512D9A7EB0802A3683C
:100680009A4208D94FF0500383F31188BFF36F8F5C
:10069000BFF34F8FFEE705EB0801A0691BF090FC4C
:1006A0003E44A268B24298BFB61A66603846BDE8BA
:1006B000F0812DE9F84390469A4228BF9846B8F158
:1006C000000F3ED0046883681F1B474528BF47467C
:1006D000BA4208D24FF0500383F31188BFF36F8FF3
:1006E000BFF34F8FFEE7E519AB4208D24FF050033E
:1006F00083F31188BFF36F8FBFF34F8FFEE79146EF
:100700000E46054681693A46214430461BF058FCA6
:10071000B84510D9C14508D24FF0500383F3118872
:10072000BFF36F8FBFF34F8FFEE7A8EB0702A969F6
:10073000F0191BF045FC4444AB68A34298BFE41A8F
:100740002C604046BDE8F883F0B583B004460D4602
:10075000012A09D0F8B94FF0500383F31188BFF391
:100760006F8FBFF34F8FFEE7042808D84FF0500378
:1007700083F31188BFF36F8FBFF34F8FFEE701271D
:10078000AC420AD24FF0500383F31188BFF36F8F4E
:10079000BFF34F8FFEE70027F2E7002D08BF0125CA
:1007A00004F12500FFF748FE064630B100972B46BE
:1007B000621C00F12401FFF716FF304603B0F0BDC4
:1007C00008B530B1037F13F0020F0BD1FFF7C0FE65
:1007D00008BD4FF0500383F31188BFF36F8FBFF351
:1007E0004F8FFEE7242200211BF084FCF0E740B984
:1007F0004FF0500383F31188BFF36F8FBFF34F8F18
:10080000FEE730B583B00446056A02F0D5FF2369E0
:100810002BB1002402F0F2FF204603B030BD636923
:1008200053B9237F0093E368A268A1692046FFF7CC
:10083000DAFE25620124EDE70024EBE748B1002948
:1008400008BF012182688A4226BFC16001200020C2
:1008500070474FF0500383F31188BFF36F8FBFF3DE
:100860004F8FFEE7024648B183680068526818441B
:100870000138801A834298BFC01A70474FF0500366
:1008800083F31188BFF36F8FBFF34F8FFEE708B577
:1008900040B94FF0500383F31188BFF36F8FBFF35C
:1008A0004F8FFEE7FFF796FE08BD2DE9F04387B0B6
:1008B000019351B1884688B94FF0500383F31188F2
:1008C000BFF36F8FBFF34F8FFEE74FF0500383F3FB
:1008D0001188BFF36F8FBFF34F8FFEE7037F13F0D5
:1008E000010F0CD002F104094A4509D34FF050031F
:1008F00083F31188BFF36F8FBFF34F8FFEE79146ED
:1009000016460446019B2BB304A802F031FA0027D7
:1009100002F052FF2046FFF7A5FF0546814550D95A
:10092000384602F0B7FE6369002B41D102F05CFB50
:10093000606102F063FF019B3A463946384602F097
:10094000E5FC676101A904A802F036FA0028DFD0AF
:10095000002D41D12046FFF785FF0396054600286C
:100960003CD0237F13F0010F2ED1B54228BF35466E
:100970000395039A41462046FFF755FE054698B178
:100980002046FFF727FEE36898420DD301F014FFDD
:1009900023693BB1206900231A46194602F00AFD7B
:1009A0000023236101F0C6FF284607B0BDE8F083AD
:1009B0004FF0500383F31188BFF36F8FBFF34F8F56
:1009C000FEE702F01BFFC3E7A94507D8042203A9ED
:1009D0002046FFF728FECCE70396C2E70025E3E7B1
:1009E00069B12DE9F04385B0884688B94FF05003CE
:1009F00083F31188BFF36F8FBFF34F8FFEE74FF084
:100A0000500383F31188BFF36F8FBFF34F8FFEE75F
:100A1000017F11F0010F14BF02F1040991461F4636
:100A200015460446FFF71EFF0395064658B3237F7D
:100A300013F0010F2BD1854228BF05460395039A79
:100A400041462046FFF7EFFD0646E0B12046FFF79E
:100A5000C1FDE368984216D3EFF311854FF05003C0
:100A600083F31188BFF36F8FBFF34F8F236943B1B7
:100A70002069009700231A46194602F015FD00234D
:100A8000236185F31188304605B0BDE8F0838145C8
:100A900005D8042203A92046FFF7C5FDCFE70026AD
:100AA000F1E781B12DE9F04383B00446174699463A
:100AB000884688B94FF0500383F31188BFF36F8FD6
:100AC000BFF34F8FFEE74FF0500383F31188BFF35E
:100AD0006F8FBFF34F8FFEE7057F05F00105AD0077
:100AE0003BB302F069FE2046FFF774FD06468542DF
:100AF0002AD3002002F0CEFD236943B14FF050030A
:100B000083F31188BFF36F8FBFF34F8FFEE702F0BF
:100B10006BFA206102F072FE4B460022114610462D
:100B200002F0F4FB002323612046FFF753FD064645
:100B300002E0FFF74FFD0646AE4298BF002505D8FC
:100B4000284603B0BDE8F08302F058FE7DB1D4F82A
:100B5000009033462A4601A92046FFF7AAFD019BD3
:100B6000761B9F423ABFC4F8009000271F463346C9
:100B70003A4641462046FFF79CFD05460028DFD057
:100B800001F01AFE63693BB1606900231A461946F9
:100B900002F010FC0023636101F0CCFED0E7A0B1AD
:100BA00030B583B00446037F13F0010F21D0FFF767
:100BB00011FD042812D8E8B14FF0500383F31188D7
:100BC000BFF36F8FBFF34F8FFEE74FF0500383F3F8
:100BD0001188BFF36F8FBFF34F8FFEE72568034681
:100BE00004220DEB02012046FFF763FD019825600A
:100BF00000E0002003B030BD81B12DE9F04385B0A5
:100C0000044616469846894688B94FF0500383F348
:100C10001188BFF36F8FBFF34F8FFEE74FF0500384
:100C200083F31188BFF36F8FBFF34F8FFEE7037F0E
:100C300013F0010F37D1FFF7CDFC054688B92846E0
:100C400005B0BDE8F08327682B46042203A920469F
:100C5000FFF72FFD039B043D9E423ABF276000260D
:100C60001E462B46324649462046FFF722FD0546E2
:100C70000028E4D0EFF311864FF0500383F311887E
:100C8000BFF36F8FBFF34F8F63694BB16069CDF8CE
:100C9000008000231A46194602F006FC0023636117
:100CA00086F31188CBE7FFF795FC05460428CAD8E0
:100CB0000025C4E730B102684068904214BF0020AC
:100CC000012070474FF0500383F31188BFF36F8FFB
:100CD000BFF34F8FFEE758B110B5047F04F0010455
:100CE000A400FFF7BFFDA0428CBF0020012010BD73
:100CF0004FF0500383F31188BFF36F8FBFF34F8F13
:100D0000FEE7E0B130B583B00446EFF311854FF054
:100D1000500383F31188BFF36F8FBFF34F8F0369C5
:100D2000B3B10069009100231A46194602F0BCFBDA
:100D300000232361012085F3118803B030BD4FF0FB
:100D4000500383F31188BFF36F8FBFF34F8FFEE71C
:100D50000020F0E7E0B130B583B00446EFF3118531
:100D60004FF0500383F31188BFF36F8FBFF34F8FA2
:100D70004369B3B14069009100231A46194602F055
:100D800093FB00236361012085F3118803B030BD1C
:100D90004FF0500383F31188BFF36F8FBFF34F8F72
:100DA000FEE70020F0E7006A704701627047007FAD
:100DB00000F001007047000010B5044602F0FCFC92
:100DC000A46B02F01BFDB4FA84F0400910BD70B5AD
:100DD00004461646856B026C5AB903681BB10020A5
:100DE0000135A56370BD806802F076F90023A36029
:100DF000F6E76EB940681BF0E3F86368226C1344B1
:100E00006360A268934219D3236863600020E7E718
:100E1000C0681BF0D5F8226C5242E3681344E360CB
:100E200021688B4202D2A3681A44E260022E01D0EC
:100E30000020D5E725B1013D0020D1E70020CFE714
:100E40000020CDE770B582B00190846C64B1A26BD4
:100E5000E36B9A4211D34FF0500383F31188BFF331
:100E60006F8FBFF34F8FFEE74FF0500383F311886E
:100E7000BFF36F8FBFF34F8FFEE7A26B934203D890
:100E80000026304602B070BD0A4694F845506DB257
:100E900001A92046FFF79BFF0646B5F1FF3F0AD1A7
:100EA000636A002BEDD004F1240001F0DFFE00287E
:100EB00018BF0126E5E76B1C5BB284F84530E0E71C
:100EC000026C72B110B5C3681344C3608468A34256
:100ED00024BF0368C3600C46C16820461BF070F84D
:100EE00010BD7047F8B5054602F066FC95F8454020
:100EF00064B2002C1BDD05F12407002608E06B6AB4
:100F0000ABB1384601F0B2FE70B9013C64B274B1C5
:100F1000AB6C002BF3D031462846FFF793FF002837
:100F2000F3D001F089FFF0E701F086FFEDE7FF2342
:100F300085F8453002F062FC02F03EFC95F8444032
:100F400064B2002C11DD2B697BB105F1100604E0C1
:100F5000013C64B24CB12B693BB1304601F086FED6
:100F60000028F5D001F068FFF2E7FF2385F8443050
:100F700002F044FCF8BD38B540B94FF0500383F39C
:100F80001188BFF36F8FBFF34F8FFEE704460D4606
:100F900002F012FC2268216CE36B03FB01F3D01812
:100FA000A0600020A06362605B1A1344E360FF232B
:100FB00084F8443084F84530A5B923691BB902F0A0
:100FC0001DFC012038BD04F1100001F04FFE002887
:100FD000F5D0094B4FF080521A60BFF34F8FBFF32B
:100FE0006F8FECE704F1100000F02CFE04F12400F8
:100FF00000F028FEE3E700BF04ED00E0F8B540B9DB
:101000004FF0500383F31188BFF36F8FBFF34F8FFF
:10101000FEE7064617460D4601FB00F05430FFF789
:101020000BFA044678B11DB100F15403036000E0EF
:101030002060E663256401212046FFF79CFF84F8C9
:1010400050700023A3642046F8BD40B94FF0500310
:1010500083F31188BFF36F8FBFF34F8FFEE7884292
:1010600008D24FF0500383F31188BFF36F8FBFF3A3
:101070004F8FFEE710B50C4602220021FFF7BEFF9E
:10108000034600B18463184610BD2DE9F04784B0D3
:10109000019260B1044699B9026C8AB14FF05003D5
:1010A00083F31188BFF36F8FBFF34F8FFEE74FF0CD
:1010B000500383F31188BFF36F8FBFF34F8FFEE7A9
:1010C000022B0BD1E26B012A08D04FF0500383F3BF
:1010D0001188BFF36F8FBFF34F8FFEE71E460F4699
:1010E00001F088FF50B9019B73B14FF0500383F3B7
:1010F0001188BFF36F8FBFF34F8FFEE700254FF0CE
:101100000008DFF854913AE00025F8E7A56B324675
:1011100039462046FFF75BFEA36C002B00F0888069
:10112000022E00D165B931462046FFF78BFE38B15B
:10113000494B4FF080521A60BFF34F8FBFF36F8F50
:1011400002F05CFB012004B0BDE8F0870028F7D076
:10115000414B4FF080521A60BFF34F8FBFF36F8F38
:10116000EEE702F04BFB0020EDE702A801F01AFECB
:1011700012E02046FFF7B6FE01F0DCFB012502F08D
:101180001BFBA26BE36B9A42C0D3022E46D0019B9D
:10119000002BE6D0002DE8D002F030FB01F00CFB74
:1011A00002F00AFB94F844305BB2B3F1FF3F08BF92
:1011B00084F8448094F845305BB2B3F1FF3F08BF38
:1011C00084F8458002F01AFB01A902A801F0F4FDA1
:1011D000E8B902F0F1FAD4F838A0E56B02F00EFBA2
:1011E000AA45C6D1019904F1100001F0F7FC204690
:1011F000FFF778FE01F09EFB0028BFD14FF080532F
:10120000C9F80030BFF34F8FBFF36F8FB6E72046AA
:10121000FFF768FE01F08EFB002094E7A56B022229
:1012200039462046FFF7D3FDA36C002B7FF47AAF3D
:10123000636A002B8AD004F1240001F017FD002816
:101240003FF47EAF044B4FF080521A60BFF34F8FD4
:10125000BFF36F8F74E700BF04ED00E010B50246E6
:1012600000210120FFF7CAFE044638B10021816049
:101270000160C1600B460A46FFF707FF204610BD1C
:1012800038B540B94FF0500383F31188BFF36F8F27
:10129000BFF34F8FFEE70446856801F0A5FE854247
:1012A00001D0002038BDE368013BE36033B91A4642
:1012B00019462046FFF7E9FE0120F3E70120F1E798
:1012C0002DE9F84360B1044699B9006C88B14FF03C
:1012D000500383F31188BFF36F8FBFF34F8FFEE787
:1012E0004FF0500383F31188BFF36F8FBFF34F8F1D
:1012F000FEE7022B0BD1E06B012808D04FF0500322
:1013000083F31188BFF36F8FBFF34F8FFEE71F4644
:101310009046894602F078FBEFF311864FF05003B8
:1013200083F31188BFF36F8FBFF34F8FA26BE36B13
:101330009A4203D3022F01D000200FE094F84550C9
:101340006DB23A4649462046FFF741FDB5F1FF3FF1
:1013500008D06B1C5BB284F84530012086F31188FD
:10136000BDE8F883A36C5BB139462046FFF76AFD00
:10137000A0B1B8F1000F13D00120C8F80000EDE7CC
:10138000636A7BB104F1240001F070FC60B1B8F134
:10139000000F0BD00120C8F80000DFE70120DDE7D7
:1013A0000120DBE70120D9E70120D7E70120D5E7BD
:1013B00060B170B50446036C8BB14FF0500383F3FA
:1013C0001188BFF36F8FBFF34F8FFEE74FF05003CD
:1013D00083F31188BFF36F8FBFF34F8FFEE703686E
:1013E0002BB30E4602F010FBEFF311854FF05003C4
:1013F00083F31188BFF36F8FBFF34F8FA26BE36B43
:10140000934231D994F845305BB20132A263B3F113
:10141000FF3F23D1A36CB3B100212046FFF712FD9B
:1014200020B32EB30120306085F3118870BD83682E
:10143000002BD6D04FF0500383F31188BFF36F8F8A
:10144000BFF34F8FFEE7636AA3B104F1240001F0FC
:101450000DFC88B196B101203060E5E701335BB245
:1014600084F845300120DFE70020DDE70120DBE7DD
:101470000120D9E70120D7E70120D5E70120D3E7F4
:101480002DE9F04385B0019260B1044699B9036C2F
:101490008BB14FF0500383F31188BFF36F8FBFF30D
:1014A0004F8FFEE74FF0500383F31188BFF36F8F28
:1014B000BFF34F8FFEE70E4601F09CFD50B9019B34
:1014C00073B14FF0500383F31188BFF36F8FBFF3F5
:1014D0004F8FFEE700274FF00008DFF8FC9037E061
:1014E0000027F8E731462046FFF7EAFC013DA563F7
:1014F00023692BB902F082F9012005B0BDE8F08321
:1015000004F1100001F0B2FB0028F3D0324B4FF091
:1015100080521A60BFF34F8FBFF36F8FEAE702F07C
:101520006DF90020E9E702A801F03CFC1AE0204632
:10153000FFF7D8FC01F0FEF909E02046FFF7D2FCE6
:1015400001F0F8F92046FFF737FC002842D10127C7
:1015500002F032F9A56B002DC4D1019B002BDED027
:10156000002FE0D002F04AF901F026F902F024F948
:1015700094F844305BB2B3F1FF3F08BF84F8448075
:1015800094F845305BB2B3F1FF3F08BF84F8458063
:1015900002F034F901A902A801F00EFC0028CCD118
:1015A0002046FFF709FC0028C1D0019904F124006E
:1015B00001F014FB2046FFF795FC01F0BBF9002871
:1015C000C5D14FF08053C9F80030BFF34F8FBFF340
:1015D0006F8FBCE7002090E704ED00E02DE9F041BB
:1015E00084B0019140B94FF0500383F31188BFF3E9
:1015F0006F8FBFF34F8FFEE70446036C43B14FF08C
:10160000500383F31188BFF36F8FBFF34F8FFEE753
:1016100001F0F0FC50B9019B73B14FF0500383F31C
:101620001188BFF36F8FBFF34F8FFEE700252E4663
:101630000027DFF84C814AE000252E46F8E7013B01
:10164000A363236813B901F00FFEA060236963B19F
:1016500004F1100001F00AFB38B1494B4FF0805201
:101660001A60BFF34F8FBFF36F8F02F0C7F80125E9
:10167000284604B0BDE8F08145B14FF0500383F334
:101680001188BFF36F8FBFF34F8FFEE702F0B6F8FC
:10169000EEE702A801F086FB23E002F08DF8A068D7
:1016A00001F0B8FC054602F0A9F840E02046FFF73B
:1016B00019FC01F03FF909E02046FFF713FC01F0A7
:1016C00039F92046FFF778FB002845D1012602F0C2
:1016D00073F8A36B002BB2D1019B002BCCD0002E52
:1016E000D7D002F08BF801F067F802F065F894F8B3
:1016F00044305BB2B3F1FF3F08BF84F8447094F804
:1017000045305BB2B3F1FF3F08BF84F8457002F08B
:1017100075F801A902A801F04FFB0028CCD12046A2
:10172000FFF74AFB0028C1D02368002BB5D00199F0
:1017300004F1240001F052FA2046FFF7D3FB01F038
:10174000F9F80028C2D14FF08053C8F80030BFF339
:101750004F8FBFF36F8FB9E7002D89D002F02CF8BF
:10176000636A53B1236B1968C1F10701A06801F0E6
:101770000BFD02F043F800257AE70021F6E700BFF1
:1017800004ED00E040B94FF0500383F31188BFF33C
:101790006F8FBFF34F8FFEE770B504460D46866826
:1017A00001F022FC864209D029462046FFF716FFA9
:1017B000024638B1E3680133E36003E0E3680133D4
:1017C000E3600122104670BD2DE9F04184B0019222
:1017D00060B1044699B9036C8BB14FF0500383F3A9
:1017E0001188BFF36F8FBFF34F8FFEE74FF05003A9
:1017F00083F31188BFF36F8FBFF34F8FFEE70D4662
:1018000001F0F8FB50B9019B6BB14FF0500383F32B
:101810001188BFF36F8FBFF34F8FFEE700260027BD
:10182000DFF8FC8037E00026F9E7E6682946204625
:10183000FFF746FBE660636A2BB901F0DFFF01208A
:1018400004B0BDE8F08104F1240001F00FFA002893
:10185000F3D0334B4FF080521A60BFF34F8FBFF37A
:101860006F8FEAE701F0CAFF0020E9E702A801F064
:1018700099FA1AE02046FFF735FB01F05BF809E022
:101880002046FFF72FFB01F055F82046FFF794FAAA
:10189000002842D1012601F08FFFA36B002BC4D199
:1018A000019B002BDED0002EE0D001F0A7FF00F05E
:1018B00083FF01F081FF94F844305BB2B3F1FF3F46
:1018C00008BF84F8447094F845305BB2B3F1FF3F31
:1018D00008BF84F8457001F091FF01A902A801F04A
:1018E0006BFA0028CCD12046FFF766FA0028C1D059
:1018F000019904F1240001F071F92046FFF7F2FA92
:1019000001F018F80028C5D14FF08053C8F8003016
:10191000BFF34F8FBFF36F8FBCE7002090E700BF8E
:1019200004ED00E02DE9F84360B1044699B9036C79
:101930008BB14FF0500383F31188BFF36F8FBFF368
:101940004F8FFEE74FF0500383F31188BFF36F8F83
:10195000BFF34F8FFEE71746894602F055F8EFF3C5
:1019600011864FF0500383F31188BFF36F8FBFF3DD
:101970004F8FD4F83880B8F1000F1DD094F8445040
:101980006DB249462046FFF79BFA08F1FF33A36387
:10199000B5F1FF3F05D06B1C5BB284F844300120E9
:1019A0000BE023696BB104F1100001F05FF950B155
:1019B0005FB10120386000E0002086F31188BDE8A7
:1019C000F8830120F9E70120F7E70120F5E7F8B5F2
:1019D00060B1044699B9036C9BB14FF0500383F397
:1019E0001188BFF36F8FBFF34F8FFEE74FF05003A7
:1019F00083F31188BFF36F8FBFF34F8FFEE7036C44
:101A000043B94FF0500383F31188BFF36F8FBFF3D7
:101A10004F8FFEE70D4601F0F7FFEFF311864FF011
:101A2000500383F31188BFF36F8FBFF34F8FA36B06
:101A30004BB1E76829462046FFF742FAE7600120EC
:101A400086F31188F8BD0020FAE740B94FF0500343
:101A500083F31188BFF36F8FBFF34F8FFEE710B58D
:101A6000044601F0A9FEA46B01F0C8FE204610BD9B
:101A700040B94FF0500383F31188BFF36F8FBFF36A
:101A80004F8FFEE710B5044601F096FEA36BE46BA2
:101A9000E41A01F0B3FE204610BD08B1806B704718
:101AA0004FF0500383F31188BFF36F8FBFF34F8F55
:101AB000FEE7C06C7047C164704790F850007047F3
:101AC00020B1806BB0FA80F0400970474FF05003AE
:101AD00083F31188BFF36F8FBFF34F8FFEE730B1F1
:101AE000826BC06B904214BF0020012070474FF002
:101AF000500383F31188BFF36F8FBFF34F8FFEE75F
:101B000010B40B4B1B6853B10123094C54F833201C
:101B100032B10133082BF9D15DF8044B7047002333
:101B2000034A42F8331002EBC3035860F4E700BFE6
:101B30001CE80020094B5B6898420AD0074A012341
:101B4000D168814206D001330832082BF8D1002039
:101B500070470023014A52F8330070471CE8002008
:101B60000B4B5B68984209D0094A0123D168814236
:101B700005D001330832082BF8D170470023044AFE
:101B8000002142F8331002EBC3035960704700BFD5
:101B90001CE8002040B94FF0500383F31188BFF3D5
:101BA0006F8FBFF34F8FFEE710B50446FFF7D8FFE6
:101BB0002046FEF7CDFC10BD08B500220421FFF73A
:101BC0001DFA08BD38B504460D4601F0F5FDA36CBD
:101BD00023B1002401F012FE204638BDA36B13B9D7
:101BE000A5640124F6E70024F4E7836C8B4201D05E
:101BF00000207047836B0BB10020704710B504467E
:101C000001F0DAFD0023A36401F0F8FD012010BD0E
:101C100000B583B002AB002243F8042D0A461946F2
:101C2000FFF72EFC019803B05DF804FB00B583B00C
:101C3000002202A941F8042DFFF774FE019803B0B9
:101C40005DF804FB00F1080343604FF0FF3282604F
:101C5000C360036100230360704700230361704782
:101C600043684B609A688A609A685160996008611D
:101C7000036801330360704730B40D68B5F1FF3F6E
:101C800002D000F1080202E0026904E01A4653683B
:101C90001C68AC42FAD953684B6099608A60516005
:101CA000086103680133036030BC70470369426810
:101CB000816891608268416851605A68824204BFBD
:101CC00082685A60002202611A68013A1A60186834
:101CD0007047000010B51C20FEF7AEFB044620B193
:101CE000002340F8043BFFF7ADFF204610BD2DE96F
:101CF000F843DDF8209060B1064611F07F4F11D017
:101D00004FF0500383F31188BFF36F8FBFF34F8FF2
:101D1000FEE74FF0500383F31188BFF36F8FBFF3DB
:101D20004F8FFEE741B94FF0500383F31188BFF3A3
:101D30006F8FBFF34F8FFEE7984617460C4601F0B2
:101D400059F958B9B9F1000F08D04FF0500383F397
:101D50001188BFF36F8FBFF34F8FFEE700F02CFDAC
:101D60003568B8F1000F0BD12C4214BF01230023BA
:101D700063B117B125EA0404346000F0DBFD3BE0F9
:101D800034EA05030CBF01230023F1E7B9F1000F8A
:101D9000F3D0002F0CBF00214FF08071B8F1000F7D
:101DA00001D041F080614A462143301D00F030FFF0
:101DB00000F0C0FD38B9154B4FF080521A60BFF3E8
:101DC0004F8FBFF36F8F01F03FFA054610F0007F91
:101DD00010D101F0F1FC3568B8F1000F0FD12C42A1
:101DE00014BF012300231BB117B125EA040434609A
:101DF00001F004FD25F07F452846BDE8F88334EA6C
:101E000005030CBF01230023EDE700BF04ED00E054
:101E100040B94FF0500383F31188BFF36F8FBFF3C6
:101E20004F8FFEE770B5054611F07F4F08D04FF099
:101E3000500383F31188BFF36F8FBFF34F8FFEE71B
:101E40000C4601F0B9FC2E6826EA04042C6001F06F
:101E5000D5FC304670BDEFF311834FF0500282F392
:101E60001188BFF36F8FBFF34F8F006883F3118822
:101E70007047F8B540B94FF0500383F31188BFF3B2
:101E80006F8FBFF34F8FFEE7044611F07F4F08D0EE
:101E90004FF0500383F31188BFF36F8FBFF34F8F61
:101EA000FEE70D4600F10C0600F086FC2069236871
:101EB0002B43236086421CD0002506E0216833EACC
:101EC00001010CD03846BE4214D04768026822F0A7
:101ED0007F4312F0806FF1D121680B42F2D012F0F3
:101EE000807F18BF1D43216841F0007100F000FFA2
:101EF000E8E70025236823EA0503236000F01AFDC4
:101F00002068F8BD12F07F4F08D04FF0500383F3E4
:101F10001188BFF36F8FBFF34F8FFEE72DE9F041BC
:101F200006460C4615461F4642B94FF0500383F350
:101F30001188BFF36F8FBFF34F8FFEE701F05AF8A0
:101F400050B9002F47D04FF0500383F31188BFF3EF
:101F50006F8FBFF34F8FFEE700F02EFCD6F80080A6
:101F600021463046FFF785FF48EA040435EA0403BA
:101F700006D1336823EA0503336000F0DBFC1CE084
:101F8000F7B13A4645F0A061301D00F041FE00F087
:101F9000D1FCB8B101F058F9044610F0007F0AD125
:101FA00001F00AFC346835EA040304BF24EA05059D
:101FB000356001F023FC24F07F442046BDE8F08129
:101FC0003468DAE70B4B4FF080521A60BFF34F8F43
:101FD000BFF36F8FDEE700F0EFFB37682146304636
:101FE000FFF747FF3C4305EA04039D42E8D11D4645
:101FF000BFE700BF04ED00E070B5044600F0DCFB75
:102000006368BBB1206904F10C05A84209D04FF008
:102010000076314600F06CFE63685BB12069A8422F
:10202000F7D14FF0500383F31188BFF36F8FBFF3E5
:102030004F8FFEE72046FEF78BFA00F07BFC70BD69
:1020400008B5FFF716FF08BD08B5FFF7E1FE08BDAC
:1020500008B180697047002070478161704700BFF8
:1020600060B141690C4A914211D1806A02F11403B6
:1020700098420ED0B0FA80F0400970474FF05003FC
:1020800083F31188BFF36F8FBFF34F8FFEE70020FC
:1020900070470020704700BF40E60020074B9B6A56
:1020A0001B6833B1054B9A6AD268D2685268DA620B
:1020B0007047024B4FF0FF32DA62704740E6002073
:1020C00008B5134C134E236BBBB101F075FB236CA9
:1020D000DD68281DFFF7EAFDA36C013BA364236BB9
:1020E000013B236301F08AFB286BFEF731FA284697
:1020F000FEF72EFA236B002BE7D1E36C012BE2D91C
:102100004FF080533360BFF34F8FBFF36F8FDAE729
:1021100040E6002004ED00E070B504460E461F4B7B
:10212000D3F8D850D3F8DC000430FFF7BFFD58B91E
:102130001A4BD3F8DC10D3F8E020C86A01218140A3
:1021400022EA0102C3F8E020B4F1FF3F13D02C448F
:10215000124BD3F8DC305C60A54215D80F4DA86A4D
:10216000D5F8DC100431FFF787FDEB6AA34284BF8A
:102170002B46DC6270BD002EE9D00848D0F8DC1098
:102180000431FFF76DFDF5E7044BD3F8E400D3F815
:10219000DC100431FFF770FDECE700BF40E60020E3
:1021A0002DE9F04F83B001900F4698460D9E9500A3
:1021B0002846FEF741F9002800F0C88082465C20DE
:1021C000FEF73AF90446002800F08C80C0F830A0F1
:1021D0002A46A521504619F08DFF043D236B1D446E
:1021E00025F00705002F00F083803B7884F8343019
:1021F0003B7863B13B4604F1340207F10F0113F859
:10220000010F02F8010F187808B18B42F7D10023B3
:1022100084F843300C9B062B28BF06239946E362C3
:10222000E3640027276504F1040B5846FFF715FD0A
:1022300004F11800FFF711FD2461C9F10703A36140
:102240006462676584F8587042460199284601F037
:1022500077FA206006B1346001F0AEFA404B9A6C18
:1022600001329A64D3F8DC30002B45D03C4BD3F8D4
:1022700010314BB93A4BD3F8DC30DA6AE36A9A4250
:102280009CBF374BC3F8DC40354DD5F814310133D2
:10229000C5F814316364E36AD5F8E01001229A406E
:1022A0000A43C5F8E02005F14C0003EB83035946CF
:1022B00000EB8300FFF7D4FC01F0A0FAD5F8103151
:1022C000002B46D0D5F8DC30DA6AE36A9A4244D271
:1022D000244B4FF080521A60BFF34F8FBFF36F8FC4
:1022E000012037E05046FEF733F94FF0FF3031E080
:1022F000002384F834308DE7194BC3F8DC409B6C25
:10230000012BC1D1164E06F14C05D8362846FFF7F1
:1023100099FC1435AE42F9D1114D05F1E807384664
:10232000FFF790FC05F1FC063046FFF78BFC05F14A
:102330001400FFF787FC05F13400FFF783FC284603
:10234000FFF780FCAF62C5F8E4609DE74FF0FF3017
:1023500000E0012003B0BDE8F08F0120FAE700BFE4
:1023600040E6002004ED00E070B5044601F024FAD8
:10237000002C3DD0261D3046FFF798FC80B9E16A5D
:1023800001EB81022C4B03EB8203DB6C43B92A483F
:10239000D0F8E03001228A4023EA0203C0F8E0309E
:1023A000A36A1BB104F11800FFF780FC224BD3F89D
:1023B00014210132C3F81421D3F8DC30A3421BD01E
:1023C0001D4A936C013B9364206BFEF7C1F82046D5
:1023D000FEF7BEF8FFF762FE01F010FA164BD3F8D5
:1023E000103123B1144BD3F8DC30A3420ED070BDB2
:1023F000114BD3F8DC40BDE70F4D314605F13400F9
:10240000FFF72EFC2B6B01332B63E5E70A4BD3F868
:10241000183143B14FF0500383F31188BFF36F8F2E
:10242000BFF34F8FFEE7054B4FF080521A60BFF3AA
:102430004F8FBFF36F8FDAE740E6002004ED00E036
:10244000F8B5E8B104461D4BD3F8DC3083422AD0FE
:1024500001F0B2F96569194B9F6AD3F8E46001F0A5
:10246000CDF9BD4221D0B54221D0144B9D4210D0B0
:10247000134B9D421FD0002D0CBF04200120F8BD3E
:102480004FF0500383F31188BFF36F8FBFF34F8F6B
:10249000FEE7A36A6BB994F85830DBB2012B0CBF8E
:1024A00002200320EBE70020E9E70220E7E7022013
:1024B000E5E70220E3E70420E1E700BF40E6002073
:1024C00074E6002010B5044601F076F924B1E46A00
:1024D00001F094F9204610BD014BD3F8DC40F6E73B
:1024E00040E6002010B5044601F08EFAEFF31183A8
:1024F0004FF0500282F31188BFF36F8FBFF34F8FFD
:102500001CB1E06A83F3118810BD024AD2F8DC40A6
:10251000F7E700BF40E60020F8B5062908D94FF0DC
:10252000500383F31188BFF36F8FBFF34F8FFEE724
:1025300004460D4601F040F914B92D4BD3F8DC40A8
:10254000E36C9D4246D048D9294AD2F8DC20A24209
:102550004BD0274AD2F8DC20D66AAE428CBF002688
:102560000126E76ABB4208BFE562E564A369002B68
:10257000A4BFC5F10705A5611E4A142303FB072369
:1025800062699A421DD1251D2846FFF78FFB40B98D
:102590001749D1F8E0300122BA4023EA0203C1F81A
:1025A000E030E06A124BD3F8E010012282400A4387
:1025B000C3F8E0204C332946142202FB0030FFF719
:1025C0004FFB3EB10C4B4FF080521A60BFF34F8F60
:1025D000BFF36F8F01F012F9F8BD054AD2F8DC6045
:1025E000A64214BF00260126BBE70026B9E700BFBC
:1025F00040E600208CE6002004ED00E078B170B5E4
:1026000004461D4BD3F8DC30834207D001F0D4F8E8
:102610002046FFF725FD58B901F0F0F870BD4FF0E6
:10262000500383F31188BFF36F8FBFF34F8FFEE723
:10263000261D3046FFF73AFBE26A0F4DD5F8E01051
:10264000012393400B43C5F8E03005F14C033146BC
:10265000142000FB0230FFF703FBD5F8DC30E26A00
:10266000DB6A9A42D8D3054B4FF080521A60BFF311
:102670004F8FBFF36F8FCFE740E6002004ED00E0FF
:1026800040B94FF0500383F31188BFF36F8FBFF34E
:102690004F8FFEE72DE9F041044601F0B5F9EFF365
:1026A00011884FF0500383F31188BFF36F8FBFF38E
:1026B0004F8F2046FFF7D4FC58B3174BD3F818318F
:1026C00003BB154DD5F8DC30E66ADB6A9E4234BFA9
:1026D00000260126271D3846FFF7E8FAE26AD5F8FA
:1026E000E010012393400B43C5F8E0304C353946E8
:1026F000142000FB0250FFF7B3FA88F3118830462C
:10270000BDE8F08104F118010448FFF7A9FA00269A
:10271000F3E70026F1E700BF40E6002054E6002082
:1027200000B583B0174B0193002300938022164914
:102730001648FFF735FD012805D0B0F1FF3F17D04F
:1027400003B05DF804FB4FF0500383F31188BFF32F
:102750006F8FBFF34F8F0E4B4FF0FF32DA620122C3
:10276000C3F810210022C3F8D82001F0C5F8E7E72C
:102770004FF0500383F31188BFF36F8FBFF34F8F78
:10278000FEE700BF5CE700207C300208C1200008A3
:1027900040E6002008B54FF0500383F31188BFF3E3
:1027A0006F8FBFF34F8F034B0022C3F8102100F04F
:1027B000F1FF08BD40E60020034AD2F8183101338A
:1027C000C2F81831704700BF40E60020014BD3F833
:1027D000D800704740E6002008B501F015F9024B1B
:1027E000D3F8D80008BD00BF40E60020014B986C2C
:1027F000704700BF40E60020034610B103F13400EB
:102800007047074BD3F8DC30002BF7D14FF0500363
:1028100083F31188BFF36F8FBFF34F8FFEE700BFC5
:1028200040E600202DE9F047414BD3F81831002B4A
:102830006ED13F4BD3F8D8600136C3F8D860CEB91B
:102840009B6A1B6843B14FF0500383F31188BFF3B9
:102850006F8FBFF34F8FFEE7354B9A6AD3F8E410C2
:102860009962C3F8E420D3F820210132C3F8202173
:10287000FFF714FC2E4BDB6AB3420DD900242C4B1E
:10288000D3F8DC20D26A02EB820203EB8203DB6C1A
:10289000022B28BF012442E00024254D4FF0010AFD
:1028A00005F14C091DE0224B4FF0FF32DA62E6E7FA
:1028B0001F4AD362E3E7F86AD5F8E0200AFA00F38A
:1028C0001343C5F8E03000EB8000414609EB80007F
:1028D000FFF7C6F9D5F8DC30FA6ADB6A9A4228BFFE
:1028E0000124AB6A1B68002BDDD0AB6ADB68DF68B4
:1028F0007B689E42DCD307F104084046FFF7D6F917
:10290000BB6A002BD7D007F11800FFF7CFF9D2E749
:10291000074AD2F824310133C2F824310024044B91
:10292000D3F82831002B0CBF20460120BDE8F087EA
:1029300040E60020394BD3F8183143B94FF050032B
:1029400083F31188BFF36F8FBFF34F8FFEE72DE93D
:10295000F04100F031FF314BD3F81821013AC3F8B0
:102960001821D3F81831002B53D12C4B9B6C2BB969
:10297000002400F043FF2046BDE8F0810025274CED
:10298000012604F14C0863690BB3236ADD6805F185
:102990001800FFF78BF92F1D3846FFF787F9E86A13
:1029A000D4F8E02006FA00F31343C4F8E03000EB5B
:1029B0008000394608EB8000FFF752F9D4F8DC308C
:1029C000EA6ADB6A9A42DED3C4F82861DBE70DB11C
:1029D000FFF764FB114BD3F8244164B11E46012577
:1029E000FFF720FF08B1C6F82851013CF8D10B4B86
:1029F0000022C3F82421094BD3F828315BB1084BDE
:102A00004FF080521A60BFF34F8FBFF36F8F0124D6
:102A1000AFE70024ADE70024ABE700BF40E60020AD
:102A200004ED00E010B5B0B104460F4BD3F81831F7
:102A300043B14FF0500383F31188BFF36F8FBFF39F
:102A40004F8FFEE7FFF7B8FE00212046FFF764FB3B
:102A5000FFF770FF38B9054B4FF080521A60BFF393
:102A60004F8FBFF36F8F10BD40E6002004ED00E0F4
:102A7000214BD3F8183123B11F4B0122C3F8282171
:102A800070471D4A0023C2F82831D2F8E030B3FA6B
:102A900083F3DBB2C3F11F0303EB830102EB81027B
:102AA000D26C42B94FF0500383F31188BFF36F8F9C
:102AB000BFF34F8FFEE710B40F4A9900C81802EB1E
:102AC0008000046D646804650246543294420BD061
:102AD000094A03EB830302EB83031B6DDB68C2F837
:102AE000DC305DF8044B704761680348142202FB38
:102AF00003021165ECE700BF40E6002038B504464C
:102B000000F05AFE9CB3251D2846FFF7CFF880B988
:102B1000E16A01EB81022F4B03EB8203DB6C43B9CB
:102B20002C48D0F8E03001228A4023EA0203C0F8A2
:102B3000E030A36A1BB104F11800FFF7B7F829468B
:102B40002448FFF78DF894F85830DBB2012B04BF0E
:102B5000002384F8583000F051FE1E4BD3F810319A
:102B60004BB91C4BD3F8DC30A3420BD038BD194B0A
:102B7000D3F8DC40C7E700F01FFEFFF78FFA00F044
:102B80003DFEEEE7134BD3F81031ABB1114BD3F848
:102B9000183143B14FF0500383F31188BFF36F8FA7
:102BA000BFF34F8FFEE70C4B4FF080521A60BFF31C
:102BB0004F8FBFF36F8FD9E7064B1A689B6C9A4211
:102BC00004D1044B0022C3F8DC20CFE7FFF750FF0D
:102BD000CCE700BF40E6002004ED00E040B94FF034
:102BE000500383F31188BFF36F8FBFF34F8FFEE75E
:102BF00010B50C46054BD3F8DC101831FFF73CF844
:102C000001212046FFF788FA10BD00BF40E60020F2
:102C100040B94FF0500383F31188BFF36F8FBFF3B8
:102C20004F8FFEE703461048D0F8180140B94FF027
:102C3000500383F31188BFF36F8FBFF34F8FFEE70D
:102C400010B5184614460B46074AD2F8DC1043F07C
:102C500000438B61D2F8DC101831FFF701F8012135
:102C60002046FFF759FA10BD40E6002038B5C3688A
:102C7000DC6844B94FF0500383F31188BFF36F8FC2
:102C8000BFF34F8FFEE704F118052846FFF70EF853
:102C9000154BD3F818310BBB251D2846FFF706F856
:102CA000E06A114BD3F8E010012282400A43C3F8D6
:102CB000E0204C3300EB8000294603EB8000FEF758
:102CC000CFFF094BD3F8DC30E26ADB6A9A4283BF5C
:102CD0000120054BC3F82801002038BD29460348D0
:102CE000FEF7BEFFEDE700BF40E6002054E60020FF
:102CF0001E4BD3F8183143B94FF0500383F31188BA
:102D0000BFF36F8FBFF34F8FFEE770B541F0004107
:102D10000160C4680CB3FEF7C9FF261D3046FEF7FC
:102D2000C5FFE36A114DD5F8E01001229A400A432D
:102D3000C5F8E02005F14C0003EB8303314600EBBE
:102D40008300FEF78DFFD5F8DC30E26ADB6A9A4239
:102D500002D90122C5F8282170BD4FF0500383F33A
:102D60001188BFF36F8FBFF34F8FFEE740E600205F
:102D700040B94FF0500383F31188BFF36F8FBFF357
:102D80004F8FFEE710B5044600F016FD044BD3F854
:102D900020212260D3F8D830636000F02FFD10BDF1
:102DA00040E60020034BD3F820210260D3F8D8304E
:102DB0004360704740E60020F8B550B1054689B938
:102DC0004FF0500383F31188BFF36F8FBFF34F8F22
:102DD000FEE74FF0500383F31188BFF36F8FBFF30B
:102DE0004F8FFEE70C4600F0E7FC124BD3F8D810EB
:102DF00068680A1A2368B3F1FF3F17D00D4ED6F862
:102E000020612F68B74201D0884211D9934203D87C
:102E100000232360012405E09B1A23602846FFF766
:102E2000C1FF002400F0EAFC2046F8BD0024F9E7C9
:102E30000124F7E740E60020024B0122C3F82821D5
:102E4000704700BF40E6002008B1806C704700204A
:102E5000704700B18164704770B50C461646054650
:102E6000D8B1256005F134026260EA6A22612A6BFA
:102E7000E2616A6CA260EA6C62610022A261052BC9
:102E80001BD0184AD2F8DC20AA420AD02373032BA5
:102E90000AD0BEB90023238470BD124AD2F8DC5098
:102EA000DFE700232373F4E7FFF786FCAB6A0BB17F
:102EB00002232373FFF73EFDEBE72846FFF7C0FA36
:102EC0002073E6E7286B0378A52B08D1431C191A59
:102ED00013F8012BA52AFAD089082184DCE7002108
:102EE000FAE700BF40E600202DE9F84F0B683BB33E
:102EF0004B685B684B6001F108094B4504BFCB6828
:102F00004B6090460C464B68D3F80CB00546002742
:102F10004FF0010A63685B686360994504BFE3682A
:102F200063606368DE684346524629463046FFF7D1
:102F300093FF01372435B345ECD13846BDE8F88F0F
:102F40000027FAE72DE9F84307460C461646FFF737
:102F500033FC244B9B6CA3423ED8224B03F1C405A7
:102F600003F1380800244FF0010904EBC4004A467D
:102F7000294607EB8000FFF7B7FF0444143D4545A1
:102F8000F3D1184DA96A04EBC400022207EB8000BC
:102F9000FFF7AAFF0444D5F8E41004EBC4000222B2
:102FA00007EB8000FFF7A0FF044404EBC4000422F9
:102FB00005F1340107EB8000FFF796FF044404EBB2
:102FC000C4000322294607EB8000FFF78DFF04446D
:102FD0001EB10023336000E00024FFF7ABFC204665
:102FE000BDE8F88340E60020014BD3F8DC007047D1
:102FF00040E60020064BD3F810313BB1044BD3F828
:103000001831002B0CBF02200020704701207047B0
:1030100040E60020002859D038B50446C26A2C4941
:10302000D1F8DC10C96A8A4246D28169002906DBE0
:103030002749D1F8DC10C96AC1F10701816102EBAF
:103040008202244901EB82026169914206D0204A42
:10305000D2F8DC20D26AE262012036E0251D284643
:10306000FEF724FE88B9E26A02EB8201184B03EBFB
:103070008103DB6C4BB91648D0F8E030012101FA2E
:1030800002F223EA0202C0F8E0201148D0F8DC3056
:10309000DB6AE362D0F8E010012404FA03F20A4389
:1030A000C0F8E0204C3003EB8303294600EB83009B
:1030B000FEF7D6FD204608E0054AD2F8DC20C06CB9
:1030C000D36A98422CBF0020012038BD00207047F1
:1030D00040E600208CE6002000284DD038B504469C
:1030E000284AD2F8DC20824208D04FF0500383F304
:1030F0001188BFF36F8FBFF34F8FFEE7026D42B9A8
:103100004FF0500383F31188BFF36F8FBFF34F8FDE
:10311000FEE7013A0265C06AE16C88422ED07ABBB4
:10312000251D2846FEF7C2FD78B9E06A154A14232A
:1031300003FB0023DB6C43B91146D2F8E0300122D7
:10314000824023EA0203C1F8E030E26CE262C2F19D
:103150000703A3610B4BD3F8E000012404FA02F14A
:103160000143C3F8E0104C332946142000FB023021
:10317000FEF776FD204638BD002070470020FAE7B4
:103180000020F8E740E60020002858D038B5044673
:10319000006D40B94FF0500383F31188BFF36F8F78
:1031A000BFF34F8FFEE7E26C8A4238BF0A46E16AFE
:1031B000914201D0012800D038BD2148D0F8DC0070
:1031C000A04208D14FF0500383F31188BFF36F8FF3
:1031D000BFF34F8FFEE7E262A0690028A4BFC2F1EF
:1031E0000702A261174A142000FB012162698A428A
:1031F000E2D1251D2846FEF759FD78B9E06A104A4C
:10320000142303FB0023DB6C43B91146D2F8E030F2
:103210000122824023EA0203C1F8E030E06A084B51
:10322000D3F8E010012282400A43C3F8E0204C3377
:103230002946142202FB0030FEF712FDBCE770475E
:1032400040E600208CE60020064BD3F8DC20906995
:10325000D3F8DC10D3F8DC20CB6AC3F10703936109
:10326000704700BF40E60020064BD3F8DC302BB19E
:10327000044BD3F8DC20136D01331365014BD3F8F5
:10328000DC00704740E6002038B505460C4600F0EB
:1032900093FA1C4BD3F8DC305B6D33B9194BD3F880
:1032A000DC30012283F85820C4B900F0A7FA00F0FE
:1032B00083FA144BD3F8DC305C6D2CB1DDB9114BC3
:1032C000D3F8DC30621E5A650E4BD3F8DC30002296
:1032D00083F8582000F092FA204638BD1146204667
:1032E000FEF71AFF084B4FF080521A60BFF34F8F62
:1032F000BFF36F8FD9E7034BD3F8DC3000225A6558
:10330000E2E700BF40E6002004ED00E0F8B5074624
:103310000D4614461E4600F04FFA244BD3F8DC301D
:1033200093F85830DBB2022B0CD0204BD3F8DC20C2
:10333000506D20EA07005065D3F8DC30012283F895
:103340005820E6B900F05AFA00F036FA24B1174BCB
:10335000D3F8DC305B6D2360144BD3F8DC3093F88A
:103360005830DBB2022B17D00024104BD3F8DC30DE
:10337000002283F8582000F041FA2046F8BD11469B
:103380003046FEF7C9FE0A4B4FF080521A60BFF379
:103390004F8FBFF36F8FD5E7044BD3F8DC20536D0D
:1033A00023EA050555650124DFE700BF40E600205C
:1033B00004ED00E0F8B540B94FF0500383F31188F5
:1033C000BFF36F8FBFF34F8FFEE704461F461646CD
:1033D0000D4600F0F1F90FB1636D3B6094F8583081
:1033E000DBB2022284F85820042E18D8DFE806F059
:1033F00006030D111300626D15436565012B1BD08B
:10340000012400F0FBF92046F8BD626D01326265CF
:10341000F4E76565F2E7022B3ED06565EEE7626D85
:10342000B2F1FF3FEAD04FF0500383F31188BFF3AE
:103430006F8FBFF34F8FFEE7251D2846FEF736FC42
:10344000E06A174BD3F8E010012282400A43C3F828
:10345000E0204C332946142202FB0030FEF700FC2A
:10346000A36A43B14FF0500383F31188BFF36F8F0A
:10347000BFF34F8FFEE70A4BD3F8DC30E26ADB6A1A
:103480009A420BD9074B4FF080521A60BFF34F8F0F
:10349000BFF36F8F0124B4E70024B2E70124B0E743
:1034A00040E6002004ED00E02DE9F843089E40B915
:1034B0004FF0500383F31188BFF36F8FBFF34F8F2B
:1034C000FEE70446994690460F4600F09DFAEFF35A
:1034D00011854FF0500383F31188BFF36F8FBFF353
:1034E0004F8FB9F1000F02D0636DC9F8003094F826
:1034F0005830DBB2022284F85820B8F1040F18D8F3
:10350000DFE808F006030D111300626D17436765CD
:10351000012B1BD0012085F31188BDE8F883626D73
:1035200001326265F4E76765F2E7022B46D0676512
:10353000EEE7626DB2F1FF3FEAD04FF0500383F344
:103540001188BFF36F8FBFF34F8FFEE7A36A43B1BC
:103550004FF0500383F31188BFF36F8FBFF34F8F8A
:10356000FEE7184BD3F8183113BB271D3846FEF77A
:103570009DFBE06A134BD3F8E010012282400A431E
:10358000C3F8E0204C333946142202FB0030FEF72A
:1035900067FB0C4BD3F8DC30E26ADB6A9A420FD946
:1035A0000EB1012333600120064BC3F82801B2E7B6
:1035B00004F118010448FEF753FBEAE70020AAE7EC
:1035C0000120A8E740E6002054E60020F8B540B905
:1035D0004FF0500383F31188BFF36F8FBFF34F8F0A
:1035E000FEE704460D4600F00FFAEFF311874FF0A7
:1035F000500383F31188BFF36F8FBFF34F8F94F89D
:103600005830DBB2022284F85820626D01326265C4
:10361000012B02D087F31188F8BDA36A43B14FF0A4
:10362000500383F31188BFF36F8FBFF34F8FFEE713
:10363000164BD3F8183113BB261D3046FEF736FB68
:10364000E06A124BD3F8E010012282400A43C3F82B
:10365000E0204C333146142202FB0030FEF700FB21
:103660000A4BD3F8DC30E26ADB6A9A42D2D90DB158
:1036700001232B60054B0122C3F82821CAE704F17E
:1036800018010348FEF7ECFAEAE700BF40E6002025
:1036900054E6002010B5044678B100F08DF894F897
:1036A0005830DBB2022B03BF002384F858300124CA
:1036B000002400F0A3F8204610BD024BD3F8DC40F4
:1036C000EBE700BF40E60020000000000000000023
:1036D00082B0002301930D4B1B68B3F1FF3F08D06C
:1036E0004FF0500383F31188BFF36F8FBFF34F8FF9
:1036F000FEE74FF0500383F31188BFF36F8FBFF3E2
:103700004F8F019B002BFCD002B0704704000020BB
:10371000D3480068006880F308884FF0000080F309
:10372000148862B661B6BFF34F8FBFF36F8F00DFAF
:1037300000BFDFF83003016841F470010160704799
:103740004FF0807340F8043C21F0010140F8081C60
:10375000054B40F80C3C40F8202C6FF0020340F879
:10376000243C4438704700BFD1360008084B196824
:103770000868B0E8F04F80F30988BFF36F8F4FF00F
:10378000000080F311887047AFF30080AFF3008032
:103790001CE70020074B1B68B3F57A7F08D04FF079
:1037A000500383F31188BFF36F8FBFF34F8FFEE792
:1037B000704700BF040000204FF0500383F31188CE
:1037C000BFF36F8FBFF34F8F0A4A13680133136043
:1037D000012B00D07047084B1B6813F0FF0FF9D086
:1037E0004FF0500383F31188BFF36F8FBFF34F8FF8
:1037F000FEE700BF0400002004ED00E0094B1B6859
:1038000043B94FF0500383F31188BFF36F8FBFF3B9
:103810004F8FFEE7013B034A13600BB983F3118816
:10382000704700BF04000020EFF30980BFF36F8FE3
:10383000174B1A681EF0100F08BF20ED108A20E900
:10384000F04F10602DE909004FF0500080F311880F
:10385000BFF34F8FBFF36F8FFFF70AF94FF00000F0
:1038600080F3118809BC19680868B0E8F04F1EF0B1
:10387000100F08BFB0EC108A80F30988BFF36F8F78
:10388000704700BFAFF30080AFF30080AFF300805C
:103890001CE7002008B54FF0500383F31188BFF3F5
:1038A0006F8FBFF34F8FFEF7BDFF18B1034B4FF083
:1038B00080521A60002383F3118808BD04ED00E0F4
:1038C000084A0023136008490B60084B1B6808492D
:1038D000A1FB03139B09013B06490B6007231360FF
:1038E000704700BF10E000E018E000E05400002046
:1038F000D34D621014E000E03B4B1A683B4B9A42F8
:103900000DD0394B1A683A4B9A4211D14FF05003FF
:1039100083F31188BFF36F8FBFF34F8FFEE74FF034
:10392000500383F31188BFF36F8FBFF34F8FFEE710
:1039300010B582B02F4B1A78D2B20192FF221A70C2
:103940001B78DBB28DF803309DF803302A4A03F070
:1039500050031370072353609DF8033013F0800F5A
:1039600012D0062300E00B469DF803205200D2B28D
:103970008DF803209DF80320591E12F0800FF2D11C
:103980001D4A5360032B08D04FF0500383F3118876
:10399000BFF36F8FBFF34F8FFEE71B0203F4E063AB
:1039A000154A5360019BDBB2124A1370134B1A681D
:1039B00042F470021A601A6842F070421A60FFF70F
:1039C0007FFF00240E4B1C60FFF7B3FE0D4A136807
:1039D00043F040431360FFF79BFEFFF749F8FFF702
:1039E00077FE204602B010BD00ED00E071C20F412D
:1039F00070C20F4100E400E06CE7002020ED00E021
:103A00000400002034EF00E0EFF305830F2B0FD903
:103A1000104A9B5CDBB2104A12789A4208D94FF0E8
:103A2000500383F31188BFF36F8FBFF34F8FFEE70F
:103A30000A4B1B6803F4E063074A5268934208D9B3
:103A40004FF0500383F31188BFF36F8FBFF34F8F95
:103A5000FEE77047F0E300E06CE700200CED00E0CB
:103A600008ED00E088ED00E02DE9F04190B0002283
:103A700001923D4B196B41F004011963196B01F080
:103A80000401019101990292196B41F0020119633D
:103A9000196B01F00201029102990392196B41F036
:103AA00002011963196B01F0020103910399049259
:103AB000196B41F002011963196B01F002010491C5
:103AC00004990592196B41F001011963196B01F01A
:103AD0000101059105990692196B41F004011963E2
:103AE000196B01F00401069106990792196B41F0D8
:103AF00002011963196B01F00201079107990892FD
:103B0000196B41F002011963196B01F00201089170
:103B100008990992196B41F001011963196B01F0C1
:103B20000101099109990A921A6B42F002021A6383
:103B30001B6B03F002030A930A9B0C4C04F114055F
:103B4000A8460127022634F8023B0B930C970D96EA
:103B50000E960BA955F8040B0FF0B6F84445F2D1B8
:103B600010B0BDE8F08100BF00380240080000201E
:103B700070B5074E06F1140435463C3635F8021B85
:103B800054F8040B0FF092F9B442F7D170BD00BFA6
:103B90000800002010B5054B03EB800401F0010282
:103BA00033F8101060690FF03BFA10BD08000020D8
:103BB00038B50546064B1880002445FA04F101F09B
:103BC00001012046FFF7E6FF01340A2CF5D138BD8C
:103BD00060E80020014B1888704700BF60E80020B3
:103BE00010B5044600F001010320FFF7D3FFC4F332
:103BF00040010420FFF7CEFFC4F380010520FFF74A
:103C0000C9FF10BD10B5044600F001010020FFF708
:103C1000C1FFC4F340010120FFF7BCFFC4F38001E2
:103C20000220FFF7B7FF10BD014B1870704700BFAF
:103C30005EE80020014B187840B270475EE8002033
:103C4000034A13785BB25B425BB21370704700BFEC
:103C50005EE800202DE9F0438BB000240094474D2E
:103C60002B6B43F004032B632B6B03F004030093D3
:103C7000009B01942B6B43F004032B632B6B03F02D
:103C800004030193019B02942B6B43F020032B63ED
:103C90002B6B03F020030293029B012705974FF043
:103CA0000309CDF818900794DFF8F48005A9404681
:103CB0000FF00AF803946B6C43F480736B646B6CC5
:103CC00003F480730393039B2D4E2E4B336074607B
:103CD000B4603461347686F820407462F462B46271
:103CE000F460F76186F830407461304611F0CBFB28
:103CF00025490A230B604F608C60CC60304612F07F
:103D00009EF808260596CDF81890079405A9404618
:103D10000EF0DAFF04946B6C43F400736B646B6C0D
:103D200003F400730493049B184D194B2B606C60D3
:103D3000AC602C612C7685F820406C62EC62AC6241
:103D4000EC60EF6185F830406C61284611F09BFB18
:103D500010490D230B604F608C60CC60284612F038
:103D60006EF805960C4B069307970223089305A956
:103D70000A480EF0A9FF0BB0BDE8F08300380240FE
:103D8000BCE800200020014004E9002064E8002095
:103D900000210140ACE80020000021100014024086
:103DA0000008024038B50B4D012128460FF07EF87F
:103DB000094C636C23F480736364082128460FF078
:103DC00075F8636C23F400736364082103480FF0F3
:103DD0006DF838BD0008024000380240001402406F
:103DE0002DE9F04788B000260096544B1A6B42F03C
:103DF00010021A631A6B02F010020092009A0196E8
:103E00001A6B42F020021A631A6B02F02002019230
:103E1000019A02961A6B42F010021A631A6B02F0B2
:103E200010020292029A03961A6B42F020021A6361
:103E30001A6B02F020020392039A04961A6B42F066
:103E400020021A631A6B02F020020492049A05966B
:103E50001A6B42F008021A631A6B02F0080205920C
:103E6000059A06961A6B42F020021A631A6B02F04A
:103E700020020692069A07961A6B42F020021A63F5
:103E80001B6B03F020030793079B2D4C4FF400633B
:103E9000236001256560A5600227E760DFF8A8A020
:103EA000214650460EF010FF4FF4804323606560BA
:103EB000A560E760DFF89480214640460EF004FFDD
:103EC0004FF40059C4F800906560A560E760214692
:103ED00050460EF0F9FE4FF4004AC4F800A06560A9
:103EE000A560E760214640460EF0EEFE20232360E9
:103EF0006660A560E760214640460EF0E5FEC4F826
:103F000000A06660A560E76021460E480EF0DCFE6A
:103F10004FF4805323606660A560E7602146404609
:103F20000EF0D2FEC4F800906660A560E7602146FE
:103F300040460EF0C9FE08B0BDE8F08700380240E8
:103F400014E90020000C024000100240001402405E
:103F500008B5034B00221A60FFF742FF08BD00BFFF
:103F600074E7002038B5144D4FF4006128460EF078
:103F70009DFF124C4FF4804120460EF097FF4FF406
:103F8000005128460EF092FF4FF4004120460EF0FB
:103F90008DFF202120460EF089FF202108480EF0D9
:103FA00085FF4FF4805120460EF080FF4FF4005102
:103FB00020460EF07BFF38BD001002400014024086
:103FC000000C024008B5034B06221A60FFF7CAFF37
:103FD00008BD00BF74E7002070B50446224E0122E0
:103FE0004FF4006130460FF01BF8204D01224FF4D2
:103FF000804128460FF014F801224FF4005130465A
:104000000FF00EF801224FF4004128460FF008F897
:1040100014F0010F0CD114F0020F10D114F0040FA2
:1040200014D114F0080F18D1114B00225A6005E08A
:1040300000224FF4006130460EF0F2FF70BD002206
:104040004FF4804109480EF0EBFFF7E700224FF4F0
:10405000005105480EF0E4FFF0E700224FF4004164
:1040600002480EF0DDFFE9E70010024000140240B4
:1040700074E7002008B5202116480EF0CBFF18B9D0
:104080000120154B586008BD4FF4004113480EF055
:10409000C1FF78B14FF480510E480EF0BBFF70B1F4
:1040A0004FF400510B480EF0B5FF68B100200A4BE9
:1040B0005860E8E7084B01225A600220E3E7064B0C
:1040C00001225A600420DEE7034B01225A600820D7
:1040D000D9E700BF0014024074E70020000C024042
:1040E000014B5868704700BF74E70020024B1878F6
:1040F000FF221A70704700BF44000020024B187A5C
:1041000000221A72704700BF74E70020F0B490B02C
:10411000354B5B7A03F00F02013A072A41D8DFE8FA
:1041200002F0064940044040404B032645E01B098D
:10413000013B072B08D8DFE803F018150710070725
:10414000070401260427A6B9274B00225A609A7259
:1041500010B0F0BC70470026F4E701260327F2E711
:104160000026FBE701260227EDE701263746EAE7AE
:1041700001276C461D4D0FCD0FC40FCD0FC40FCDC1
:104180000FC495E80F0084E80F00174B01225A6016
:1041900006EB870610AA02EB860656F8542C9A7294
:1041A000D6E71B09042BDBD0082BD4D0022BCBD1B4
:1041B0000026D8E7022600E004261B09013B072B56
:1041C000C2D801A252F823F07141000867410008EB
:1041D000494100085D410008494100084941000883
:1041E000494100084541000874E70020582C0208A6
:1041F00010B53E4B1B6853B93C4B01221A603B4C37
:104200000120E072FFF7E8FE0523236007E0012BA1
:10421000F5D0022B0CD0354B1B68032B10D0334B41
:104220001B68042B2DD0314B1B68052B0FD010BD04
:104230002E4C0220E072FFF7CFFE05232360F2E749
:104240002A4C0420E072FFF7C7FE05232360FFF726
:1042500011FF264B1873DA7A5B7B934219D010B1A9
:10426000224B9B7BDBB1214B00225A725A601F4BC1
:10427000DB7A012B2BD0022B32D11C4B03221A608C
:10428000D5E71A4C0820E072FFF7A6FE052323604D
:10429000DDE70028E4D1154B00229A73E3E7134CC5
:1042A00002F00F0242EA00106072FFF72FFF0123B5
:1042B0006360A373E37A6373A37A0D4A1370092BC7
:1042C00094BF30333733DBB2084A1372CFE7074A63
:1042D00002211160082BAAD1044B01221A60A6E723
:1042E000042BF7D1014B04221A60A0E774E70020E9
:1042F0004400002008B5034B00221A70FFF728FE87
:1043000008BD00BFDCE7002008B5FFF75BFE08BD75
:1043100008B5FFF76DFF08BD08B5FFF7E1FE08BD62
:1043200008B5FFF7E3FE08BD08B5FFF7E7FE08BDD7
:1043300008B5FFF78FFC08BD08B5FFF733FD08BDD2
:1043400008B5082103480EF065FEB0FA80F0400978
:1043500008BD00BF0014024038B5084811F074F9D8
:10436000064D0A242146284611F02AFA0028F9D1E0
:10437000024811F06EFC80B238BD00BFBCE80020DE
:1043800038B5084811F060F9064D0A242146284640
:1043900011F016FA0028F9D1024811F05AFC80B247
:1043A00038BD00BF64E8002008B51DF01FFF0022E3
:1043B0000D4B1DF0DDFD9FED0A1B41EC100B16F0BF
:1043C000ABFC0022094B51EC100B1DF089FF0022C1
:1043D000054B1DF0CFFD1EF05BFA80B208BD00BF9B
:1043E00000000000000008400000A0400000903ED7
:1043F00008B5FFF739FB08BD08B5FFF7B9FB08BDE5
:1044000008B5FFF7D9F9FFF7E5FB80F4007080B23B
:10441000FFF7CEFBFFF7F2F908BD10B50446FFF732
:10442000CBF9FFF7D7FBE40004F0380420F03800A4
:10443000204380B2FFF7BCFBFFF7E0F910BD10B5D9
:104440000446FFF7B9F9FFF7C5FB20F0070004F0B9
:104450000704204380B2FFF7ABFBFFF7CFF910BD95
:1044600010B586B0002400940F4B1A6B42F0040282
:104470001A631B6B03F004030093009B0B4B029326
:10448000039406A94FF4005341F8143D08480EF078
:104490001BFC22460A21282005F03AFF282005F0BF
:1044A00069FF06B010BD00BF0038024000001110C7
:1044B00000080240704708B54FF4005101480EF063
:1044C000A9FD08BD0008024008B54FF4005103489B
:1044D0000EF0ECFC282005F05BFF08BD0008024050
:1044E00008B5FFF7BDFF08BD08B5FFF7EDFF08BD34
:1044F000B0F5005F00D0704700B583B00023019392
:10450000094B186860B101A9FCF752FF019B3BB150
:10451000064B4FF080521A60BFF34F8FBFF36F8F7F
:1045200003B05DF804FB00BF30E9002004ED00E0BB
:1045300008B54FF400500EF096FD08BD08B54FF4D5
:10454000005102480EF066FD08BD00BF00080240A1
:10455000F8B5334B03F10F01002203F8012F8B4212
:10456000FBD10120FCF77AFE2E4B186000220421BB
:104570000A20FCF743FD2C4B1860FFF739FFFFF7CB
:10458000B9FEFFF7ADFF4FF0500383F31188BFF37F
:104590006F8FBFF34F8F16F03BF9032200210120EC
:1045A000FCF72CFD214B1860022016F093F9012036
:1045B00016F090F9042016F071F900231C4A1370CC
:1045C0001C4A137083F31188184C0A261A4F05E011
:1045D000022016F063F90120FEF724FA2068002873
:1045E000F9D03146FCF7FAFF0128F4D128252946F5
:1045F0002068FCF7F3FF0128F9D0FFF79FFF0028A0
:10460000E9D03B78B3FA83F35B093B70062016F0E0
:1046100061F93B78002BDBD1042016F03FF9DAE793
:104620003BE90020E0E7002000E8002030E900201E
:1046300050E9002051E90020DCE700202DE9F04797
:1046400082B06420FEF7EEF94FF0FF38C146002536
:104650005B4E5C4FDFF884A156E04FF47A71386806
:10466000FCF7BCFF0220FEF7DDF9032D1DD0FFF79C
:104670004FFEFFF759FE544B1870E0B9534B1B78AF
:10468000002B00F09A80A3F13002162A63D8DFE8ED
:1046900002F01D6262626262626262626262626211
:1046A00062626250565C626240000025474B1D709A
:1046B000474B1D70DBE7012016F028F9434B1978B2
:1046C000434A1170404A12781A70D7E75FFA89F9A5
:1046D000B9F1030F9CBF09F101095FFA89F44FFAA0
:1046E00084F9601CC0B2FFF798FE384B1978384A3D
:1046F000117000221A7000231A4619463868FCF718
:10470000C4FC0A20FEF78EF93478002CA5D00325CE
:10471000F7E75FFA88F8B8F1030F9CBF08F10108CA
:104720005FFA88F44FFA84F8601CC0B2FFF787FE86
:10473000DBE70221274B1868FDF79BFBD5E7042137
:10474000244B1868FDF795FBCFE70121214B186832
:10475000FDF78FFBC9E7A3F13102D2B2082AC4D812
:10476000B9F1000FC1DBB8F1000FBEDB313B112204
:104770008DF804208AFB0312A2EBE37202EB4201E4
:104780005B1A09EB49094B448DF8053008EB4808E2
:1047900042448DF80620104B186820B101230A22EC
:1047A00001A9FCF772FC0020FFF737FE0020FFF79D
:1047B00046FE4FF0FF38C14697E700259BE700BF54
:1047C000DCE70020E0E7002038E9002050E9002085
:1047D00051E9002014E8002000E800205655555506
:1047E00003289ABF0130C0B20020704710B400F116
:1047F0000E03044613F8012D5A70A342FAD101703A
:104800005DF8044B7047431E0E30002203F8012F61
:104810008342FBD1704770B50546FEF7CDFF6C1E95
:104820000E35074E14F8011F304616F0E9F9AC4278
:10483000F8D1044816F0E4F9FEF7E0FF70BD00BFC0
:104840008430020888300208F0B4461E00F10E07DA
:104850003346002401E0BB4206D013F8015F002D6F
:10486000F9D00134E4B2F6E7944228BF14464CB1C3
:104870000139013C50FA84F016F8013F01F8013F7C
:104880008642F9D1F0BC704770B584B006461A4A2A
:1048900001AB07CA03C323F8022B120C1A700B20BA
:1048A000FBF7CAFD0546431E044600F10A0100223B
:1048B00003F8012F8B42FBD10B2229463046FFF72C
:1048C000C3FF2A789DF80E309A4210D10DF10E03E5
:1048D00001A814F8011F13F8012D914207D183425A
:1048E000F7D12846FBF734FE012004B070BD2846FE
:1048F000FBF72EFE0020F8E7982C020870B584B074
:1049000006466C46174B0FCB07C423700D20FBF7F0
:1049100093FD0546431E044600F10C01002203F8F6
:10492000012F8B42FBD10D2229463046FFF78CFF29
:104930002A789DF80C309A420FD103AB684614F8E0
:10494000011F13F8012D914207D18342F7D1284668
:10495000FBF7FEFD012004B070BD2846FBF7F8FD13
:104960000020F8E7A42C0208F0B583B007463423F2
:104970008DF800308DF8013035238DF802308DF838
:1049800003308DF804308DF8053033238DF8063070
:104990008DF807300820FBF74FFD0646441E0546FC
:1049A000C21D002304F8013F9442FBD10822314686
:1049B0003846FFF749FF3378332B0FD10DF106034B
:1049C00013F8012915F8011F914207D1A542F7D12B
:1049D0003046FBF7BDFD012003B0F0BD3046FBF7CC
:1049E000B7FD0020F8E7F0B583B0074633238DF814
:1049F00000308DF8013035238DF802308DF803300A
:104A00008DF804308DF8053038238DF806308DF898
:104A100007300820FBF710FD0646441E0546C21D60
:104A2000002304F8013F9442FBD108223146384666
:104A3000FFF70AFF3378382B0FD10DF1060313F877
:104A4000012915F8011F914207D1A542F7D130463F
:104A5000FBF77EFD012003B0F0BD3046FBF778FD8B
:104A60000020F8E770B584B0064601AB194A07CAC2
:104A700003C323F8022B120C1A700B20FBF7DCFC8B
:104A80000546431E044600F10A01002203F8012FE7
:104A90008B42FBD10B2229463046FFF7D5FE2A7800
:104AA0009DF80E309A4210D10DF10E0301A814F8B2
:104AB000011F13F8012D914207D18342F7D12846F7
:104AC000FBF746FD012004B070BD2846FBF740FD12
:104AD0000020F8E7B42C02082DE9F04182B06420F0
:104AE000FDF7A0FFAA48FFF78EFE0025A94EAA4FAA
:104AF000DFF8BC821BE04FF47A713868FCF76EFD7A
:104B00000220FDF78FFFBDB1FFF702FCFFF70CFCA1
:104B100088F80000D0B9A14B197811BB00231A46C0
:104B200019463868FCF7B1FA0A20FDF77BFF3478A4
:104B3000012CE0D00025F7E70023984A1370984A2B
:104B400013709348FFF75FFE2546DDE7012015F05F
:104B5000DDFE924B1978924A117098F800201A7075
:104B6000D9E78B48FFF742FE6B1E052B00F28581CB
:104B7000DFE813F0F900A3004D0006008001CD012D
:104B8000834B1B78002B00F06B81814B5C780034E9
:104B900018BF01247E4B9B78002B40F06E81814B27
:104BA00003F10B0113F8012F002A40F066819942AE
:104BB000F8D1002C00F06181754B5B78313BDBB2A2
:104BC000042B00F24F81724B1B78313BDBB2042B7C
:104BD00000F24C8140238DF804306D4A5378313B0C
:104BE00003EB43038DF805301378313B03EB4303AC
:104BF0008DF806306C4B186820B101230A2201A9F8
:104C0000FCF743FA6248FFF7FEFD254635E1604BAD
:104C10001B78002B00F014815D4B5B78002B00F0BB
:104C200011815B4B9C78003418BF0124584BDB7812
:104C3000002B40F022815D4B03F10A0113F8012F94
:104C4000002A40F01A818B42F8D1002C00F0158127
:104C50004F4B9B78303BDBB2032B00F2F5804C4B83
:104C60005B78313BDBB2042B00F2F280484B1B78BF
:104C7000313BDBB2042B00F2EF80454A9378303BA6
:104C800043F030038DF804305378313B03EB43039A
:104C90008DF805301378313B03EB43038DF8063074
:104CA000414B186820B101230A2201A9FCF7EDF954
:104CB0003748FFF7A8FD2546DFE0354B1B78002B72
:104CC00000F0AE80324B5B78002B00F0AB80304BB5
:104CD0009C78003418BF01242D4BDB78002B40F06A
:104CE000CC80324B03F10A0113F8012F002A40F067
:104CF000C4808B42F8D1002C00F0BF80244B9B78FD
:104D0000303BDBB2032B00F28F80214B5B78313BD1
:104D1000DBB2042B00F28C801D4B1B78313BDBB2E5
:104D2000042B00F289801A4A9378303B43F0200329
:104D30008DF804305378313B03EB43038DF8053095
:104D40001378313B03EB43038DF80630164B18689C
:104D500020B101230A2201A9FCF797F90C48FFF7BB
:104D600052FD254689E00D4B1B78462B22D00B4B7C
:104D70001B78442B24D0094B1B78302B26D00448B9
:104D8000FFF782FD40B30248FFF73DFD022574E0C6
:104D90003CE90020DCE70020E0E7002050E90020AB
:104DA00051E900203EE9002000E800203FE9002012
:104DB00038E900200221794B1868FDF75AF8D6E748
:104DC0000421764B1868FDF754F8D4E70121734BA2
:104DD0001868FDF74EF8D2E77148FFF78FFD20B154
:104DE0006F48FFF710FD032547E06D48FFF7BCFD56
:104DF00020B16B48FFF707FD04253EE06848FFF748
:104E0000F2FD20B16648FFF7FEFC052535E0644859
:104E1000FFF728FE88B36248FFF7F5FC06252CE073
:104E2000002459E7002457E75D48FFF7ECFC6CE7E6
:104E30005B48FFF7E8FC6FE75948FFF7E4FC72E7CF
:104E40000024F3E60024F1E65548FFF7DCFC06E712
:104E50005348FFF7D8FC09E75148FFF7D4FC0CE7AB
:104E6000002497E64E48FFF7CEFCACE64C48FFF72F
:104E7000CAFCAFE64A4B197831B94A4B19784A4A0D
:104E8000117000221A7049E65B78002BF5D1474B70
:104E900003F10C0013F8012F002AEED19842F9D14A
:104EA000A1F13003DBB2012B0CD83D4B1B78303B1A
:104EB00013F0FF030AD0012B14D03948FFF7A3FCED
:104EC0002546DAE73648FFF79EFCEEE7384B1868D0
:104ED000FDF714FE0120FDF7A5FD364B1868FDF720
:104EE0008DFBEAE7344B1868FDF708FE0120FDF75B
:104EF00099FD4FF0500383F31188BFF36F8FBFF319
:104F00004F8FFFF719FA002383F31188D5E7244B5D
:104F100019780029B1D05B78002BAED1234B03F177
:104F20000C0013F8012F002AA7D19842F9D1A1F162
:104F30003003DBB2012B0CD8194B1B78303B13F03C
:104F4000FF030AD0012B14D01548FFF75CFC25465F
:104F500093E71348FFF757FCEEE7164B1868FDF789
:104F6000CDFD0120FDF75EFD114B1868FDF746FBF6
:104F7000EAE74FF0500383F31188BFF36F8FBFF35D
:104F80004F8FFFF7D5F9002383F311880120FDF738
:104F900049FD094B1868FDF731FBD5E714E80020FF
:104FA0003CE9002050E9002051E900203DE90020C3
:104FB0000CE80020F8E70020D4E7002070B582B0AC
:104FC0000120FDF72FFDFCF785FE504B18601D46B4
:104FD00001244F4E33E0022851D004285DD001282F
:104FE0001DD032684B4B03CB1060516019889B7801
:104FF00011819372FF212868FCF70AFF1CE010283A
:10500000EFD13268434B03CB1060516019889B7815
:105010001181937210212868FCF7FAFE0CE03268C7
:105020003D4B03CB1060516019889B7811819372BE
:1050300021462868FCF7ECFE2046FDF7F3FC05232B
:10504000009300232246FF212868FCF750FE082821
:1050500031D0C0D920283CD0D1D9402847D0802891
:10506000BFD132682D4B03CB1060516019889B78FB
:105070001181937280212868FCF7CAFEDCE7326850
:10508000274B03CB1060516019889B781181937274
:1050900002212868FCF7BCFECEE73268214B03CB27
:1050A0001060516019889B781181937204212868DF
:1050B000FCF7AEFEC0E732681B4B03CB10605160BB
:1050C00019889B781181937208212868FCF7A0FE4B
:1050D000B2E73268154B03CB1060516019889B789A
:1050E0001181937220212868FCF792FEA4E73268B0
:1050F0000F4B03CB1060516019889B78118193721C
:1051000040212868FCF784FE96E700BFFCE70020FA
:1051100058E90020BC3002088C300208E030020858
:1051200098300208A4300208B0300208C8300208E3
:10513000D430020810B400F13C04002100230268BE
:10514000D15401330F2BFAD10430A042F6D15DF8CF
:10515000044B70472DE9F04383B00A20FDF762FC51
:10516000FCF7B8FD394B18601D46394EDFF8E89062
:10517000DFF8E880374F1DE040283DD0802810D16F
:1051800042F21073338080212868FCF741FE044608
:1051900007E04FF4FA73338008212868FCF738FEE3
:1051A000044614F0010F30D114F0020F37D114F07F
:1051B000040F3FD10523009300230122FF2128681B
:1051C000FCF795FD044620280DD0D5D80828E0D05E
:1051D0001028E6D14FF47A73338010212868FCF749
:1051E00017FE0446DDE74FF4FA6333802021286878
:1051F000FCF70EFE0446D4E741F2883333804021A9
:105200002868FCF705FE0446CBE7D9F80000FFF755
:1052100091FF01212868FCF7FBFD0446C4E7D8F89C
:105220000000FDF76BFC0120FDF7FCFB3868FDF783
:10523000E5F9BCE73868FDF761FC0120FDF7F2FBFA
:10524000D8F80000FDF7DAF9B4E700BF14E8002051
:10525000E8E700200CE8002004E80020F8E7002040
:1052600038B50546FEF7A8FA287838B1002415F0BD
:10527000E5FB0134E4B2285D0028F8D1FEF7BEFA60
:1052800038BD2DE9F04F85B0FFF7B2F80F20FBF7DE
:10529000D3F8704D28600F20FBF7CEF86E4C2060DD
:1052A0000F20FBF7C9F86D4B18600F20FBF7C4F80F
:1052B0006B4B1860FEF780FA2A686A4B03CB1060CC
:1052C000516019889B78118193722268664B03CBD9
:1052D0001060516019889B7811819372FEF78EFAE5
:1052E0003C20FBF7A9F8614B186000241E460F25EF
:1052F00037682846FBF7A0F8385104343C2CF7D126
:1053000000235A48194600220468E458A154013287
:105310000F2AF9D104333C2BF5D1DFF84091DFF8A7
:10532000408147E0D9F80000FFF79AFF3046FFF7C9
:1053300097FF01340F2C18D02F462B681B5D7BB9CB
:10534000D8F80000FFF78CFF3046FFF789FF3B6875
:105350001B5D002BE6D1D8F80000FFF781FFE5E7E1
:10536000D9F80000FFF77CFFEEE74148FFF778FF30
:105370000BF1FF3B1BF0FF0B01D00024DCE70435F1
:10538000554502D04FF0020BF7E728221E2139487D
:1053900015F036FC029B53F8040F1C460293FBF7F2
:1053A000D7F8019A9442F5D10398FBF7D1F8012080
:1053B000FDF738FB304B18680028F8D00A21FCF7BD
:1053C0000DF90128F3D12D4815F01AFC2C4815F0E1
:1053D00017FCFFF715F8FEF7EFF91E4B1968D9F81F
:1053E000000016F085FF1C4B1968D8F8000016F075
:1053F0007FFFFEF703FA3C20FBF71EF80390031F24
:105400000293054600F1380601930F242046FBF76E
:1054100013F8019B43F8040F0193B342F6D1FEF752
:10542000CBF9039B03F13C069A46104CAAEB05000E
:10543000002322681258D15CDAF80020D1540133DD
:105440000F2BF6D10AF1040A5645EFD1FEF7D6F933
:105450000C4E97E758E9002060E9002054E900204D
:105460005CE90020BC3002088C30020804E800200F
:1054700088300208FC300208D8E70020EC3002082F
:10548000F4300208F830020808B50020FDF736FBBA
:105490006420FDF7C7FA084D0026084C02E020887A
:1054A000FDF7C0FA28680028F9D033463246314665
:1054B000FBF7EBFDF3E700BFD8E70020E8E70020AB
:1054C000F0B500EB820C4FF0FF3500201AE0BEF182
:1054D000000F05D00E2C0AD902E05EB2012E0EDCC0
:1054E00001330134DEB2012EF1D00E2CF5D80E2F8F
:1054F000F3D85CF82560365D3044C0B2EDE7013585
:10550000022D05D04C1E0023AF184FFA85FEE9E7A7
:10551000F0BD30B401F13C0500230A68D45C026898
:10552000D45401330F2BF8D104310430A942F3D104
:1055300030BC70472DE9F04F85B001903C20FAF760
:105540007BFF0090A0F10408064600F13805C34631
:105550000F242046FAF770FF4BF8040FAB45F8D143
:10556000019B1D460027B9464FF0010ACDF808807F
:10557000CDF80CB09B4621E00238C0B20128336858
:1055800094BF03F804A003F8049001340F2C10D04A
:10559000424661B25846FFF793FF2B681B5D012B13
:1055A000EAD0032833680CBF03F804A003F8049082
:1055B000EBE70137043604350F2F03D000244FFAF0
:1055C00087F8E5E7DDF80880DDF80CB0FEF7F4F8C1
:1055D00000990198FFF79DFFFEF710F958F8040FA6
:1055E000FAF7B6FFD845F9D10098FAF7B1FF05B040
:1055F000BDE8F08F50F82220003318BF0123535428
:1056000070472DE9F041054600F13C080B4E0C4F68
:1056100000242B681B5D002B14BF23212021304662
:1056200015F0EEFA01340F2CF3D1384615F0E8FAF4
:1056300004354545ECD1BDE8F08100BF08310208D2
:1056400088300208F0B4CE1C00EB8303521A1331E9
:105650000EE0B44207D014F8015F002DF9D01F68A6
:105660002744BD54F5E704360433043A8E4201D092
:10567000341FF0E7F0BC704710B59DF80840013BBF
:10568000032B06D8DFE803F0020623402346FFF78A
:10569000B1FF10BD012C12D04CB1022CF9D1134630
:1056A0000A461E491E480068FFF7CCFFF1E7134683
:1056B0000A461C491A480068FFF7C4FFE9E7134689
:1056C0000A46194916480068FFF7BCFFE1E7012CBC
:1056D00012D04CB1022CDCD113460A4613491048B3
:1056E0000068FFF7AFFFD4E713460A4610490C489D
:1056F0000068FFF7A7FFCCE713460A460D490848A4
:105700000068FFF79FFFC4E7002CC2D113460A468A
:10571000094903480068FFF795FFBAE7E02C020843
:1057200004E80020C02C0208D02C0208102D02082A
:10573000F02C0208002D0208202D020870B584B05C
:10574000032200210120FBF759FC2B4B1860032298
:1057500000210120FBF752FC284B18600322002196
:105760000120FBF74BFC264B1860264B4FF4FA62E6
:105770001A800023244A1370244A13700120FDF775
:1057800051F9234D234E34E02378B3B12868002823
:10579000FAD00A2203A9FBF773FE0028F4D09DF883
:1057A0000C309DF80E209DF80D1003F00F000090B6
:1057B0001B093068FFF760FFE6E70F4B186820B160
:1057C00000231A461946FBF760FC3068FFF7B2FE6B
:1057D00033689A680123937032689268D370326894
:1057E000D26893703268D268D370064B1888FDF780
:1057F00019F9064CCAE700BFD8E70020C8E7002027
:10580000CCE70020E8E70020D0E7002064E9002092
:1058100000E8002004E8002038B52DED048B0120BD
:10582000FDF700F9FEF784FD0A20FDF7FBF8DFED38
:105830004F9A4F4D9FED4F9A3FE001212868FCF7AA
:1058400018FB042C00F28680DFE804F02B6C7278E1
:105850007E0002212868FCF70CFBF2E7042128688F
:10586000FCF707FBEDE708212868FCF702FBE8E7F7
:1058700010212868FCF7FDFAE3E720212868FCF7EF
:10588000F8FADEE740212868FCF7F3FAD9E780212F
:105890002868FCF7EEFAD4E710212868FCF7E9FA4B
:1058A000CFE70821344B1868FCF7E3FAFEF748FD10
:1058B000002855D10A20FDF7B5F8FEF74DFD08EE9A
:1058C000100AFEF75DFD08EE900AFEF739FDF8EECE
:1058D000688AC8EEA97AFCEEE77A17EE903A9CB295
:1058E000FF212868FCF794FAB8EE488A28EE098A66
:1058F000BCEEC88A18EE103A9BB2072BCCD801A296
:1059000052F823F03B580008535800085D5800082F
:1059100067580008715800087B580008855800082F
:105920008F5800081021144B1868FCF7A2FABDE745
:105930002021114B1868FCF79CFAB7E740210E4B69
:105940001868FCF796FAB1E780210B4B1868FCF752
:1059500090FAABE72021084B1868FCF78AFAA5E714
:105960000121054B1868FCF784FAA3E7CDCC4C4421
:10597000FCE700200000003B14E800200B4B02690C
:10598000002A03DB013BFAD103207047036943F08F
:1059900001030361054B026912F0010F03D0013BC3
:1059A000F9D1032070470020704700BF400D03006D
:1059B00084B010B5044603A880E80E00089B012BB4
:1059C0001FD1A36B23F48033A363E36823F4840320
:1059D00023F04003E360E36823F44013E3600F9B8C
:1059E000012B09D02046FFF7C9FF069B012B1BD0D6
:1059F000BDE8104004B07047E36843F48013E360EF
:105A0000F0E7E36843F04003E3602046FFF7B6FFAA
:105A10000C9B23B9A36B43F48033A363E5E7A36B2B
:105A200023F48033A363E0E7A36843F00603A36095
:105A3000A36843F02003A360DAE7032A0AD0092110
:105A4000C26822F47052C260C36843EA8123C36013
:105A500000207047284B0B44284A93423BD9284BDF
:105A60000B44284A934238D9A1F57403A3F5105387
:105A7000254A934233D9A1F18373A3F5E74302F595
:105A8000C332A03293422CD9204B0B44204A93427C
:105A900029D9204B0B4402F5922202F578729342E9
:105AA00023D91D4B0B4402F5C32202F52072934209
:105AB0001DD9A1F1B773A3F5585302F5B71202F53A
:105AC0005872934215D9154B0B4415498B4294BF1C
:105AD00007210621B4E70F21B2E70E21B0E70D211F
:105AE000AEE70C21ACE70B21AAE70A21A8E70921C0
