:020000040800F2
:1000000000000320EDD10108855F0108A55F01080C
:10001000C55F0108E55F01080560010800000000F8
:100020000000000000000000000000003DD20108B8
:1000300025600108000000003DD20108456001086C
:100040003DD201083DD201083DD201083DD2010850
:100050003DD201083DD201083DD201083DD2010840
:100060003DD201083DD201083DD201083DD2010830
:100070003DD201083DD201083DD201083DD2010820
:100080003DD201083DD201083DD201083DD2010810
:100090003DD201083DD201083DD201083DD2010800
:1000A0003DD201083DD201083DD201083DD20108F0
:1000B0003DD20108150800083DD201083DD20108D3
:1000C0003DD201083DD201083DD201083DD20108D0
:1000D0003DD201083DD201083DD201083DD20108C0
:1000E0003DD201083DD201083DD201083DD20108B0
:1000F0003DD201083DD201083DD201083DD20108A0
:100100003DD201083DD201083DD201083DD201088F
:100110003DD201083DD201083DD201083DD201087F
:100120003DD201083DD201083DD201083DD201086F
:100130003DD20108516001083DD201083DD20108BD
:100140003DD201083DD201083DD201083DD201084F
:100150003DD201083DD201083DD201083DD201083F
:100160003DD201083DD201083DD201083DD201082F
:100170003DD201083DD201083DD201080000000037
:100180003DD201083DD201083DD201083DD201080F
:100190003DD201083DD201083DD201083DD20108FF
:0C01A0003DD201083DD201083DD201080B
:1001C0000348044B834202D0034B03B118477047E6
:1001D000C4090020C40900200000000005480649A9
:1001E000091A891001EBD171491002D0034B03B1F8
:1001F00018477047C4090020C4090020000000000F
:1002000010B5064C237843B9FFF7DAFF044B13B15E
:100210000448AFF300800123237010BDC4090020FF
:100220000000000054D2010808B5044B1BB104497A
:100230000448AFF30080BDE80840CFE700000000AD
:10024000C809002054D20108134B002B08BF114BE2
:100250009D46A3F5803A00218B460F461148124A6D
:10026000121A15F0EBFF0D4B002B00D098470C4BEA
:10027000002B00D098470020002104000D000B48FF
:1002800015F082FF15F0B6FF2000290000F05DF8A0
:1002900015F086FF000008000000000000000000CC
:1002A00000000000C4090020040B0020C161010807
:1002B0000246A0F13003D8B2092809D9A2F14103BE
:1002C000DBB2052B03D8A2F13700C0B27047002083
:1002D000704738B50D46FFF7EBFF04462846FFF799
:1002E000E7FF00F00F0040EA0410C0B238BD2DE96E
:1002F000F04101394EB2002E11DB0746344600258D
:10030000DFF82080711B47FA01F101F0010140463E
:1003100015F0B4FE013C64B20135002CF2DABDE800
:10032000F08100BF44D501080246A0F13003D8B2E5
:10033000092809D9A2F14103DBB2052B03D8A2F1A8
:100340003700C0B27047002070472DE9F04782B0F7
:1003500015F09EFD00F0F4F94FF4FA6000F07EF91C
:10036000012000F0A3F900F0E5FB694B01221A70AF
:100370000025684B1D70684B1D70A946644E984659
:10038000644F49E00146654815F078FE97F800A0F3
:1003900088F800A03C703378022B0DD0032B72D06C
:1003A000012B39D148E03B78442B35D103233370FE
:1003B0004FF0010900252FE04DB3B9F1000F26D110
:1003C00098F800A0BAF1440F45D0BAF1450F4BD0D0
:1003D000BAF1460F02D13B78462B4ED03878FFF762
:1003E000A3FF04465046FFF79FFF04F00F0444EAC2
:1003F0000010C0B200F0D2FA3B7898F80010C0F3B9
:1004000042020092C0F34222454815F037FE85F0C3
:100410000105EDB24FF0000900F086F80128FBD984
:1004200000F088F800F09CFC00F020FC0446002856
:10043000A8D13378012BEFD198F80030442BB2D0FB
:10044000452BE9D13B78452BE6D1022333704FF0A1
:1004500001090025E0E73B78442BBFD1032333702B
:100460002B464D469946D7E73B78452BB6D102231C
:1004700033702B464D469946CEE7012333702B4609
:100480004D469946C8E735B3B9F1000F23D1BAF10B
:10049000440F26D0BAF1450F2BD0BAF1460F01D147
:1004A000462C2ED02046FFF73FFF04465046FFF76C
:1004B0003BFF04F00F0444EA0014E4B2204600F0CD
:1004C000E7F98146204600F0CAF9024609F00F011B
:1004D000144815F0D3FD85F00105EDB24FF0000989
:1004E0009AE7442CDED1032333702B464D469946C0
:1004F00092E7452CD6D1022333702B464D469946C0
:100500008AE7012333702B464D46994684E700BFA6
:10051000360A0020340A0020350A002048D5010898
:1005200050D5010864D50108014B1868704700BF19
:10053000380A002008B5034B00221A601D2005F080
:1005400081F908BD380A002008B51D2005F088F99A
:1005500008BD08B51D2005F075F908BD08B5034BA9
:100560001968034815F08AFD08BD00BF380A00204D
:1005700074D5010810B50A4B18681CF00FFB04462F
:10058000084B18681CF00AFB014620461CF012FCC0
:100590001BF0FEFE02460B46034815F06FFD10BD32
:1005A000380A0020400A00207CD50108F8B5114B1C
:1005B0001C680A2C00D8F8BD04441C600E4D0F4B7B
:1005C00018681BF0C3FE06460F4620461BF0BEFE11
:1005D00000220B4B1CF05EF802460B4630463946B3
:1005E0001BF02EFF1CF004FAE860284611F002FE12
:1005F000E1E700BF3C0A0020480A0020400A002032
:1006000000408F40F8B5114B1C68B4F57A7F00D8D4
:10061000F8BD04441C600E4D0E4B18681BF096FE8E
:1006200006460F4620461BF091FE02460B4630461A
:1006300039461CF02FF80022074B1BF049FD1CF037
:10064000D7F96860284611F0D5FDE1E7400A00209F
:10065000480A0020140000200000F03FF8B50546CD
:100660000E4B18600E4C0F4B18681BF06FFE0646C1
:100670000F4628461BF06AFE02460B4630463946B6
:100680001CF008F80022084B1BF022FD1CF0B0F90A
:100690006060204611F0AEFDF8BD00BF400A0020AA
:1006A000480A0020140000200000F03FF8B505467D
:1006B0000E4B18600E4C0F4B18681BF047FE064699
:1006C0000F4628461BF042FE00220B4B1BF0E2FFB8
:1006D00002460B46304639461BF0B2FE1CF088F944
:1006E000E060204611F086FDF8BD00BF3C0A002006
:1006F000480A0020400A002000408F4000B587B023
:10070000002300930C4B1A6B42F008021A631B6B18
:1007100003F008030093009B4FF4804301930123EF
:10072000029302230393049301A904480DF014FDDE
:1007300007B05DF804FB00BF00380240000C024027
:1007400030B583B0FFF7DAFF002501951A4B1A6C1C
:1007500042F002021A641B6C03F002030193019B36
:10076000164B18681BF0F2FD11A3D3E900231BF010
:1007700091FF1CF03DF90138114C124B23604CF2F3
:100780005033E360606025616561A560204611F02B
:1007900031FD2A460A211D2005F022F81D2005F012
:1007A00051F8204610F07CFF03B030BDAFF300805D
:1007B00000000000006AE8400038024014000020F9
:1007C000480A00200004004010B50A4C4FF4804154
:1007D00020460DF067FEC0F1010202F001024FF465
:1007E000804120460DF064FE034A13680133136014
:1007F00010BD00BF000C0240380A002008B5026896
:10080000034B9A4200D008BDFFF7DEFFFBE700BFB5
:100810000004004008B5024811F084FB08BD00BF89
:10082000480A002070B4C0F30013C0F34015C0F3B1
:100830008014C109C0F380025A4062404A40C0F3AC
:10084000C00673406B404B409B0003EB4203C0F378
:100850004000684060404840184470BC7047C0F396
:100860004003C0F380025340C0F3C0025340C0F3C2
:1008700000125340C0F340125340C0F38012534063
:1008800083EAD01300F00100181A18BF0120704746
:100890002DE9F84F044600F01009C0F3001600F0EF
:1008A000200AC0F3401700F0400BC0F38018FFF798
:1008B000B9FF05462046FFF7D2FF28B915B9200930
:1008C000BDE8F88F2009FBE7002DF8D005F0020302
:1008D00005F0040215F001000BD015F0060F15D03D
:1008E00015F003010BD04BBBF2B1BAFA8AF77F09BE
:1008F0000CE0E3B152B115F003011BD106E02AB9B7
:1009000048B9014616E0B9FA89F6760906EB4700C0
:1009100000EB8800D4E71146E5E7002AF6D1BBFAE0
:100920008BF84FEA5818F1E7032909D1F7E715F0DA
:100930000301E4D005F00605062DE4D00329ECD030
:100940002009BDE730B400F00101C0F34004C0F35A
:100950008002C0F3C003600140EA011040EA821047
:1009600040EAC31084EA02055D4040EA45004A407F
:100970005A4040EA820081EA0402534040EAC30040
:100980000023194640FA03F202F0010251400133FC
:10099000072BF7D10843C0B230BC704738B50546C5
:1009A00000F00F00FFF7CEFF04462809FFF7CAFF4B
:1009B00044EA002080B238BD014B06221A6070471D
:1009C000E00900202DE9F04788B000260096544B3E
:1009D0001A6B42F010021A631A6B02F010020092B6
:1009E000009A01961A6B42F020021A631A6B02F009
:1009F00020020192019A02961A6B42F010021A63C9
:100A00001A6B02F010020292029A03961A6B42F0DD
:100A100020021A631A6B02F020020392039A0496D2
:100A20001A6B42F020021A631A6B02F02002049241
:100A3000049A05961A6B42F008021A631A6B02F0C8
:100A400008020592059A06961A6B42F020021A6374
:100A50001A6B02F020020692069A07961A6B42F071
:100A600020021A631B6B03F020030793079B2D4C96
:100A70004FF40063236001256560A5600227E760ED
:100A8000DFF8A8A0214650460DF066FB4FF48043E6
:100A900023606560A560E760DFF8948021464046EA
:100AA0000DF05AFB4FF40059C4F800906560A56042
:100AB000E760214650460DF04FFB4FF4004AC4F862
:100AC00000A06560A560E760214640460DF044FB4C
:100AD000202323606660A560E760214640460DF054
:100AE0003BFBC4F800A06660A560E76021460E48A5
:100AF0000DF032FB4FF4805323606660A560E76021
:100B0000214640460DF028FBC4F800906660A560C1
:100B1000E760214640460DF01FFB08B0BDE8F087B6
:100B200000380240880A0020000C024000100240F9
:100B30000014024008B5034B00221A60FFF742FF81
:100B400008BD00BFE009002070B50446224E012216
:100B50004FF4006130460DF0ABFC204D01224FF404
:100B6000804128460DF0A4FC01224FF4005130468C
:100B70000DF09EFC01224FF4004128460DF098FC38
:100B800014F0010F0CD114F0020F10D114F0040F67
:100B900014D114F0080F18D1114B00225A6005E04F
:100BA00000224FF4006130460DF082FC70BD00223F
:100BB0004FF4804109480DF07BFCF7E700224FF429
:100BC000005105480DF074FCF0E700224FF400419D
:100BD00002480DF06DFCE9E70010024000140240ED
:100BE000E009002008B5202116480DF05BFC18B97B
:100BF0000120154B586008BD4FF4004113480DF01B
:100C000051FC78B14FF480510E480DF04BFC70B19F
:100C10004FF400510B480DF045FC68B100200A4B21
:100C20005860E8E7084B01225A600220E3E7064BD0
:100C300001225A600420DEE7034B01225A6008209B
:100C4000D9E700BF00140240E0090020000C024078
:100C5000014B5868704700BFE0090020024B18782C
:100C6000FF221A70704700BF04000020024B187A60
:100C700000221A72704700BFE0090020F0B490B063
:100C8000354B5B7A03F00F02013A072A41D8DFE8BF
:100C900002F0064940044040404B032645E01B0952
:100CA000013B072B08D8DFE803F0181507100707EA
:100CB000070401260427A6B9274B00225A609A721E
:100CC00010B0F0BC70470026F4E701260327F2E7D6
:100CD0000026FBE701260227EDE701263746EAE773
:100CE00001276C461D4D0FCD0FC40FCD0FC40FCD86
:100CF0000FC495E80F0084E80F00174B01225A60DB
:100D000006EB870610AA02EB860656F8542C9A7258
:100D1000D6E71B09042BDBD0082BD4D0022BCBD178
:100D20000026D8E7022600E004261B09013B072B1A
:100D3000C2D801A252F823F0E10C0008D70C000839
:100D4000B90C0008CD0C0008B90C0008B90C00085B
:100D5000B90C0008B50C0008E009002070D20108A9
:100D600010B53E4B1B6853B93C4B01221A603B4CFB
:100D70000120E072FFF7E8FE0523236007E0012B66
:100D8000F5D0022B0CD0354B1B68032B10D0334B06
:100D90001B68042B2DD0314B1B68052B0FD010BDC9
:100DA0002E4C0220E072FFF7CFFE05232360F2E70E
:100DB0002A4C0420E072FFF7C7FE05232360FFF7EB
:100DC00011FF264B1873DA7A5B7B934219D010B16E
:100DD000224B9B7BDBB1214B00225A725A601F4B86
:100DE000DB7A012B2BD0022B32D11C4B03221A6051
:100DF000D5E71A4C0820E072FFF7A6FE0523236012
:100E0000DDE70028E4D1154B00229A73E3E7134C89
:100E100002F00F0242EA00106072FFF72FFF012379
:100E20006360A373E37A6373A37A0D4A1370092B8B
:100E300094BF30333733DBB2084A1372CFE7074A27
:100E400002211160082BAAD1044B01221A60A6E7E7
:100E5000042BF7D1014B04221A60A0E7E00900201F
:100E6000040000200B4B0269002A03DB013BFAD18E
:100E700003207047036943F001030361054B0269D6
:100E800012F0010F03D0013BF9D10320704700207D
:100E9000704700BF400D030084B010B5044603A89E
:100EA00080E80E00089B012B1FD1A36B23F4803335
:100EB000A363E36823F4840323F04003E360E3685F
:100EC00023F44013E3600F9B012B09D02046FFF76A
:100ED000C9FF069B012B1BD0BDE8104004B0704732
:100EE000E36843F48013E360F0E7E36843F0400312
:100EF000E3602046FFF7B6FF0C9B23B9A36B43F4D6
:100F00008033A363E5E7A36B23F48033A363E0E7B7
:100F1000A36843F00603A360A36843F02003A36023
:100F2000DAE7032A0AD00921C26822F47052C260AB
:100F3000C36843EA8123C36000207047284B0B44F9
:100F4000284A93423BD9284B0B44284A934238D92C
:100F5000A1F57403A3F51053254A934233D9A1F1A7
:100F60008373A3F5E74302F5C332A03293422CD931
:100F7000204B0B44204A934229D9204B0B4402F5C5
:100F8000922202F57872934223D91D4B0B4402F54D
:100F9000C32202F5207293421DD9A1F1B773A3F5C4
:100FA000585302F5B71202F55872934215D9154BF2
:100FB0000B4415498B4294BF07210621B4E70F214A
:100FC000B2E70E21B0E70D21AEE70C21ACE70B2113
:100FD000AAE70A21A8E70921A6E70821A4E700BF9C
:100FE000405327FFFF340C00401E1BFF3F420F0001
:100FF0007F4F120060B6E5FE5FE3160000D3CEFE21
:10100000C05BB3FEE05459FEDF9C4100836843F0AF
:101010000103836000207047836823F0010383602D
:101020000020704708B5C36823F0C043C36001299E
:1010300009D069B9C36843F08043C36032200FF020
:10104000D7FB002008BDC36843F00053C360F5E739
:101050000120F7E7890141F020010161054B026998
:1010600012F0200F03D0013BF9D10320704700207C
:10107000704700BF400D030010230361054B026958
:1010800012F0100F03D0013BF9D10320704700206C
:10109000704700BF400D0300D0F800381943C0F876
:1010A00000180020704784B02DE9F84F04460BA8C3
:1010B00080E80E000F460E9E159D0023194603F191
:1010C000400204EB8202516001330F2BF7D1F5B9D6
:1010D000A36B43F40013A363A36B23F40023A36364
:1010E000A36B23F48023A3630023C4F8003E04F51C
:1010F0000068D4F80038C4F80038109B012B14D1D4
:101100000D9B6BB900212046FFF7C6FF11E0236855
:1011100023F400132360A36B43F40023A363E3E7EA
:1011200001212046FFF7B8FF03E003212046FFF727
:10113000B3FF10212046FFF78DFF81462046FFF7C1
:101140009BFFC0B919F1000C18BF4FF0010C002330
:10115000C8F81030C8F81430C8F81C30002F42D03E
:1011600004F51063002296464FF0904A4FF0006B52
:101170004FF67F390DE04FF0010CE8E782B1C3F87C
:1011800000A0C1F810E0C1F8089001322033974266
:1011900009D0194618680028F0DBC3F800E0F0E732
:1011A000C3F800B0EDE704F5306300218E464FF040
:1011B000904A4FF0006B4FF67F390AE081B1C3F8D7
:1011C00000A0C7F810E0C7F8089001312033914221
:1011D00009D01F4618680028F0DBC3F800E0F0E7EC
:1011E000C3F800B0EDE7D8F8103023F48073C8F8E6
:1011F0001030012E1AD00023A3616FF08043636189
:101200001EB9A36943F01003A361A269134B1343F2
:10121000A361119B1BB1A36943F00803A361012DD6
:1012200015D06046BDE8F84F04B070470C4BC8F8C5
:101230003030D8F8303043F4803343F00303C8F83B
:1012400030300023A3616FF080436361DDE7A36961
:1012500043F0804343F00403A361E2E700383C809D
:1012600000018000D0F8083800F5006013F0060F88
:1012700006D003F00203002B14BF032000207047A8
:101280000020704770B40A784B78012B22D0D0F838
:101290001C5802F00F064FF48033B3402B43C0F8C4
:1012A0001C3800EB4210D0F8003B13F4004F0ED175
:1012B000D0F8002B8B68C3F30A0343F0805343F448
:1012C0000043C97843EA81431343C0F8003B002040
:1012D00070BC7047D0F81C5802F00F06B3409BB2A8
:1012E0002B43C0F81C3800EB4210D0F8003913F43F
:1012F000004FECD1D0F800498B68C3F30A0343F0E8
:10130000805343F40043C97843EA814343EA82525D
:101310002243C0F80029DAE770B40C784B78012B2F
:1013200023D000EB4412D2F8003B13F4004F0ED14F
:10133000D2F8005B8B68C3F30A0343F40043CE7812
:1013400043EA864343EA84532B43C2F8003BD0F878
:101350003C480B7803F00F024FF480339340234353
:10136000C0F83C38002070BC704700EB4415D5F83D
:10137000003913F4004F10D1D5F800698A68C2F320
:101380000A0242F0805242F40042CB7842EA8342A1
:1013900042EA84533343C5F80039D0F83C480B780F
:1013A00003F00F02012393409BB22343C0F83C3863
:1013B000D8E770B40B784A78012A1FD0D0F83C588F
:1013C00003F00F06012404FA06F625EA0645C0F8E4
:1013D0003C58D0F81C58097801F00F018C4025EAE0
:1013E0000444C0F81C4800EB4310D0F8002B134B0A
:1013F0001340C0F8003B002070BC7047D0F83C6838
:1014000003F00F0402FA04F4A4B226EA0404C0F8BC
:101410003C48D0F81C48097801F00F018A4092B28C
:1014200024EA0202C0F81C2800EB4310D0F800396F
:10143000034A1A40C0F80029DDE700BF0078F3EF47
:10144000007833EC0B784A78012A15D000EB43136F
:10145000D3F8002B22F40042C3F8002BD0F81C383C
:101460000A7802F00F014FF480328A4023EA020327
:10147000C0F81C380020704700EB4313D3F8002954
:1014800022F40042C3F80029D0F81C280B7803F09E
:101490000F0101238B409BB222EA0303C0F81C38E2
:1014A000E8E770B40B784C78012C26D000EB4310A1
:1014B00000F530631C69E40CE4041C611C6924F031
:1014C000FF5424F4C0141C614C690CB18C684C614D
:1014D0001C6944F400241C611D698C68C4F3120467
:1014E0002C431C61012A5DD0D0F8003B43F004433B
:1014F000C0F8003B002070BC70474C6964BB00EB37
:101500004314D4F8105925F0FF5525F4C015C4F83C
:101510001059D4F8105945F40025C4F81059D4F8DE
:101520001059ED0CED04C4F81059012A32D04A6963
:101530004AB1D0F834580A7802F00F0101228A40EB
:101540002A43C0F8342800EB4310D0F8002942F0B9
:101550000442C0F80029CDE700EB431404F5106401
:101560002569ED0CED042561256925F0FF5525F46D
:10157000C01525618D684E69AE4288BF4D612569F1
:1015800045F40025256126694D69C5F312053543EB
:101590002561CAE70A69002AD5D000EB4311C1F8DA
:1015A0001429D0E7CA68002A9ED05A619CE710B47B
:1015B0009DF804406CB9DC1CA4080AD000EB023092
:1015C00000F58050002351F8042B026001339C4247
:1015D000F9D1002010BC7047F0B583B00B784C787F
:1015E000012C2BD000EB431303F530642569ED0C7F
:1015F000ED042561256925F0FF5525F4C015256109
:101600004D69002D40F0A78026698D68C5F312054D
:1016100035432561256945F400252561012A00F03F
:10162000AF80CA78012A00F0B180D3F8002B42F0D5
:101630000442C3F8002B002003B0F0BD4C6954BB3A
:1016400000EB4314D4F8105925F0FF5525F4C015CC
:10165000C4F81059D4F8105945F40025C4F81059AD
:10166000D4F81059ED0CED04C4F81059012A6AD0D1
:10167000CC78012C3CD1D0F8084814F4807F00EBE2
:101680004315D5F800490CBF44F0005444F0805491
:10169000C5F800493BE000EB4314D4F81059ED0CB9
:1016A000ED04C4F81059D4F8105925F0FF5525F46D
:1016B000C015C4F81059D4F810798E684D693544B6
:1016C000013DB5FBF6F53A4E06EAC5453D43C4F883
:1016D0001059D4F810694D69C5F312053543C4F8A3
:1016E000105904F51064CD78012D23D0012A5BD068
:1016F0004C6964B1D0F834780C7804F00F050124FB
:10170000AC403C43C0F83448CC78012CB3D000EB5B
:101710004313D3F8004944F00444C3F80049CB789C
:10172000012B88D114468B8A0A78C9680094FFF788
:101730003EFF80E7256925F0C0452561256945F014
:101740000055256192E70C69002CDDD000EB4315B4
:10175000C5F81449D8E78E683544013DB5FBF6F568
:101760002769134E06EAC5463E4326612769ADB296
:101770008E6806FB05F5C5F312053D4325614DE76F
:10178000CA68002A3FF44DAF62614AE7D0F80828E2
:1017900012F4807FD3F8002B0CBF42F0005242F0CD
:1017A0008052C3F8002B40E70C69002CCED1AEE785
:1017B0000000F81F033292080ED070B40C460023CC
:1017C00000F58056356844F8045B01339A42F9D13C
:1017D00001EB830070BC7047084670470B784A786D
:1017E000012A14D000EB4310D0F8002B002A06DBAE
:1017F0002BB1D0F8003B23F08043C0F8003BD0F879
:10180000003B43F40013C0F8003B0020704700EB9E
:101810004310D0F80029002A06DB2BB1D0F800399C
:1018200023F08043C0F80039D0F8003943F40013A6
:10183000C0F80039E9E70B784A78012A0ED000EBAE
:101840004310D0F8003B23F40013C0F8003BCB78E2
:10185000023BDBB2012B15D90020704700EB43108F
:10186000D0F8003923F40013C0F80039CB78023BDC
:10187000DBB2012BF0D8D0F8003943F08053C0F828
:101880000039E9E7D0F8003B43F08053C0F8003B53
:10189000E2E710B5044600F5106300F52E604FF640
:1018A0007F329A60C3F8082220338342F9D10022A4
:1018B000C4F81028C4F81428C4F81C282046FFF7E0
:1018C000DBFB034608B1184610BD10212046FFF788
:1018D000C1FB0346F7E7D0F8003823F4FE63C0F8F5
:1018E0000038D0F80038090101F4FE611943C0F84E
:1018F00000180020704708B5D0F8043823F0020320
:10190000C0F8043803200EF073FF002008BD08B5AE
:10191000D0F8043843F00203C0F8043803200EF076
:1019200067FF002008BD4269806910407047D0F809
:10193000183800F50060C0691840000C7047D0F8F6
:10194000183800F50060C069184080B2704700EB9D
:101950004111D1F8082B00F5006040691040704734
:1019600010B4D0F81048D0F8343800EB411000F52E
:101970001060806801F00F01CB40DB01DBB2234334
:10198000184010BC70474369194341617047406972
:1019900000F001007047D0F8003923F4FF6323F012
:1019A0000703C0F8003900F500639A6802F00602E8
:1019B000042A05D05A6842F480725A6000207047A9
:1019C000D0F8002942F00302C0F80029F2E710B471
:1019D000046C154B9C4203D9D0F8003B002B16DB5E
:1019E0000024C0F8104BD0F8104B44F40024C0F889
:1019F000104BD0F8104B44F01804C0F8104BD0F83E
:101A0000104B44F0C044C0F8104B012902D0002014
:101A100010BC7047C0F8142BD0F8003B43F0802373
:101A2000C0F8003BF3E700BF0A30544F10B400F594
:101A30008064D0F8003423F00303C0F80034D0F8F9
:101A4000002401F003031343C0F80034012907D038
:101A5000022904BF41F270736360002010BC70471C
:101A60004BF680336360F8E730B583B00446002559
:101A70000195D0F840340193019B23F02E0301938C
:101A8000019B43F48073C0F8403464200EF0B0FE34
:101A9000019B23F48073C4F840340A200EF0A8FEA2
:101AA000284603B030BD82B000230193D0F8403403
:101AB0000193019B23F02E030193019B13F4805F9C
:101AC00001D101290CD0019B13F4805F05D021B90D
:101AD000019B23F48053C0F84034002002B07047CB
:101AE000019B43F48053C0F84034019BF5E784B078
:101AF00038B5044605A880E80E00069D0023C4F80A
:101B0000003EA36B43F40013A363A36B23F40023F1
:101B1000A363A36B23F48023A363E36B13F4807F9D
:101B200046D0079B032BD4F800340CBF43F00403CA
:101B300023F00403C4F8003410212046FFF78AFA8A
:101B40002046FFF799FA5DB104F5A06300224FF03B
:101B5000FF3011469860D960013220339542F9D1A7
:101B600001212046FFF79FFFC8200EF041FE002311
:101B7000A3614FF0FF336361E36B13F4807F1ED0EA
:101B80004FF40073636203F18073A362104BC4F8D7
:101B90000031089B1BB9A36943F01003A361A2693C
:101BA0000C4B1343A3610020BDE8384004B07047DC
:101BB000D4F8003423F00403C4F80034BCE78023D5
:101BC000636203F5C003A362034BC4F80031E0E78E
:101BD0000003E000080020A3E000400082B00023E2
:101BE0000193D0F8403401930198C0F3414002B012
:101BF000704700F58060806880B27047F0B49DF84F
:101C0000144000EB411505F5A0664FF0FF37B760B3
:101C1000032C6ED8DFE804F00262022740F29D47F1
:101C2000F76012F0800F08D1C76B17F4807F20D0C7
:101C3000F76847F06007F7601BE0F76847F48077C4
:101C4000F760D0F8187401F00F0C012101FA0CF1C3
:101C50003943C0F81814816941F000718161002096
:101C60004FF4004616E040F29D67F76012F0800FD7
:101C70002FD1D0F818C401F00F01012606FA01F1A6
:101C800041EA0C01C0F81814816941F000718161CA
:101C9000002006469DF8101002290CBF4FF40031B9
:101CA00000219B0503F0FE53BDF81870C7F30A0727
:101CB0003B43D20202F4F0421343A20402F4402256
:101CC000134333430B43C5F80035032C29D0F0BC34
:101CD0007047F76847F48077F760B2E740F225274E
:101CE000F76012F0800FC4D0F76847F4C077F76050
:101CF000A7E700F58066D0F8187401F00F0C0121F9
:101D000001FA0CF13943C0F81814816941F00071EF
:101D1000816151B201200029B4BF4FF40046002672
:101D2000B8E7D5F8003543F00053C5F80035CEE7E5
:101D300000F58060406980B2704710B400EB41113B
:101D400001F5A064D1F8003513F4802F2CD1D1F81F
:101D5000003543F08043C1F80035C36A13F47F0FA8
:101D600019D1D1F8003523F00043C1F80035D1F87E
:101D7000003543F00043C1F80035D1F8003523F4B5
:101D80000043C1F800354FF47A732268002A08DA5C
:101D9000013BFAD105E0D1F8003543F00043C1F82A
:101DA0000035002010BC7047D1F8003543F0804367
:101DB000C1F80035D0F8103413F47F0F19D1D1F8E1
:101DC000003523F00043C1F80035D1F8003543F069
:101DD0000043C1F80035D1F8003523F40043C1F8C1
:101DE00000354FF47A732268002ADADA013BFAD11F
:101DF000D7E7D1F8003543F00043C1F80035D0E70C
:101E000000EB4111064AC1F81025D1F8003523F046
:101E1000804343F00043C1F800350020704700BF05
:101E200000000880F0B583B04B78C46B14F4807F59
:101E300005D00C791CB9B2B94C79012C0FD00D69C1
:101E4000F5B10C89013D2544B5FBF4F5ADB2B5F50E
:101E5000807F16D924020C614FF4807511E0194679
:101E6000FFF7CEFF75E0012AE9D100EB4314D4F867
:101E70000C5525F06005C4F80C5500244C71DEE7C4
:101E80000125CC781CB10C8905FB04F40C6100EB36
:101E900043138C7A640704F0C0440E69C6F312063B
:101EA0003443334E06EAC5452C43C3F8104512B1FE
:101EB000CC68C3F8144500F58066B468D3F80055C3
:101EC00025F00055C3F80055D3F8005584F00104FF
:101ED00004F0010445EA4474C3F80045D3F8005502
:101EE000244C2560256825F080452560CC78C4B158
:101EF000204D2C6844F400442C601E4C256845F0AD
:101F0000004525602468C3F8004512BBCB7803BBAD
:101F10000B69F3B1CA79032A14D8DFE802F0081D6F
:101F2000081D144D2C6824F400442C60E5E7C26AB7
:101F300092B20333C3F38F039A4203D2836943F00F
:101F4000200383610B8A4A78C96800240094FFF754
:101F50002EFB002003B0F0BD326992B20333C3F30D
:101F60008F039A42EED2836943F080638361E9E78D
:101F70000000F81FF009002038B50446836823F0FC
:101F8000010383601021FFF765F82046FFF774F81E
:101F900004F5A06004F5E06205462B6823F0802379
:101FA00043F0804345F8203B9542F6D1002302E000
:101FB0002030A8420ED00146026822F4004242F0CE
:101FC000404202600133B3F57A7FF1D80A68002AF3
:101FD000F8DBEDE74FF0FF33C4F814346361A36816
:101FE00043F00103A360002038BDD0F8083800F5A5
:101FF000006013F0010F03D0436843F00103436016
:1020000000207047D0F8043823F00103C0F80438EA
:10201000002070470F4A136923F4407313610329AA
:1020200010D001290B4A13690CBF43F0040343F499
:1020300000431361074A136943F4803343EA0020E5
:1020400010617047136943F4004343F004031361C4
:10205000F0E700BF003C0240624B1B7E012B00F00A
:10206000B18070B504465F4B01221A76036813F005
:10207000010F6DD04368934215D08568C6684CF255
:1020800050300BF0F9FD0346002862D1564A9542C4
:102090003CD0B5F5805F80F09E8054490A88154396
:1020A000ADB20D8055E08568C6684CF250300BF03B
:1020B000E3FD034600284CD14B4A954209D0B5F5C3
:1020C000805F80F0828049490A8822EA05050D80F8
:1020D0003FE026F00202012A12D045490A8822EA8E
:1020E00015350D80032E34D14CF250300BF0C4FD69
:1020F000034670BB3E490A8802F470420A8028E019
:102100003A490A8802F470420A80EBE726F002029C
:10211000012A15D036490A8842EA1535ADB20D803C
:10212000032E16D14CF250300BF0A6FD034680B9B9
:102130002F490A886FEA12326FEA02320A8008E0F9
:102140002A490A886FEA12326FEA02320A80E7E708
:102150000123226812F0020F0CD1226812F0040F42
:1021600014D1226812F0080F21D11E4A00211176E5
:10217000184670BD25694CF250300BF07DFD0346CA
:102180000028EAD1EDB21B4A1570E6E7257E4CF235
:1021900050300BF071FD03460028E2D116490A7851
:1021A00025F01F0502F01F0215430D70D9E7207DB1
:1021B000114B197801F0F30119701A7802431A7063
:1021C0000023D2E702231846704709490A8822EA09
:1021D00015350D80BDE706490A8842EA1535ADB2CE
:1021E0000D80B6E79C0A002000F0FF00163C02407C
:1021F0001A3C0240153C0240143C02400F2303608D
:102200000E4B1B8883600E4B1B78DBB2CC2B12D09D
:102210000B4B1B78DBB2AA2B0CBFAA2355230361FF
:10222000084B5B6923F01F030376074B1B7803F011
:102230000C0343617047CC23F1E700BF163C02401A
:10224000153C0240003C0240143C0240F8B50446F4
:10225000036813F0010F4CD04368012B13D086891B
:10226000C78985684CF250300BF006FD0346002804
:1022700040D125F00202012A28D02A490A8822EA00
:1022800007070F8036E08589C78986684CF2503091
:102290000BF0F2FC034668BB26F00202012A04D0D0
:1022A00020490A8817430F8024E01F4A11880D43F4
:1022B0001580032E1ED14CF250300BF0DDFC03468E
:1022C000C0B9184A11880F43178013E016490A88CD
:1022D00022EA06060E80032D0CD14CF250300BF092
:1022E000CBFC034630B90F490A8822EA07070F8062
:1022F00000E00123226812F0020F01D11846F8BD58
:10230000247C4CF250300BF0B7FC03460028F5D18A
:10231000064A117801F0EF01117011782143117014
:10232000ECE700BF1A3C0240163C0240143C02405D
:10233000044B1B888381044B1B88C381034B1B7890
:1023400003747047163C02401A3C0240143C0240A1
:10235000034A137843F0800313700020704700BFD6
:10236000173C0240034A137803F07F0313700020E8
:10237000704700BF173C0240014B1888704700BFF0
:102380001A3C024010B441B1012922D002290CBFED
:102390004FF400744FF4407400E000240B2888BF11
:1023A00004300D4B196921F4407119611A692243F7
:1023B0001A611A6922F0F8021A611A6942F00202DF
:1023C00042EAC00018611A6942F480321A6110BCF6
:1023D00070474FF48074E1E7003C024008B5184BA9
:1023E0001B7E012B29D0164B01221A76154B1A6938
:1023F00042F080721A611A6942F000721A61F32287
:10240000DA600368012B0DD00D4B01221A70C268EF
:102410005A608268DA60017C19728068FFF7B2FF47
:10242000002008BD064B02221A7042681A614168FA
:10243000007CFFF7EFFD0020F3E70220F1E700BF8B
:102440009C0A0020003C0240164B1B6813F4007FDE
:1024500010D0144B1A6822F400721A601A6842F401
:1024600000621A601A6822F400621A601A6842F464
:1024700000721A600B4B1B6813F4806F10D0094B6D
:102480001A6822F480621A601A6842F480521A6054
:102490001A6822F480521A601A6842F480621A6044
:1024A000704700BF003C02402DE9F843274B1B7EDC
:1024B000012B47D00F460446244B01221A764CF2DA
:1024C00050300BF0D9FB8146002835D14FF0FF3357
:1024D0003B602368012B1BD0A568E3682B449D4219
:1024E00028D24CF250381A4E217C2846FFF74AFF7A
:1024F00040460BF0C1FB336923F0FA033361814698
:10250000B8B90135E368A2681344AB42ECD811E0D6
:102510006168207CFFF77EFD4CF250300BF0ACFB85
:1025200081460B4A136923F4004323F0040313612B
:1025300000E03D60FFF788FF044B00221A76484612
:10254000BDE8F8834FF00209F9E700BF9C0A0020BC
:10255000003C02400268D36823F49073D3600268A1
:10256000536923F001035361202380F83A30704708
:102570002DE9F84304460268136923F44053C16807
:102580000B4313610168CA6883680069034360698B
:102590000343E069034322F4164222F00C02134382
:1025A000CB602268536923F44073A1690B435361E4
:1025B000E369B3F5004F5ED02368B34A934200F05D
:1025C0000C8102F58062934200F007810DF0EAF978
:1025D00000EB800000EB800063689B00B0FBF3F32E
:1025E000AA4FA7FB03235B091D010DF0DBF900EBEC
:1025F000800000EB800063689B00B0FBF3F60DF0F9
:10260000D1F900EB800000EB800063689B00B0FB19
:10261000F3F3A7FB03235B094FF0640909FB136382
:102620001B013233A7FB03235B0903F0F0060DF017
:10263000B9F900EB800000EB800063689B00B0FB01
:10264000F3F80DF0AFF9226800EB800000EB80009A
:1026500063689B00B0FBF3F3A7FB03135B0909FB63
:1026600013831B013233A7FB0313C3F34313334319
:102670002B44936005E12368834A934258D002F5C6
:102680008062934254D00DF08DF900EB800000EB96
:10269000800063685B00B0FBF3F37C4FA7FB032370
:1026A0005B091E010DF07EF900EB800000EB80005D
:1026B00063685B00B0FBF3F50DF074F900EB80008C
:1026C00000EB800063685B00B0FBF3F3A7FB032320
:1026D0005B094FF0640909FB1353DB003233A7FB9E
:1026E00003231B0903F4F8750DF05CF900EB80007F
:1026F00000EB800063685B00B0FBF3F80DF052F96B
:10270000226800EB800000EB800063685B00B0FB98
:10271000F3F3A7FB03135B0909FB1383DB003233DD
:10272000A7FB0313C3F3421333442B449360A8E085
:102730000DF048F900EB800000EB800063685B005F
:10274000B0FBF3F3514FA7FB03235B091E010DF010
:1027500039F900EB800000EB800063685B00B0FBA0
:10276000F3F50DF02FF900EB800000EB80006368BB
:102770005B00B0FBF3F3A7FB03235B094FF0640995
:1027800009FB1353DB003233A7FB03231B0903F4BC
:10279000F8750DF017F900EB800000EB800063681E
:1027A0005B00B0FBF3F80DF00DF9226800EB800040
:1027B00000EB800063685B00B0FBF3F3A7FB03133F
:1027C0005B0909FB1383DB003233A7FB0313C3F35D
:1027D000421333442B44936053E00DF0F3F800EBC5
:1027E000800000EB800063689B00B0FBF3F3274F91
:1027F000A7FB03235B091D010DF0E4F800EB80004B
:1028000000EB800063689B00B0FBF3F60DF0DAF894
:1028100000EB800000EB800063689B00B0FBF3F3EB
:10282000A7FB03235B094FF0640909FB13631B013A
:102830003233A7FB03235B0903F0F0060DF0C2F867
:1028400000EB800000EB800063689B00B0FBF3F8B6
:102850000DF0B8F8226800EB800000EB80006368A0
:102860009B00B0FBF3F3A7FB03135B0909FB138386
:102870001B013233A7FB0313C3F3431333432B442E
:102880009360BDE8F88300BF001001401F85EB5145
:102890002DE9F04107460E4615469846069C3A68D3
:1028A000136836EA03030CBF01230023AB421DD19A
:1028B000B4F1FF3FF4D02CB10DF078FFA0EB08008D
:1028C000A042ECD93A68D36823F4D073D3603A6855
:1028D000536923F001035361202387F8393087F8C7
:1028E0003A30002387F83830032000E00020BDE8AC
:1028F000F081704758B310B5044690F839300BB3E7
:10290000242384F839302268D36823F40053D36039
:102910002046FFF72DFE2268136923F490431361CC
:102920002268536923F02A0353612268D36843F471
:102930000053D3600020E063202384F8393084F80A
:102940003A3010BD80F83830FFF7D3FFD8E70120C8
:102950007047002830D010B5044690F8393033B3B2
:10296000242384F839302268D36823F40053D360D9
:102970002046FFF7FDFD2268136923F4904313619D
:102980002268536923F0220353612268536943F09C
:10299000080353612268D36843F40053D3600020D6
:1029A000E063202384F8393084F83A3010BD80F891
:1029B0003830FFF79EFFD3E70120704700283BD057
:1029C00038B504460D4690F83930002B2FD024231B
:1029D00084F839302268D36823F40053D36020464A
:1029E000FFF7C6FD2268136923F4006313612268B0
:1029F000536923F02A0353612268136943F4804327
:102A000013612268136923F0200313612368196995
:102A10000D431D612268D36843F40053D360002046
:102A2000E063202384F8393084F83A3038BD80F8E8
:102A30003830FFF75EFFCAE701207047002840D01A
:102A400070B5044616460D4690F83930002B33D049
:102A5000242384F839302268D36823F40053D360E8
:102A60002046FFF785FD2268136923F49043136124
:102A70002268536923F02A0353612268136923F003
:102A80000F031361236819690D431D612268D36820
:102A900023F40063D3602168CB683343CB602268A2
:102AA000D36843F40053D3600020E063202384F80C
:102AB000393084F83A3070BD80F83830FFF719FFAC
:102AC000C6E7012070477047A0B110B50446242323
:102AD00080F839300268D36823F40053D360FFF7DD
:102AE000F2FF0020E06384F8390084F83A0084F8AB
:102AF000380010BD012070472DE9F04383B01E4619
:102B000090F83930DBB2202B59D104460D4690465F
:102B1000002959D0002A59D090F83830012B57D0CD
:102B2000012380F838300023C363212380F8393033
:102B30000DF03CFE0746A4F82480A4F826804FF050
:102B400000094FF0800810E000963B464A46414697
:102B50002046FFF79DFE00283CD122682B88C3F356
:102B6000080353602369C3B90235E38C9BB2B3B148
:102B7000E38C013B9BB2E384A368B3F5805FE3D0B1
:102B800000963B464A4641462046FFF781FE18BB69
:102B900023682A785A600135E7E70135E5E70096B2
:102BA0003B46002240212046FFF772FE0346A8B9AB
:102BB000202284F83920002284F8382000E0022303
:102BC000184603B0BDE8F0830123F9E70123F7E7D6
:102BD0000223F5E70323F3E70323F1E70323EFE7FA
:102BE0002DE9F04383B01E4690F83A30DBB2202B3B
:102BF0005BD104460D46174600295AD0002A5AD008
:102C000090F83830012B58D0012380F83830002359
:102C1000C363222380F83A300DF0C8FD8146A785B2
:102C2000E7854FF0000820271DE000964B464246FE
:102C300039462046FFF72CFE002840D1236933B9DE
:102C400023685B68C3F3080325F8023B0BE02368A5
:102C50005B68DBB225F8013B05E023685B6803F0A5
:102C60007F032B700135E38D9BB2BBB1E38D013B3C
:102C70009BB2E385A368B3F5805FD6D000964B4640
:102C8000424639462046FFF703FED0B92369002BA0
:102C9000E3D123685B682B700135E4E7202384F8D7
:102CA0003A30002084F8380000E0022003B0BDE88C
:102CB000F0830120FAE70120F8E70220F6E703207D
:102CC000F4E70320F2E790F83930DBB2202B16D17D
:102CD000B9B1C2B190F83830012B16D001628284AC
:102CE000C2840023C363212280F8392080F8383061
:102CF0000168CA6842F08002CA6018467047022024
:102D0000704701207047012070470220704790F8FB
:102D10003A30DBB2202B20D109B312B390F838300F
:102D2000012B20D081628285C2850023C3632222C9
:102D300080F83A2080F838300168CA6842F480721E
:102D4000CA6001684A6942F001024A610168CA68C2
:102D500042F02002CA6018467047022070470120E6
:102D60007047012070470220704738B590F839400D
:102D7000E4B2202C31D1002931D0002A31D090F892
:102D80003830012B2FD013460446012280F838201A
:102D900001628384C3840025C563212280F8392021
:102DA000026B1248D063226B11481064226B1148E9
:102DB000D064226B156522680432206B0AF035F965
:102DC00023686FF040021A6084F838502268536913
:102DD00043F080035361284600E0022038BD012003
:102DE000FCE70120FAE70220F8E700BF29310008DC
:102DF0005B3100084F32000830B583B090F83A409C
:102E0000E4B2202C3DD100293ED0002A3ED090F8DB
:102E10003830012B3CD013460A460446012180F885
:102E20003810826283850025C563222180F83A101C
:102E3000416B1848C863616B17480864616B174899
:102E4000C864616B0D6521680431606B0AF0EDF8B0
:102E5000019523681A6801925A680192019A84F8D0
:102E60003850DA6842F48072DA602268536943F0BD
:102E7000010353612268536943F0400353612846BC
:102E800000E0022003B030BD0120FBE70120F9E79C
:102E90000220F7E767310008433200084F3200088C
:102EA00090F83830012B2FD0012380F83830026899
:102EB000516990F83930DBB2212B0BD0026851698F
:102EC00090F83A30DBB2222B0CD0002380F8383057
:102ED0001846704711F0800FF0D0536923F080033B
:102EE0005361EBE711F0400FEFD0D36823F4807308
:102EF000D3600268536923F0010353610268536988
:102F000023F040035361E0E70220704790F8383027
:102F1000012B34D0012380F8383090F83930DBB2FF
:102F2000212B09D090F83A30DBB2222B0AD00023B3
:102F300080F83830184670470268536943F08003C0
:102F40005361EFE782B00023019303681A6801928E
:102F50005A680192019ADA6842F48072DA60026873
:102F6000536943F0010353610268536943F040031E
:102F70005361002380F83830184602B070470220B1
:102F8000704710B504460268516990F83930DBB2D9
:102F9000212B08D02268516994F83A30DBB2222BF9
:102FA00015D0002010BD11F0800FF3D0536923F02D
:102FB00080035361006B08B10AF081F82268D3687E
:102FC00023F0C003D360202384F83930E2E711F006
:102FD000400FE6D0536923F040035361606B08B1A2
:102FE0000AF06DF82046FFF7B5FADAE710B50446A7
:102FF0000268D36823F4F073D3600268536923F046
:103000000103536103685A6912F0800F0BD05A69AB
:1030100022F080025A61036B2BB100221A65006B0B
:103020000AF04DF8D0B923685A6912F0400F0BD05E
:103030005A6922F040025A61636B2BB100221A6573
:10304000606B0AF03CF890B90020E084E085E06312
:10305000202384F83A3084F8393010BD206B0AF010
:1030600079FA2028DFD11023E3630320F5E7606BB2
:103070000AF070FA2028E7D11023E3630320ECE77D
:1030800010B504460268D36823F0C003D360036818
:103090005A6912F0800F0BD05A6922F080025A61EF
:1030A000036B2BB100221A65006B0AF008F828B9EF
:1030B0000020E084202384F8393010BD206B0AF012
:1030C00049FA2028F4D11023E3630320F5E710B573
:1030D00004460268D36823F49073D360026853698E
:1030E00023F00103536103685A6912F0400F0BD0BB
:1030F0005A6922F040025A61436B2BB100221A65D3
:10310000406B09F0DCFF28B90020E085202384F81B
:103110003A3010BD606B0AF01DFA2028F4D110235C
:10312000E3630320F5E7704708B5836B0268126814
:1031300012F4807F0CD10022DA8419684A6922F0E7
:1031400080024A611A68D36843F04003D36008BD27
:103150001846FFF7E8FFFAE7704708B5806BFFF7FE
:10316000FBFF08BD704708B5836B0268126812F454
:10317000807F13D10022DA851968CA6822F4807230
:10318000CA6019684A6922F001024A6119684A69ED
:1031900022F040024A61202283F83A201846FFF7C5
:1031A000E1FF08BD08B590F83A30DBB2222B45D1DB
:1031B0008368B3F5805F0ED0036903BB03685A6868
:1031C000836A591C81621A70C38D013B9BB2C3850F
:1031D000F3B1002033E0826A036943B903685B6896
:1031E000C3F308031380836A02338362ECE7036846
:1031F0005B68DBB21380836A01338362E4E70368B0
:103200005B68826A511C816203F07F031370DBE705
:103210000268D36823F02003D3600268D36823F4E4
:103220008073D3600268536923F001035361202344
:1032300080F83A30FFF796FF002000E0022008BD3A
:10324000704708B5806BFFF7FBFF08BD704710B5EE
:10325000846B2268516994F83930DBB2212B0ED08F
:1032600023685A6994F83A30DBB2222B14D0E36B0E
:1032700043F01003E3632046FFF7E8FF10BD11F0B1
:10328000800FEDD00023E384D36823F0C003D36024
:10329000202384F83930E3E712F0400FE7D0002311
:1032A000E3852046FFF756F9E1E710B504460268CA
:1032B0001368D068516913F00F0F17D113F0200F66
:1032C00002D010F0200F0DD113F0800F02D010F0BB
:1032D000800F77D113F0400F03D010F0400F40F073
:1032E000A08010BD2046FFF75DFFFAE711F0010155
:1032F00002D110F4907FE7D013F0010F06D010F444
:10330000807F03D0E26B42F00102E26313F0040F0E
:1033100040D0002900F09080E26B42F00202E263AC
:1033200013F0020F00F09480E26B42F00402E263BB
:1033300013F0080F03D0E26B42F00802E263E26B85
:10334000002ACED013F0200F02D010F0200F27D18A
:1033500023685A69E36B13F0080F02D112F0400F93
:103360002AD02046FFF7F6F823685A6912F0400F7A
:103370001ED05A6922F040025A61636BA3B1374AEA
:103380001A65606B09F0E5FE0028AAD0606B036D3A
:103390009847A6E713F0020F52D00029C4D1CEE718
:1033A0002046FFF7FFFED3E72046FFF74FFF98E7E1
:1033B0002046FFF74BFF94E72046FFF747FF002327
:1033C000E3638EE794F83930DBB2212B89D1A3680F
:1033D000B3F5805F16D0236A591C21621B785360B5
:1033E000E38C013B9BB2E384002B7FF47AAF22682D
:1033F000D36823F08003D3602268D36843F040038E
:10340000D3606EE7236A1B88C3F308035360236904
:103410001BB9236A02332362E2E7236A0133236282
:10342000DEE7D36823F04003D360202384F83930EB
:103430002046FFF778FE54E713F0020F7FF47FAFCA
:1034400013F0080F3FF47BAF00293FF478AF72E729
:1034500013F0080F7FF46FAF71E700BF613400080D
:1034600008B5806B0023C385C384FFF7EFFE08BD5A
:10347000704710B504460268D36823F4F073D36034
:103480000268536923F001035361036B3BB1026887
:10349000526912F0800F14BF244A00221A65636B30
:1034A0003BB12268526912F0400F14BF204A00223B
:1034B0001A6523685A6912F0800F0BD05A6922F0FE
:1034C00080025A61206B28B109F043FE08B3236BD8
:1034D00000221A6523685A6912F0400F0BD05A690E
:1034E00022F040025A61606B28B109F032FE70B1DF
:1034F000636B00221A650023E384E385E3632023E2
:1035000084F8393084F83A302046FFF7B1FF0020C4
:1035100010BD23685A6912F0400FF8D05A6922F0A2
:1035200040025A61606B0028DFD1F0E76135000886
:103530003535000808B5806B436B00221A65036BB4
:1035400013B11B6D03B108BD0023C384C385C363DE
:10355000202380F8393080F83A30FFF789FFF2E70E
:1035600008B5806B036B00221A65436B13B11B6DAA
:1035700003B108BD0023C384C385C363202380F83F
:10358000393080F83A30FFF773FFF2E7704710B533
:1035900004460268D36823F0C003D36003685A6905
:1035A00012F0800F18D05A6922F080025A61036B22
:1035B00053B10D4A1A65006B09F0CBFD10B1206BB9
:1035C000036D9847002010BD0023C384202380F89A
:1035D0003930FFF7DBFFF5E70023C384202380F8B1
:1035E0003930FFF7D3FFEDE7ED35000808B5806B04
:1035F0000023C384202380F83930FFF7C7FF08BDBC
:10360000704710B504460268D36823F49073D36002
:103610000268536923F00103536103685A6912F089
:10362000400F18D05A6922F040025A61436B53B1DF
:103630000D4A1A65406B09F08CFD10B1606B036D8B
:103640009847002010BD0023C385202380F83A301E
:10365000FFF7D6FFF5E70023C385202380F83A3033
:10366000FFF7CEFFEDE700BF6D36000808B5806BB1
:103670000023C385202380F83A30FFF7C1FF08BD3F
:1036800090F83830012B12D0012380F838302423F1
:1036900080F839300268D36843F00103D3602023F7
:1036A00080F83930002380F83830184670470220FF
:1036B000704790F83830012B12D0012380F8383051
:1036C000242380F839300268D36843F00203D360C2
:1036D000202380F83930002380F8383018467047AE
:1036E0000220704790F83830012B12D0012380F867
:1036F0003830242380F839300268D36823F002037D
:10370000D360202380F83930002380F83830184601
:1037100070470220704790F83830012B14D00123F5
:1037200080F83830242380F839300268D36823F0D9
:103730000C0343F00803D360202380F839300023C2
:1037400080F83830184670470220704790F83830BB
:10375000012B14D0012380F83830242380F839302D
:103760000268D36823F00C0343F00403D3602023E2
:1037700080F83930002380F838301846704702202E
:10378000704790F8393090F83A0018437047C06B92
:10379000704700BF82B0154B1B68154AA2FB03237C
:1037A0005B0A642202FB03F30193019B43B1019B7B
:1037B000013B019303689B6813F0020FF5D003E00F
:1037C000436D43F0400343650268136823F04003F0
:1037D00013600268536823F0E00353600368DB68FA
:1037E000072380F8513002B0704700BF140000205A
:1037F000F11976050268536823F08003536002686C
:10380000136823F040031360072380F8513070479A
:10381000F8B507460E4615461C463A68936836EAE0
:1038200003030CBF01230023AB4237D0B4F1FF3FA9
:10383000F4D00CF0BBFF069BC01AA04201D2002CB2
:10384000EBD13A68536823F0E00353607B68B3F52B
:10385000827F0BD0BB6AB3F5005F14D0012387F8D9
:103860005130002387F85030032018E0BB68B3F5CF
:10387000004F02D0B3F5806FECD13A68136823F0A3
:1038800040031360E6E73A68136823F400531360BB
:103890003A68136843F400531360DFE70020F8BD73
:1038A00010B582B0044600920B4600228021FFF73B
:1038B000AFFF034610B9184602B010BD636D43F068
:1038C000200363650323F6E710B582B004460B4678
:1038D0004168B1F5827F0AD0009200228021204603
:1038E000FFF796FF034678B9184602B010BD81680D
:1038F000B1F5004F02D0B1F5806FEDD120680168BD
:1039000021F040010160E7E7636D43F02003636548
:103910000323E9E77047002841D010B5044690F82A
:103920005130002B32D0022384F8513022681368C2
:1039300023F04003136022686368A1680B43E168C9
:103940000B4321690B4361690B43E1690B43216A16
:103950000B43A16A0B43A16901F400710B4313608F
:103960002268638B03F00403616A0B435360A36A0C
:10397000B3F5005F0FD02268D36923F40063D361ED
:1039800000206065012384F8513010BD80F850306C
:10399000FFF7C0FFC7E72368E26A1A61EBE701207F
:1039A0007047704790B110B50446022380F851303B
:1039B0000268136823F040031360FFF7F2FF002052
:1039C000606584F8510084F8500010BD01207047F4
:1039D0002DE9F04182B090F85040012C00F0DB80DE
:1039E0001D46174688460446012380F850300CF0E7
:1039F000DDFE064694F85130DBB2012B09D00220DF
:103A0000012384F85130002384F8503002B0BDE81F
:103A1000F081B8F1000F00F0B680002F00F0B58003
:103A2000032384F8513000236365C4F83080A786EF
:103A3000E786A363A387E38763642364A368B3F57E
:103A4000004F20D0A36AB3F5005F22D023681A6824
:103A500012F0400F03D11A6842F040021A60E36886
:103A6000B3F5006F20D063680BB1012F54D12368E8
:103A7000226B12781A73236B01332363E38E013BAD
:103A80009BB2E38648E02268136843F480431360E6
:103A9000D8E72268136823F4005313602268136880
:103AA00043F400531360D1E763680BB1012F13D1C6
:103AB0002368226B1288DA60236B02332363E38E60
:103AC000013B9BB2E38607E00CF070FE801BA8422E
:103AD00016D3B5F1FF3F5AD1E38E9BB2002B32D003
:103AE00023689A6812F0020FEED0226B1288DA6017
:103AF000236B02332363E38E013B9BB2E386EBE748
:103B0000002DE9D103207BE70CF050FE801BA8427A
:103B100015D3B5F1FF3F3CD1E38E9BB29BB1236837
:103B20009A6812F0020FEFD0226B12781A73236B8F
:103B300001332363E38E013B9BB2E386ECE7002D68
:103B4000EAD103205CE7A36AB3F5005F15D03246E3
:103B500029462046FFF7A4FE08B120236365A36829
:103B600033B901932368DA6801929B680193019B42
:103B7000606D003018BF012042E72268136843F4EB
:103B800080531360E3E701203AE7012038E7032080
:103B900036E7032034E7022038E72DE9F04385B00B
:103BA000DDF8308090F85040012C00F063811D4614
:103BB00017460E460446012380F850300CF0F6FDFF
:103BC000814694F85100C0B2012816D06368B3F55D
:103BD000827F0AD00225012384F85130002384F823
:103BE0005030284605B0BDE8F083A368002B40F0B4
:103BF0003581042801D00225EDE7002E00F0308148
:103C0000002F00F02F81002D00F02E8194F851300C
:103C1000DBB2042B1CBF052384F8513000236365FD
:103C2000A763E587A5872663E586A5862364636485
:103C3000A36AB3F5005F1FD023681A6812F0400F23
:103C400003D11A6842F040021A60E368B3F5006FCE
:103C50001DD063680BB1012D0AD12368226B127845
:103C60001A73236B01332363E38E013B9BB2E3861C
:103C7000012500272E468CE02268136823F40053A8
:103C800013602268136843F400531360D4E7636839
:103C90000BB1012D0AD12368226B1288DA60236BE5
:103CA00002332363E38E013B9BB2E38601250027A9
:103CB0002E4624E02268136843F4805313603D4687
:103CC00000E03D4623689A6812F0010F0DD0E28FA4
:103CD00092B252B1DA68A36B1A80A36B0233A3636A
:103CE000E38F013B9BB2E38735460CF05FFDA0EB11
:103CF0000900404503D3B8F1FF3F40F0B780E38EA1
:103D00009BB21BB9E38F9BB2002B6CD023689A68DF
:103D100012F0020FD6D0E28E92B2002AD2D0002D3D
:103D2000D0D0226B1288DA60236B02332363E38ED8
:103D3000013B9BB2E386E38E9BB2002BC1D1A36A09
:103D4000B3F5005FB6D03D46BCE72268136843F484
:103D5000805313603D4600E03D4623689A6812F0A8
:103D6000010F0DD0E28F92B252B1DA68A36B1A70D4
:103D7000A36B0133A363E38F013B9BB2E38735461B
:103D80000CF014FDA0EB0900404527D3B8F1FF3F2C
:103D90006ED1E38E9BB213B9E38F9BB21BB3236842
:103DA0009A6812F0020FD8D0E28E92B2002AD4D0D4
:103DB000012DD2D1226B12781A73236B0133236346
:103DC000E38E013B9BB2E386E38E9BB2002BC3D113
:103DD000A36AB3F5005FB8D03D46BEE7B8F1000F67
:103DE000D7D10325F7E6A36AB3F5005F0DD02368AA
:103DF0009A6812F0100F1AD0626D42F002026265EA
:103E00004FF6EF729A60012512E0CDF8009043461C
:103E1000012211462046FFF7FBFC28B1636D43F0F9
:103E2000020363650325D6E62368DB68DFE7002528
:103E30004A4641462046FFF733FD18B1202363650B
:103E40000125C8E6A368002B7FF4C5AE0393236861
:103E5000DA6803929B680393039BBCE60225BAE6EB
:103E60000125B8E60125B6E60125B4E60325B2E64C
:103E70000325B0E60225B4E62DE9F04182B0044600
:103E80000F4690461D464368B3F5827F19D094F8DB
:103E90005030012B00F0F280012384F850300CF0F8
:103EA00085FC064694F85130DBB2012B15D0022078
:103EB000012384F85130002384F8503002B0BDE86B
:103EC000F0818368002BE2D1042380F85130009503
:103ED00013460A46FFF761FEF0E7002F00F0C480AA
:103EE000B8F1000F00F0C280042384F851300023A1
:103EF0006365A763A4F83C80A4F83E802363A3868F
:103F0000E38623646364A36AB3F5005F0FD0A368FC
:103F1000B3F5004F1AD023681A6812F0400F03D18E
:103F20001A6842F040021A60E368F3B13DE022688B
:103F3000136823F4005313602268136843F400539A
:103F40001360E38F013B9BB2E387E0E722681368CD
:103F500023F480431360DEE70CF028FC801BA842AA
:103F600017D3B5F1FF3F40F08380E38F9BB2002B66
:103F700032D023689A6812F0010FEDD0A26B1B7B40
:103F80001370A36B0133A363E38F013B9BB2E38701
:103F9000EBE7002DE9D103208AE70CF007FC801B3A
:103FA000A84215D3B5F1FF3F64D1E38F9BB29BB11B
:103FB00023689A6812F0010FEFD0DA68A36B1A80B9
:103FC000A36B0233A363E38F013B9BB2E387ECE770
:103FD000002DEAD103206BE7A36AB3F5005F18D088
:103FE000324629462046FFF76FFC08B1202363655F
:103FF00023689A6812F0100F06D0626D42F0020238
:1040000062654FF6EF729A60606D003018BF012054
:104010004EE72268136843F48053136000962B46E2
:10402000012211462046FFF7F3FB28BBE368B3F5F6
:10403000006F11D02268A36B127B1A7000962B467A
:10404000012211462046FFF7E3FB50B1636D43F0B8
:104050000203636503202BE72368DA68A36B1A80E9
:10406000ECE72368DB68BBE7012021E701201FE7BD
:1040700003201DE703201BE7032019E702201DE7AB
:10408000034690F85000012852D0012083F85000D8
:10409000002944D0002A44D093F85100C0B201282E
:1040A00001D002203EE0032083F851000020586533
:1040B00019639A86DA8698639887D8871864DA68CD
:1040C000CAB11C4A5A649A68B2F5004F16D09A6A6F
:1040D000B2F5005F18D019684A6842F0A0024A6041
:1040E0001A68116811F0400F20D1116841F04001A9
:1040F0001160002016E0104A5A64E4E719680A6863
:1041000042F480420A60E2E719680A6822F4005229
:104110000A6019680A6842F400520A60DBE701206D
:1041200000E00120002283F8502070470020F9E7CA
:1041300002207047414900080949000830B490F84E
:104140005040012C63D0012480F8504090F8514039
:10415000E4B2012C11D04568B5F5827F06D0022368
:10416000002280F85020184630BC70478568002D2A
:1041700043D1042C01D00223F2E700293FD0002ACA
:104180003FD0002B3FD090F85140E4B2042C1CBF2C
:10419000052480F851400024446501638386C3866A
:1041A00082638387C387C368BBB11A4B03641A4B0E
:1041B0004364836AB3F5005F14D00268536843F028
:1041C000E003536003681A6812F0400F1DD11A68AB
:1041D00042F040021A600023C2E7104B0364104B08
:1041E0004364E6E70268136823F40053136002682F
:1041F000136843F400531360DFE70223B0E70123A1
:10420000AEE70123ACE70123AAE70023A8E70223D6
:10421000A9E700BFA14C00084D4C0008E94B00087D
:10422000954B000838B5044685681DB94368B3F559
:10423000827F10D094F85000012859D0012384F8CF
:10424000503094F85100C0B298420CD002200023A4
:1042500084F8503038BD1346042280F851200A46B5
:10426000FFF76CFFF6E700293CD0002A3CD004237E
:1042700084F8513000236365A163A287E28723633A
:10428000A386E3866364E368C3B11A4B2364B5F580
:10429000004F16D0A36AB3F5005F18D022685368A8
:1042A00043F06003536023681A6812F0400F1DD179
:1042B0001A6842F040021A600020C8E70E4B2364DF
:1042C000E5E72268136823F480431360E2E722687D
:1042D000136823F4005313602268136843F40053F7
:1042E0001360DBE70120B2E70120B0E70020AEE772
:1042F0000220AFE7554A0008EF49000890F8503017
:10430000012B6ED010B50446012380F8503090F890
:104310005130DBB2012B05D00223002284F850205B
:10432000184610BD002958D0002A58D0032380F821
:1043300051300023436501638286C28683634364F0
:1043400003648387C3878368B3F5004F20D0A36AD3
:10435000B3F5005F22D0A36C234A1A64A36C234AEE
:10436000DA63A36C224ADA64A36C00221A65E38E36
:1043700022680C32216BA06C08F057FE0346C0B1D6
:10438000636D43F010036365012384F85130C4E783
:104390000268136843F480431360D8E72268136807
:1043A00023F4005313602268136843F4005313602E
:1043B000D1E72268116811F0400F03D1116841F074
:1043C0004001116021684A6842F020024A60216879
:1043D0004A6842F002024A609FE701239DE70123F9
:1043E0009BE7022318467047534800081F4D0008FA
:1043F000FD4C000838B590F85040012C00F0A88022
:104400000446012084F8500094F85100C0B20128FD
:1044100011D06568B5F5827F05D00223002284F8AB
:104420005020184638BDA568002D40F0898004282A
:1044300001D00223F2E7002900F08480002A00F076
:104440008380002B00F0828094F85100C0B20428D1
:104450001CBF052084F85100002060652163A386FD
:10446000E386A263A387E38720646064A36AB3F54D
:10447000005F20D094F85130DBB2042B26D0E36CDF
:10448000344A1A64E36C344ADA63E36C334ADA641C
:10449000E36C00221A65E38F2168A26B0C31E06C9B
:1044A00008F0C3FDC8B1636D43F0100363650123D9
:1044B00084F85130B2E72268136823F40053136084
:1044C0002268136843F400531360D3E7E36C244A73
:1044D0001A64E36C234ADA63D7E72268536843F02F
:1044E00001035360A26C00231364A26CD363A26C1B
:1044F000D364A26C1365E38E22680C32216BA06C2E
:1045000008F093FD034638B1636D43F01003636513
:10451000012384F8513081E72268116811F0400FBF
:1045200003D1116841F04001116021684A6842F0EE
:1045300020024A6021684A6842F002024A606DE740
:1045400002236BE7012369E7012367E7012365E79E
:10455000022366E76B480008294E0008FD4C00085E
:104560005F4800088F4D000838B5044685681DB9BE
:104570004368B3F5827F11D094F85000012873D0BE
:10458000012084F8500094F85100C0B201280ED0E8
:104590000223002284F85020184638BD042380F8F6
:1045A000513013460A46FFF725FF0346F4E700297A
:1045B00056D0002A56D0042384F851300023636576
:1045C000A163A287E28723646364A386E386B5F5CB
:1045D000004F20D0A36AB3F5005F22D0E36C234ADA
:1045E0001A64E36C224ADA63E36C224ADA64E36C0D
:1045F00000221A65E38F2168A26B0C31E06C08F091
:1046000014FD0346C0B1636D43F0100363650123DD
:1046100084F85130BDE72268136823F480431360A7
:10462000D8E72268136823F40053136022681368E4
:1046300043F400531360D1E72268116811F0400F72
:1046400003D1116841F04001116021684A6842F0CD
:1046500020024A6021684A6842F001024A6098E7F5
:10466000012396E7012394E7022395E75F480008BA
:104670008F4D0008FD4C000810B584B004464A4B2D
:104680001B684A4AA2FB03235B0A642202FB03F372
:104690000293029B03930268536823F02003536044
:1046A0000268536813F0800F12D0414B4364039BA0
:1046B00043B1039B013B039394F85130DBB2072BCA
:1046C000F5D103E0636D43F040036365029B039300
:1046D000536813F0400F12D0364B2364039B43B151
:1046E000039B013B039394F85130DBB2072BF5D1C8
:1046F00003E0636D43F040036365029B03935368DB
:1047000013F0020F1DD0A36CDBB100221A65A06C60
:1047100008F0D5FC08B1402363652268536823F094
:1047200002035360039B43B1039B013B0393236844
:104730009B6813F0020FF5D003E0636D43F0400374
:10474000636523685B6813F0010F13D0E36C8BB1D2
:1047500000221A65E06C08F0B2FC08B140236365E2
:104760002268136823F0400313602268536823F023
:10477000010353600023E387E386636D402B1ABF78
:10478000002060650120002200922368D968009112
:1047900099680091009901929B680193019B012304
:1047A00084F8513004B010BD14000020F1197605D2
:1047B000F53700089537000890F85030012B0CD0E1
:1047C000012380F850300268536823F003035360DC
:1047D000002380F85030184670470220704790F848
:1047E0005030012B0CD0012380F850300268536800
:1047F00043F003035360002380F85030184670479D
:104800000220704738B50446806C48B108F057FC68
:10481000054630B1636D43F010036365012500E088
:104820000025E06C38B108F04AFC20B1636D43F01C
:104830001003636501252268536823F00303536066
:10484000012384F85130284638BD704770477047BF
:10485000704708B5806BFFF7FBFF08BD704708B5D0
:10486000806BFFF7FBFF08BD704708B5806BFFF753
:10487000FBFF08BD704710B582B00446204B1B6893
:10488000204AA2FB03235B0A642202FB03F3019389
:104890000BF08CFF0246019B43B1019B013B01934E
:1048A00023689B6813F0020FF5D003E0636D43F0BB
:1048B0002003636521684B6823F0A0034B606421EB
:1048C0002046FEF7EDFF18B1636D43F020036365EA
:1048D000A36833B900932368DA6800929B68009359
:1048E000009B012384F85130636D23B92046FFF704
:1048F000ACFF02B010BD2046FFF7BCFFF9E700BFD8
:1049000014000020F119760508B50368026B1278CF
:104910001A73036B01330363C38E013B9BB2C386DF
:10492000C38E9BB22BB9836AB3F5005F02D0FFF749
:10493000A2FF08BD0268136843F480531360F6E7D2
:1049400008B50368026B1288DA60036B02330363F5
:10495000C38E013B9BB2C386C38E9BB22BB9836AC5
:10496000B3F5005F02D0FFF786FF08BD0268136849
:1049700043F480531360F6E710B582B00446026832
:10498000536823F0600353600BF010FF024664216C
:104990002046FEF799FF18B1636D43F0200363656D
:1049A000A36833B901932368DA6801929B68019385
:1049B000019B012384F8513023689A6812F0100F8C
:1049C00006D1636D7BB12046FFF754FF02B010BDE6
:1049D000626D42F0020262654FF6EF729A60204605
:1049E000FFF748FFF2E72046FFF730FFEEE708B594
:1049F0000268836B127B1A70836B01338363C38FEE
:104A0000013B9BB2C387C38F9BB2012B09D0C38FDD
:104A10009BB27BB9836AB3F5005F09D1094B03648C
:104A200008E0836AB3F5005F05D0C38F9BB20BB972
:104A3000FFF7A2FF08BD0268136843F480531360B8
:104A4000E5E700BF494A000808B503681B7BFFF78C
:104A500093FF08BD08B50368DA68836B1A80836B1F
:104A600002338363C38F013B9BB2C387C38F9BB267
:104A7000012B09D0C38F9BB27BB9836AB3F5005F6A
:104A800009D1094B036408E0836AB3F5005F05D0E0
:104A9000C38F9BB20BB9FFF76FFF08BD02681368A5
:104AA00043F480531360E5E7AD4A000808B5036896
:104AB000DA685A6822F060025A60FFF75DFF08BDAD
:104AC00010B582B00446314B1B68314AA2FB032368
:104AD0005B0A642202FB03F301930BF067FE0246BC
:104AE00021684B6823F020034B60019B43B1019B7D
:104AF000013B019323689B6813F0020FF5D003E09C
:104B0000636D43F02003636564212046FEF7C8FE11
:104B100018B1636D43F020036365A36833B9009354
:104B20002368DA6800929B680093009B23689A6868
:104B300012F0100F0ED1636D0BBB94F85130DBB245
:104B4000042B15D0012384F851302046FFF77FFE57
:104B500002B010BD012284F85120626D42F00202C1
:104B600062654FF6EF729A602046FFF783FEEFE72B
:104B7000012384F851302046FFF768FEE8E701235F
:104B800084F851302046FFF775FEE1E7140000205D
:104B9000F119760508B50368026B12781A73036B76
:104BA00001330363C38E013B9BB2C386C38E9BB2AA
:104BB0005BB9836AB3F5005F08D00268536823F0DD
:104BC00080035360C38F9BB25BB108BD026813685A
:104BD00043F4805313600268536823F080035360EA
:104BE000F3E7FFF76DFFF0E708B50268836B127B10
:104BF0001A70836B01338363C38F013B9BB2C387FE
:104C0000C38F9BB25BB9836AB3F5005F08D00268BB
:104C1000536823F060035360C38E9BB21BB108BD81
:104C2000024B0364FBE7FFF74BFFF8E7314C00084A
:104C300008B503681A7B5A6822F060025A60C38E76
:104C40009BB203B108BDFFF73BFFFBE708B5036864
:104C5000026B1288DA60036B02330363C38E013B7D
:104C60009BB2C386C38E9BB25BB9836AB3F5005F08
:104C700008D00268536823F080035360C38F9BB24F
:104C80005BB108BD0268136843F480531360026887
:104C9000536823F080035360F3E7FFF711FFF0E759
:104CA00008B50368DA68836B1A80836B0233836309
:104CB000C38F013B9BB2C387C38F9BB25BB9836A2F
:104CC000B3F5005F08D00268536823F040035360D7
:104CD000C38E9BB21BB108BD024B0364FBE7FFF719
:104CE000EFFEF8E7E94C000808B50368DA685A688F
:104CF00022F040025A60FFF7E3FE08BD08B5806B62
:104D00000268536823F003035360436D43F01003BC
:104D10004365012380F85130FFF7ACFD08BD30B585
:104D200083B00546846B0BF041FD2B681B6813F4C0
:104D3000807F23D12268536823F0200353602268C8
:104D4000536823F002035360024664212046FEF7B5
:104D5000A7FD18B1636D43F020036365A36833B901
:104D600001932368DA6801929B680193019B0023F9
:104D7000E386012384F85130636D23B92046FFF7A1
:104D800064FD03B030BD2046FFF774FDF9E770B550
:104D900082B00546846B0BF009FD2B681B6813F489
:104DA000807F29D106462268536823F02003536090
:104DB000A36AB3F5005F24D02268536823F003038D
:104DC0005360324664212046FEF77EFD08B1202361
:104DD00063650023E387012384F8513023689A68D0
:104DE00012F0100F06D0626D42F0020262654FF6BB
:104DF000EF729A60636D9BB92046FFF727FD02B002
:104E000070BD00906423012211462046FEF700FD8C
:104E100018B1636D43F0020363652368DB68CBE779
:104E20002046FFF727FDEAE770B582B00546846BA0
:104E30000BF0BCFC2B681B6813F4807F2CD106465A
:104E40002268536823F020035360A36AB3F5005F20
:104E500027D0324664212046FEF722FD18B1636D4B
:104E600043F0200363652268536823F00303536013
:104E70000023E386E387012384F8513023689A688E
:104E800012F0100F06D0626D42F0020262654FF61A
:104E9000EF729A60636D9BB92046FFF7D8FC02B0B1
:104EA00070BD00906423012211462046FEF7B0FC3D
:104EB00018B1636D43F0020363652368DB68C8E7DC
:104EC0002046FFF7D7FCEAE770B584B004460168D6
:104ED00048688A68930913F0010509D112F0010F9F
:104EE00006D010F0400F03D0236C2046984708E00E
:104EF00012F0020F07D010F0800F04D0636C204630
:104F0000984704B070BD5609334313F0010F5ED0CB
:104F100010F0200FF5D07DB194F85130DBB2032BA7
:104F200059D0636D43F00403636500230093CB689D
:104F300000938B680093009B16F0010F0CD0636DFB
:104F400043F001036365002302938B6802930B68AF
:104F500023F040030B60029B12F4807F09D0636D45
:104F600043F0080363650023039323689B6803935E
:104F7000039B636D002BC4D02268536823F0E003C9
:104F80005360012384F8513010F0030F2BD02268B6
:104F9000536823F003035360E36C4BB1144A1A6562
:104FA000E06C08F0D6F818B1636D43F04003636518
:104FB000A36C002BA5D00E4A1A65A06C08F0C9F8A6
:104FC00000289ED0636D43F04003636599E712F4B7
:104FD000807F9DD195E700230193CB6801938B6877
:104FE0000193019B8DE72046FFF744FC89E700BF52
:104FF000F54F000808B5806B0023C387C386FFF711
:1050000039FC08BD704770B584B004464F4B1B682F
:105010004F4AA2FB03235B0A642202FB03F30293C1
:10502000029B03930268536823F0200353600268D5
:10503000536813F0800F12D0464B4364039B43B177
:10504000039B013B039394F85130DBB2072BF5D15E
:1050500003E0636D43F040036365029B0393536871
:1050600013F0400F12D03C4B2364039B43B1039BCE
:10507000013B039394F85130DBB2072BF5D103E0E9
:10508000636D43F040036365029B0393A36C33B1EC
:10509000526812F0020F14BF304A00221A65E36C06
:1050A0003BB12268526812F0010F14BF2C4A002253
:1050B0001A6523685B6813F0020F0BD0A06C48B12F
:1050C00008F047F80546002836D0A36C00221A6580
:1050D0004023636523685B6813F0010F10D0E06C18
:1050E000012668B108F035F8054630B1E36C0022BE
:1050F0001A6540236365002516B9284604B070BDC3
:105100000023E387E386636D402B1ABF00256565A6
:105110000125002200922368D968009199680091C6
:10512000009901929B680193019B012384F85130FF
:105130002046FFF767FFE0E723685B6813F0010F85
:10514000DBD0E06C0028D8D00026CBE7140000208C
:10515000F1197605F537000895370008DD5100088C
:105160006551000810B582B0846B2268136823F083
:1051700040031360E36C00221A652268536823F031
:10518000010353600BF012FB024664212046FEF738
:1051900087FB18B1636D43F040036365A36C0BB1EB
:1051A0001B6DCBB90023E387E386636D402B1CBFE7
:1051B00000236365002200922368D96800919968F2
:1051C0000091009901929B680193019B012384F84F
:1051D00051302046FFF716FF02B010BD00B585B074
:1051E000806B836C00221A651E4B1B681E4AA2FB53
:1051F00003235B0A642202FB03F3039302685368F0
:1052000023F002035360039B43B1039B013B0393D1
:1052100003689B6813F0020FF5D003E0436D43F081
:1052200040034365C36C0BB11B6DC3B90023C38737
:10523000C386436D402B1CBF0023436500220192AF
:105240000368D968019199680191019902929B685C
:105250000293029B012380F85130FFF7D3FE05B083
:105260005DF804FB14000020F119760590F8510058
:105270007047406D704700BF70B40C6850F8243020
:10528000194E1E408D684A6845EA0203CA681343F6
:105290000A6913434A6913438A691343CA6913436A
:1052A0000A6A13434A6A13438A6A1343CA6A134356
:1052B000CA6B13430A6B13434A6B13433343082DE2
:1052C00008BF43F0400340F824304B6BB3F5801F18
:1052D00002D0002070BC70470B68002BF9D0036827
:1052E00043F480130360F4E78000E0FF10B400EBA8
:1052F000820450F8223023F0010340F822305AB1E2
:1053000043F2D20340F822306FF07043636041F8FB
:105310002230002010BC704743F2DB030360F3E748
:1053200030B400EB8202546804F040440B688D698D
:105330002B434D6843EA05138D6843EA0523CD6886
:1053400043EA05430D69013D43EA05534D69023DBA
:1053500043EA056323435360036813F4801F07D0B7
:10536000436823F470030A69013A43EA0253436035
:10537000002030BC7047B3F5804F05D06FF070430C
:1053800040F822300020704730B450F822300A4CE8
:105390001C400B688D692B434D6843EA05138D68EB
:1053A00043EA0523C96843EA0143234340F8223016
:1053B000002030BC704700BF0000F0CF50F8213013
:1053C00043F4805340F821300020704750F82130DA
:1053D00023F4805340F821300020704730B40C682B
:1053E000102C0CBF0368036A0C4A1A404B688D6886
:1053F0002B4343F00803CD682B430D692B434D69C4
:1054000043EA4523896943EA41331343102C0CBF17
:1054100003600362002030BC704700BF8101F0FFD1
:10542000102A0DD0836A4A688B681B0443EA022362
:105430000A681343CA6843EA026383620020704724
:1054400083684A688B681B0443EA02230A68134393
:10545000CA6843EA02638360F0E7102A0DD0C36A8A
:105460004A688B681B0443EA02230A681343CA682C
:1054700043EA0263C36200207047C3684A688B68CE
:105480001B0443EA02230A681343CA6843EA02631F
:10549000C360F0E710290DD0036A23F00403036210
:1054A00018230362402343624FF0FC338362C362DC
:1054B00000207047036823F004030360182303608F
:1054C000402343604FF0FC338360C360F0E7102952
:1054D00005D0036A43F0400303620020704703686D
:1054E00043F040030360F8E7102905D0036A23F076
:1054F0004003036200207047036823F04003036009
:10550000F8E72DE9F04105460F4614461E460BF01C
:105510004DF98046102C0CBF6B686B6A83F040031A
:10552000C3F380135BB1B6F1FF3FF3D07EB10BF054
:105530003DF9A0EB0800B042ECD9032005E0102CA7
:105540000CBF6B696B6B3B600020BDE8F0810320F2
:10555000FBE710B4026822F4FF3222F03A024C68F2
:105560000B6843F0100343EA4423896843EA41335C
:1055700013430360002010BC704783684A688B683F
:105580001B0443EA02230A681343CA6843EA02631E
:10559000836000207047C3684A688B681B0443EA35
:1055A00002230A681343CA6843EA0263C360002007
:1055B000704703694A688B681B0443EA02230A6840
:1055C0001343CA6843EA026303610020704703463D
:1055D000026822F004020260182202600020586073
:1055E0004FF0FC329A60DA601A6170470B68012B49
:1055F00019D0036823F4FF4323F07F034A68134361
:105600008A681343CA6813430A6913434A691343F8
:105610008A691343CA6913430A6A13434A6A1343E4
:1056200003600020704710B4026822F4F842CB698E
:105630001A430B6A1A434B6A1A43436823F4FF4325
:1056400023F07F034C6823438C682343CC682343B7
:105650000C6923434C69234389690B43026043600F
:10566000002010BC7047012A20D083684A68013AA4
:1056700003F0704343EA02130A68013A13438A684D
:10568000013A43EA0223CA68013A43EA02330A694B
:10569000013A43EA02434A69013A43EA02538A69FA
:1056A000013A43EA026383600020704710B48368C4
:1056B000CA68013A23F4700323F4704343EA0233C7
:1056C0004A69013A43EA0252C3684C68013C03F05C
:1056D000704343EA04130C68013C23438C68013C8B
:1056E00043EA04230C69013C43EA04438969013914
:1056F00043EA01638260C360002010BC7047034628
:1057000000EB81024FF4347043F821006FF07041D8
:1057100091600020186158619861704750F82130FD
:1057200043F4007340F821300020704750F82130D6
:1057300023F4007340F821300020704770B582B028
:1057400004461546002301930B684A681343CA6850
:1057500043EA42238A68013A43EA42130193019BD8
:1057600003610BF023F80646A36913F0200F0AD05B
:10577000B5F1FF3FF8D04DB10BF018F8801BA842EF
:10578000F2D9032000E0002002B070BD0320FBE747
:10579000436943EA4101416100207047036943EADC
:1057A000411101610020704721B18069800800F03B
:1057B00006007047806900F006007047074AD3680A
:1057C00023F4E0631B041B0C43F0BF6343F400337A
:1057D000000200F4E0600343D360704700ED00E096
:1057E00030B4164BDB68C3F30223C3F10704042C67
:1057F00028BF04241D1D062D8CBF033B00234FF042
:10580000FF3505FA04F421EA0401994005FA03F38F
:1058100022EA03031943002809DB0901C9B200F198
:10582000604000F5614080F8001330BC704700F024
:105830000F000901C9B2024B1954F6E700ED00E070
:1058400014ED00E0002808DB420900F01F000123EE
:1058500003FA00F0014B43F82200704700E100E03A
:1058600000280DDB430900F01F00012202FA00F0BE
:105870002033044A42F82300BFF34F8FBFF36F8FEA
:10588000704700BF00E100E0BFF34F8F0549CA68D1
:1058900002F4E062044B1343CB60BFF34F8F00BFB1
:1058A000FDE700BF00ED00E00400FA050138B0F1AB
:1058B000807F0AD2064B5860064AF02182F82310F6
:1058C0000020986007221A6070470120704700BFCF
:1058D00010E000E000ED00E0BFF35F8F044A536A80
:1058E00023F480335362034B00225A60704700BF99
:1058F00000ED00E090ED00E040F00100054B586045
:10590000054A536A43F480335362BFF34F8FBFF3AA
:105910006F8F704790ED00E000ED00E04278134B90
:105920009A60037823B9114B0022DA601A6170473C
:1059300043680E4AD360017BC37A1B0643EA0173B6
:1059400001780B43817A43EAC143417B43EA8143B7
:10595000817B43EA4143C17B43EA0143417A43EA05
:105960000123017A43EA41031361704790ED00E09F
:10597000024BD868C0F30220704700BF00ED00E082
:1059800070B4002822DB00F1604000F5614090F81F
:105990000003000901F00701C1F10704042C28BF2E
:1059A00004240D1D062D8CBF033900214FF0FF3557
:1059B00005FA04F420FA01F626EA0404146005FA54
:1059C00001F120EA0100186070BC704700F00F0080
:1059D000014C205C0009DDE714ED00E0002809DB44
:1059E000430900F01F00012202FA00F04033024A8E
:1059F00042F82300704700BF00E100E000280BDB05
:105A000043094033054A52F8233000F01F0023FABF
:105A100000F000F0010070470020704700E100E056
:105A2000002809DB430900F01F00012202FA00F000
:105A30006033024A42F82300704700BF00E100E0F3
:105A400000280BDB43098033054A52F8233000F06D
:105A50001F0023FA00F000F001007047002070479B
:105A600000E100E00428044A13680CBF43F004037B
:105A700023F004031360704710E000E0704708B59E
:105A8000FFF7FCFF08BD00BF03685A6912F4806F7E
:105A900011D06FF480625A6100230363202280F8E2
:105AA0003D2080F83E30026C42F00402026480F82F
:105AB0003C3001207047002070472DE9F041064638
:105AC00090461D46C1F307478CB2012F33680CBFC7
:105AD0005B699B6934EA03030CBF012300239845EB
:105AE00019D1B5F1FF3FF0D00AF060FE069BC01A55
